:100000008DC100000C94D81BA5C10000A3C1000045
:100010000C9469379FC100009DC100000C94743698
:1000200099C1000097C1000095C100000C94DD1932
:1000300091C100008FC1000085C500008BC1000088
:1000400089C1000087C100000C9473340C942F34D4
:1000500081C100007FC100007DC100007BC10000A4
:1000600079C1000077C10000421E0B4342044636AE
:100070001069663341362A4747104D8F104B4211A5
:10008000551612598B2D52C709549E0D565B0B57AE
:10009000260A58B31265BA0A66222E6CEA0A74FA66
:1000A0000578D6032A073800000000030F1E262714
:1000B000000000030F1E2536386700030F25674038
:1000C000605000030F275188838100030F2750C819
:1000D000C3C200270000000000000067000000000D
:1000E000000000500000000000000081000000003F
:1000F000000000C20000000000000D2E2D07D3916B
:100100003D04320000060021656A57C43023B9005F
:10011000070018146C070090876BF85611E92A0045
:100120001F4100072E050DD391FF080500000C00AC
:1001300021656A2D3B1322F862073F181D1CC7007A
:10014000B0876BF8B611EA2A001F4100203D20005D
:10015000202F2000504C4C300D0A00504C4C310DDB
:100160000A00203D2000202F20005620312E323062
:100170002E303620612D63756C6677204275696C70
:10018000643A205353657269616C205465737462DC
:1001900075696C64202830312E30332E3230313680
:1001A0002920006E616E6F43554C343333006E610D
:1001B0006E6F43554C383638002028462D42616E0C
:1001C000643A203433334D487A29002028462D42A2
:1001D000616E643A203836384D487A29004C4F56C3
:1001E000460D0A00424F56460D0A000B060D210E21
:1001F000650F6A1700181819161B431C682500267E
:10020000110001024605D4042D0302070008021064
:1002100089115C12061556FF000302FF0000000062
:1002200000000000000000000000000000030210B9
:10023000881182FF000000000000000000000000A4
:100240000003071088110B0D210E6B0FD01553FF03
:100250000000000000737065636966792076616C48
:100260006964206D6F6465206E756D6265720D0A3C
:10027000000007022E030D04E905CA070C0B060D4A
:10028000210E650F6A10C811931203153417331825
:100290001819161B4321562500261129592C812D8A
:1002A000353EC34552523A4343410D0A000D2E2DAF
:1002B00007D3913D04320000060010ABA5550A306B
:1002C00023B900070018146C070090876BF85611CB
:1002D000E92A001F41000D2E2D07D3913D04320065
:1002E00000060010B07155E43023B900070018145F
:1002F0006C070090876BF85611E92A001F41003FF8
:1003000020280020697320756E6B6E6F776E292030
:10031000557365206F6E65206F66000011241FBE47
:10032000CFEFD8E0DEBFCDBF11E0A0E0B1E0EAED55
:10033000F3E702C005900D92A632B107D9F724E089
:10034000A6E2B1E001C01D92A33EB207E1F703D0DF
:100350000C94EB3955CEA0E0B0E0E1EBF1E00C9469
:100360006F380FB6F894A8958091600088618093EB
:100370006000109260000FBE84E290E024E230E062
:10038000F90120812260FC01208385E290E025E2D2
:1003900030E0F90120812260FC0120830E94C935F0
:1003A0000E949F0A87E490E029EFFC01208385E406
:1003B00090E024E0FC01208384E490E022E0FC0152
:1003C00020838EE690E022E0FC01208380E890E02C
:1003D000FC01108281E890E02AE0FC01208384E5A2
:1003E00090E024E530E0F9012081277FFC012083A3
:1003F00087E090E088709927892B11F088E201C08E
:1004000088E097E09770892B982F88E10FB6F894D1
:10041000A895809360000FBE9093600087E690E8F7
:100420000E94B6340E9412360E948B0D0E944F1219
:100430008FE695E39093C6028093C50281E0809396
:100440002A010E94380C85E290E025E230E0F901B3
:1004500020812D7FFC01208378940E94DF340E944C
:1004600030380E945215F1D30E948E2E0E94EF2741
:100470000E94A926F2CFA1E0B0E0E1E4F2E00C9402
:100480006F3889838EE490E02981FC01208300008D
:100490008DE490E0FC0180818823D4F78EE490E025
:1004A000FC0180812196E2E00C948B38A6E0B0E05C
:1004B000ECE5F2E00C946F389E838D838DE390E041
:1004C0002DE330E0F90120812E7FFC01208384E2BE
:1004D00090E024E230E0F90120812460FC012083D7
:1004E00085E290E025E230E0F90120812460FC0102
:1004F00020838EE190E000D485E290E025E230E0B8
:10050000F90120812B7FFC0120838EE190E0F4D360
:1005100085E290E025E230E0F90120812460FC01D1
:1005200020838DE290E0E8D380E361D284E690E01E
:10053000E3D385E290E025E230E0F90120812B7FD2
:10054000FC01208380E497DF19820CC08D819E819D
:100550009C012F5F3F4F3E832D83D7D68CDF89814F
:100560008F5F89838981893288F385E290E025E273
:1005700030E0F90120812460FC0120838BE290E0CF
:100580009B838A8385E290E025E230E0F9012081B7
:100590002B7FFC0120838EE76EDF1C820CC08A81DA
:1005A0009B819C012F5F3F4F3B832A83AED663DF45
:1005B0008C818F5F8C838C81883088F385E290E01A
:1005C00025E230E0F90120812460FC01208383E3EF
:1005D0000ED281E0ADD32696E2E00C948B38A9E0F0
:1005E000B0E0E5EFF2E00C946F3889878BE290E0A1
:1005F0009A83898389858A3010F088E08987898584
:10060000882F90E0880F991F880F991F880F991FD6
:1006100086559F4F9D838C831B821BC08B81882FA7
:1006200090E02C813D81820F931F9F838E838E816A
:100630009F81FC0184918887488589819A819C01EA
:100640002F5F3F4F3A832983642F43D68B818F5F7F
:100650008B838B81883010F38985853028F08985DC
:100660008A3010F481E101C087E1682F84E290E0D4
:1006700030D62996E2E00C948B38AAE0B0E0E3E4AF
:10068000F3E00C946F3882E090E09A8389831B82B8
:1006900019C08B81882F90E086509F4F9E838D8359
:1006A0008D819E81FC0184918F834F8189819A8104
:1006B0009C012F5F3F4F3A832983642F0AD68B8199
:1006C0008F5F8B838B81893220F387E390E09A835D
:1006D00089831C8219C08C81882F90E08D5D9E4F8C
:1006E0009987888788859985FC0184918A874A85BE
:1006F00089819A819C012F5F3F4F3A832983642F20
:10070000E8D58C818F5F8C838C81893220F38BE1DB
:1007100091E0FC018081882F90E081709927892BDE
:1007200009F03EC08FE090E09A83898389819A81A5
:100730009C012F5F3F4F3A83298360E1CAD58981AD
:100740009A819C012F5F3F4F3A83298360EBC1D58B
:1007500089819A819C012F5F3F4F3A83298361E70A
:10076000B8D584E490E09A83898389819A819C0139
:100770002F5F3F4F3A83298360E1ABD589819A810E
:100780009C012F5F3F4F3A83298360EBA2D589817B
:100790009A819C012F5F3F4F3A83298361E799D566
:1007A00088E01DDF2A96E2E00C948B38A3E0B0E0ED
:1007B000ECEDF3E00C946F389B838A8382E08983AD
:1007C0008A819B81019641E09E012F5F3F4FB901D5
:1007D00030D4898104DF82E090E068DE2396E2E095
:1007E0000C948B38A1E0B0E0E8EFF3E00C946F38A4
:1007F0008FEF89838DE390E02DE330E0F9012081D4
:100800002E7FFC01208386E3F2D003C08AE090E0D3
:1008100073D289819FEF980F9983882341F085E3F4
:10082000E6D0882F90E080779927809779F72196F6
:10083000E2E00C948B38A1E0B0E0E1E2F4E00C944B
:100840006F388FEF898303C08AE090E055D28981A9
:100850009FEF980F9983882341F084E3C8D0882FB5
:1008600090E080779927409779F78DE390E02DE32A
:1008700030E0F90120812160FC0120832196E2E033
:100880000C948B38A6E0B0E0E8E4F4E00C946F3808
:100890009E838D838D819E810196FC0180818737A7
:1008A00019F58D819E8102969E012C5F3F4F41E09C
:1008B000B901BFD3892BC1F08D819E8104969E0121
:1008C0002D5F3F4F41E0B901B4D3892B69F09B8183
:1008D0008C81692F69D083E38AD0ADDF8C8198D376
:1008E0008B8196D39FD238C08D819E8101969E01C7
:1008F0002D5F3F4F41E0B9019CD3892B69F18B817A
:100900008939A1F419820EC089812AD081D38981C5
:10091000882F90E087709927079709F483D28981FF
:100920008F5F89838981803378F316C08B8118D0DB
:100930008A8383E412D28B816BD38CE491E050D212
:100940008A8166D380E591E04BD28A81882F90E03E
:1009500040E262E074D266D22696E2E00C948B38D4
:10096000A2E0B0E0E6EBF4E00C946F388A8385E215
:1009700090E025E230E0F90120812B7FFC0120830B
:100980008A81806C78DD80E076DD898385E290E085
:1009900025E230E0F90120812460FC012083898177
:1009A0002296E2E00C948B38A2E0B0E0EAEDF4E0AD
:1009B0000C946F3889836A8385E290E025E230E009
:1009C000F90120812B7FFC0120838981806453DD24
:1009D0008A8151DD85E290E025E230E0F901208155
:1009E0002460FC0120832296E2E00C948B38A2E084
:1009F000B0E0EDEFF4E00C946F388A8385E290E08C
:100A000025E230E0F90120812B7FFC0120838A81DF
:100A100032DD898385E290E025E230E0F901208132
:100A20002460FC01208389812296E2E00C948B38BB
:100A3000A0E0B0E0EEE1F5E00C946F3886E3D7DF9C
:100A40001092C70210923802E2E00C948B38A0E0BA
:100A5000B0E0EDE2F5E00C946F3882E090E026DD46
:100A600081E08093C70210923802E2E00C948B3848
:100A7000A0E0B0E0EEE3F5E00C946F3885E270DFC3
:100A80008F3311F080E01FC086E3B1DF8091260133
:100A9000882321F484E591E0A3D102C08DE3A7DF90
:100AA00083E3A5DF64E081E011D085E259DF8F3375
:100AB00011F080E008C080912601882319F48BE5AD
:100AC00091E08ED181E0E2E00C948B38A3E0B0E0BD
:100AD000ECE6F5E00C946F388A836B838FEF8983A3
:100AE00085E33EDF982F8A81981711F480E00BC0D0
:100AF0008B81882F90E000D189819FEF980F998397
:100B0000882371F781E02396E2E00C948B38A0E013
:100B1000B0E0EDE8F5E00C946F3885E321DF8D302F
:100B200071F485E21DDF8F3351F4A2DF000084E30E
:100B30005EDF882F90E0807799274097C1F7E2E049
:100B40000C948B381F920F9200905F000F9211242B
:100B50008F939F93AF93BF93CF93DF93CDB7DEB7C0
:100B60008091C9029091CA02A091CB02B091CC02AF
:100B70000196A11DB11D8093C9029093CA02A09352
:100B8000CB02B093CC028091C8028F5F8093C802E1
:100B9000DF91CF91BF91AF919F918F910F90009274
:100BA0005F000F901F901895A3E0B0E0EAEDF5E02C
:100BB0000C946F389B838A838FE590E0FC018081E1
:100BC0008983F8948091C9029091CA02A091CB02C6
:100BD000B091CC022A813B81F90180839183A28369
:100BE000B3838FE590E02981FC0120832396E2E026
:100BF0000C948B38A8E0B0E0E0E0F6E00C946F389D
:100C000098878F83CE010396CFDFCE0103969A8318
:100C1000898389819A810396FC018081F9D1898138
:100C20009A810296FC018081F3D189819A81019693
:100C3000FC018081EDD189819A81FC018081E8D11C
:100C4000F1D02896E2E00C948B38A0E0B0E0EBE223
:100C5000F6E00C946F388091C9029091CA02A0917D
:100C6000CB02B091CC02982F80912701981709F4FC
:100C700040C08091C9029091CA02A091CB02B0916C
:100C8000CC0280932701A8958091C8028D3708F483
:100C900030C01092C80280910001882F90E08270CD
:100CA0009927892B51F085E290E025E230E0F901A7
:100CB000308122E02327FC0120838091CF02909194
:100CC000D0028438934048F48091CF029091D002B2
:100CD00001969093D0028093CF02809128018F5F7C
:100CE00080932801809128018C3309F002C0109272
:100CF0002801E2E00C948B38A4E0B0E0E2E8F6E0F2
:100D00000C946F389C838B838B819C81880F991FF7
:100D10009C838B838B819C819A83898389819A812F
:100D20000197F1F79A8389832496E2E00C948B383B
:100D3000A1E0B0E0EEE9F6E00C946F38898303C0DF
:100D400088EE93E0D9DF89819FEF980F99838823FC
:100D5000B9F72196E2E00C948B38A1E0B0E0E3EB28
:100D6000F6E00C946F38898380912A01882F90E0F7
:100D700081709927892B99F08091D5028E3750F098
:100D80008091D50288235CF089818D3019F08981AA
:100D90008A3029F48981682F83ED92E0EFD521967E
:100DA000E2E00C948B38A2E0B0E0E9EDF6E00C94C0
:100DB0006F389A8389830AC089819A819C012F5F49
:100DC0003F4F3A832983FC018081C7DF89819A8163
:100DD000FC018081882381F72296E2E00C948B3815
:100DE000A6E0B0E0E6EFF6E00C946F389E838D83CA
:100DF00007C08C81B2DF8D819E8101969E838D8399
:100E00008D819E819A83898389819A81FC01849155
:100E10008B838B818C838C81882359F72696E2E023
:100E20000C948B38A0E0B0E0E8E1F7E00C946F3868
:100E30008DE093DF8AE091DFE2E00C948B38ABE049
:100E4000B0E0E5E2F7E00C946F38998788876A870D
:100E50004B8786E089838981815089838981882FA6
:100E600090E09E012E5F3F4F820F931FFC01108286
:100E70008981815089838981E82FF0E048855985EF
:100E80009A01ADECBCEC0E945038969587959695EA
:100E9000879596958795880F991F9C01220F331F80
:100EA000220F331F820F931F9A01281B390BC90190
:100EB000805D282FCE0102968E0F9F1FFC0120839C
:100EC000888599859C01ADECBCEC0E9450389695C4
:100ED00087959695879596958795998788878A852A
:100EE00081508A8788859985892B21F0898188237B
:100EF00009F0BECF0EC08981815089838981882FF6
:100F000090E04B859E012E5F3F4F820F931FFC01A7
:100F100040838A8581508A878A8588231CF089814D
:100F2000882349F78981882F90E09E012E5F3F4FEB
:100F3000820F931F38DF2B96E2E00C948B38ABE0E6
:100F4000B0E0E5EAF7E00C946F38998788876A8704
:100F50004B8785E089838981815089838981882FA6
:100F600090E09E012D5F3F4F820F931FFC01108286
:100F700088858F708A838981815089838981882FB0
:100F800090E02A812A3020F42A81205D422F03C07C
:100F90002A81295C422F9E012D5F3F4F820F931FB4
:100FA000FC01408388859985929582958F70892769
:100FB0009F708927998788878A8581508A87888545
:100FC0009985892BA9F60EC08981815089838981F1
:100FD000882F90E04B859E012D5F3F4F820F931F1E
:100FE000FC0140838A8581508A878A8588231CF08A
:100FF0008981882349F78981882F90E09E012D5FA0
:101000003F4F820F931FCFDE2B96E2E00C948B387C
:10101000A1E0B0E0EEE0F8E00C946F3889838981BC
:10102000882F90E040E362E08ADF2196E2E00C94B2
:101030008B38AAE0B0E0EFE1F8E00C946F389F83C2
:101040008E83798768874A87888599859A8389837B
:101050001C821D824EC08B81813618F08B8180529C
:101060008B838B81803350F08B818A3338F48B8172
:101070008053982F8C81892B8C8315C08B81813470
:1010800050F08B81873438F48B818753982F8C8173
:10109000892B8C8308C08B81803221F08B818A332D
:1010A00009F035C026C08D8191E0980F9D8388237B
:1010B000E1F089819A819C012F5F3F4F3A83298318
:1010C0002C81FC0120838A8581508A878A85882328
:1010D00049F429813A8188859985A901481B590BD2
:1010E000CA011DC01D821C8204C08C818295807F34
:1010F0008C838E819F819C012F5F3F4F3F832E8386
:10110000FC0180818B838B81882309F0A4CF298106
:101110003A8188859985A901481B590BCA012A96ED
:10112000E2E00C948B38AAE0B0E0E9E9F8E00C9436
:101130006F389F838E83798768874A8788859985EA
:101140009A8389831B821C822EC01C828D818033EE
:1011500080F08D818A3368F48B81880F982F990FE6
:10116000990F980F8D81890F80538B8381E08C8339
:101170001AC08D81803221F08D818E3209F020C01D
:101180008A85882381F089819A819C012F5F3F4F56
:101190003A8329832B81FC0120831B828B818C83E2
:1011A0008A8581508A878E819F819C012F5F3F4F66
:1011B0003F832E83FC0180818D838D81882329F6D6
:1011C0008C81882369F08A85882351F089819A81EE
:1011D0009C012F5F3F4F3A8329832B81FC012083A1
:1011E00029813A8188859985A901481B590BCA0133
:1011F0002A96E2E00C948B38A7E0B0E0E2E0F9E058
:101200000C946F389D838C837F836E831A8219823E
:1012100019C08B818033B0F08B818A3398F4898137
:101220009A81880F991F9C01220F331F220F331FB1
:10123000280F391F8B81882F90E0820F931FC09752
:101240009A8389838C819D819C012F5F3F4F3D83D1
:101250002C83FC0180818B838B818823D1F68E8146
:101260009F8129813A81FC01318320832796E2E026
:101270000C948B38A4E0B0E0E0E4F9E00C946F3813
:101280008A837C836B838A8182958F70898389812D
:101290008A3020F4898120E3280F03C0898127E365
:1012A000280F8B819C81FC0120838A818F70898328
:1012B0008B819C81019629812A3018F42981205D37
:1012C00002C02981295CFC0120832496E2E00C9471
:1012D0008B38A3E0B0E0EFE6F9E00C946F389A8326
:1012E00089836B8389819A816B810E94DD398FE3C9
:1012F00090E0FC018081882F90E082709927892BF3
:10130000B1F72396E2E00C948B38A2E0B0E0EBE872
:10131000F9E00C946F389A83898389819A810E94BD
:10132000D5392296E2E00C948B38A3E0B0E0EBE9EB
:10133000F9E00C946F389A8389836B830EC089819E
:101340009A819C012F5F3F4F3A832983DEDF60DE65
:101350008B81882311F08AE300DD8B819FEF980F4A
:101360009B83882361F72396E2E00C948B38A2E0FC
:10137000B0E0EDEBF9E00C946F389A8389838981B2
:101380009A8166E0D2DF2296E2E00C948B38A7E0E7
:10139000B0E0EDECF9E00C946F389F838E838E8182
:1013A0009F810196FC0180818D3421F48AEF93E0C6
:1013B000DEDF47C08E819F810196FC0180818035F0
:1013C00029F460E18AED93E0B0DF3BC01D828D819E
:1013D0008C838E819F8101969E012C5F3F4F42E05E
:1013E000B90127DE8B838B81823069F48C81882F51
:1013F00090E0382F22278D81882F90E0822B932B2D
:101400009A83898305C08C81882F90E09A83898391
:1014100089819A817ADF8B8382E59FDC89819A8139
:1014200040E364E08CDD82E691E0DADC8B81F0DD84
:1014300086E691E0D5DC8B81882F90E040E262E087
:10144000FEDCF0DC2796E2E00C948B38ABE0B0E0F9
:10145000ECE2FAE00C946F389B878A871B828A85BE
:101460009B8501969E012C5F3F4F43E0B901E1DD72
:101470008B838B81823008F45EC08B81823031F4A3
:101480008C81882F90E09A8389830CC08C81882F6F
:1014900090E0382F22278D81882F90E0822B932B8C
:1014A0009A8389838B81882F90E001979E012C5F1E
:1014B0003F4F820F931FFC01208189819A81622F07
:1014C00008DF89819A810F9741F089819A8140973D
:1014D00021F089819A81419709F4CAD18B81882FA3
:1014E00090E0880F991F01962A853B85820F931FF4
:1014F0009B878A871AC09E012C5F3F4F8A859B85F8
:1015000041E0B90196DD892B09F415C02C81898150
:101510009A8101969A83898389819A81622FD9DE83
:101520008A859B8502969B878A878A859B85FC0195
:101530008081882301F72B96E2E00C948B38A0E0A1
:10154000B0E0E5EAFAE00C946F3880E090E0DDDE90
:10155000813029F481E090E0D8DE843119F080E018
:1015600090E008D084E390E0D0DE80930001E2E0D8
:101570000C948B38A2E0B0E0E0ECFAE00C946F3809
:101580009A83898361E080E090E0A3DE64E181E0FA
:1015900090E09FDE72D86CD160E080E690E099DE4A
:1015A00060E081E690E095DE60E083E390E091DE2C
:1015B00062E084E390E08DDE89819A810196FC01EE
:1015C0008081883719F080E090E038D02296E2E000
:1015D0000C948B38A2E0B0E0E0EFFAE00C946F38A6
:1015E0009A83898389819A81019641E060E071E064
:1015F00020DD80910001882F90E081709927892B50
:1016000051F085E290E025E230E0F901208122608E
:10161000FC01208309C085E290E025E230E0F90179
:1016200020812D7FFC01208380910001682F84E3BD
:1016300090E04FDE2296E2E00C948B38A3E0B0E01D
:10164000E4E2FBE00C946F389B838A8319828A81E1
:101650009B81892B49F08A819B81019641E09E0103
:101660002F5F3F4FB901E5DC89818F3F09F4FFCF40
:101670008981882321F061E083E390E02ADE8EE611
:1016800090E0FC011082F89480E090E08870992747
:10169000892B11F088E201C088E090E09770892BD7
:1016A000982F88E10FB6F894A895809360000FBE3C
:1016B00090936000FFCFA2E0B0E0E1E6FBE00C9485
:1016C0006F389A8389838AE691E08ADB8BE191E027
:1016D000FC018081882F90E081709927892B21F46B
:1016E00083EA91E07DDB03C08EEA91E079DB8091B3
:1016F0002B01813021F489EB91E072DB03C08BEC8C
:1017000091E06EDB8FDB2296E2E00C948B38A9E04F
:10171000B0E0EDE8FBE00C946F389F838E8379870F
:1017200068871A82198265C088858B838B81813195
:1017300010F080E18B8389819A8140E364E0FFDBD4
:101740008AE30BDB80E209DB1C8216C08C81882FC8
:1017500090E02E813F81820F931FFC01808158DC35
:101760008C81882F90E081709927892B11F080E27D
:10177000F4DA8C818F5F8C839C818B81981730F396
:1017800080E2EBDA1D8226C08D81882F90E02E81C9
:101790003F81820F931FFC0180818032B0F08D81E8
:1017A000882F90E02E813F81820F931FFC01808162
:1017B0008F3758F48D81882F90E02E813F81820FE2
:1017C000931FFC018081C9DA02C08EE2C6DA8D81E6
:1017D0008F5F8D839D818B819817B0F28E819F8161
:1017E00040969F838E831EDB89819A8140969A83DF
:1017F000898329813A81888599852817390708F4D2
:1018000093CF10DB2996E2E00C948B38A7E0B0E090
:10181000ECE0FCE00C946F389F838E831D828D81F9
:101820008C839E012C5F3F4F8E819F8142E0B901E6
:1018300000DC8B838B81823069F48C81882F90E06F
:10184000382F22278D81882F90E0822B932B9A832B
:10185000898305C08C81882F90E09A838983898150
:101860009A8153DD8B838B812796E2E00C948B3831
:10187000A9E0B0E0EEE3FCE00C946F388CE191E07D
:10188000C5DF882F90E0A0E0B0E089839A83AB8326
:10189000BC838FE191E0BADF882F90E09E838D8337
:1018A00082E291E0B3DF8F8389819A81AB81BC8131
:1018B000AC01332722278D819E81982F8827CC0168
:1018C000A0E0B0E0280F391F4A1F5B1F8F81882FCF
:1018D00090E0A0E0B0E0280F391F4A1F5B1FDA013B
:1018E000C901880F991FAA1FBB1F820F931FA41F36
:1018F000B51F880F991FAA1FBB1F880F991FAA1F0A
:10190000BB1F820F931FA41FB51F880F991FAA1F0B
:10191000BB1FCD01AA27BB27998788878885998512
:10192000853F914020F082E080932B0103C081E04D
:1019300080932B012996E2E00C948B38A2E0B0E072
:10194000E4EAFCE00C946F389A83898389819A8158
:10195000FC01128289819A81FC01228189819A810C
:10196000FC01208389819A81FC01208189819A81EF
:10197000FC0121832296E2E00C948B38A4E0B0E0D5
:10198000E4ECFCE00C946F389B838A836C838FE5D6
:1019900090E0FC0180818983F8948A819B81FC011D
:1019A0008281882334F48FE590E02981FC01208333
:1019B0002DC08A819B81FC01828121E0280F8A81D0
:1019C0009B81FC0122838A819B81FC01208131E083
:1019D000320F8A819B81FC013083822F90E04C8101
:1019E0002A813B81820F931F0396FC0140838A81E9
:1019F0009B81FC018081803821F48A819B81FC01DC
:101A000010828FE590E02981FC0120832496E2E09A
:101A10000C948B38A4E0B0E0E0E1FDE00C946F386A
:101A20009C838B838FE590E0FC0180818983F8940F
:101A30008B819C81FC018281882339F48FE590E0C1
:101A40002981FC01208380E02EC08B819C81FC01D8
:101A500082812FEF280F8B819C81FC0122838B8157
:101A60009C81FC01218131E0320F8B819C81FC0142
:101A70003183822F90E02B813C81820F931F03964C
:101A8000FC0180818A838B819C81FC01818180386B
:101A900021F48B819C81FC0111828FE590E02981EA
:101AA000FC0120838A812496E2E00C948B38A3E029
:101AB000B0E0EDE5FDE00C946F389B838A83809164
:101AC000D102882F90E080749927892B09F41FC0D8
:101AD00084E543D919820DC08981882F90E02A813D
:101AE0003B81820F931FFC01808192DA89818F5F95
:101AF00089838981853080F38091D102882F90E09D
:101B000080729927892B11F08AEF82DA8BD923967C
:101B1000E2E00C948B38A0E0B0E0E1E9FDE00C9449
:101B20006F3885E390E0F1DB8093CD0286E390E0AF
:101B3000ECDB8093CE02E2E00C948B38A9E0B0E0BD
:101B4000E4EAFDE00C946F38998788878885998549
:101B500001969E012E5F3F4F45E0B9016ADA898305
:101B600089818430D0F48A818130A9F489818330DD
:101B700061F48B81682F85E390E0ABDB8C81682F6B
:101B800086E390E0A6DBC7DF08C08091CD0240DA93
:101B90008091CE023DDA46D900002996E2E00C940D
:101BA0008B38A1E0B0E0E7EDFDE00C946F3889835D
:101BB0008BE290E02BE230E0F90120812860FC010B
:101BC00020838981882359F080912E01882F90E00D
:101BD00082959295907F9827807F98270AC0809160
:101BE0002C01882F90E082959295907F9827807F96
:101BF000982782D88BE290E02BE230E0F901208137
:101C0000277FFC0120838981882359F080912F014F
:101C1000882F90E082959295907F9827807F9827D3
:101C20000AC080912D01882F90E082959295907F37
:101C30009827807F982760D82196E2E00C948B3813
:101C4000EF920F93CF93DF93CDB7DEB72A970FB6FE
:101C5000F894DEBF0FBECDBF9D838C836E834F8310
:101C600028870987EA868F81882F90E00296982F2F
:101C70008985989F802D11248B838B81282F880F35
:101C8000330B8091CF029091D0028217930720F4FA
:101C90008DED91E0A5D8ACC02091CF023091D0025B
:101CA0008B81082E000C990BA901481B590BCA0106
:101CB0009093D0028093CF0285E290E025E230E05D
:101CC000F90120812260FC0120838091C7028823D2
:101CD00011F40E9427050E94F203198205C080E0DA
:101CE00060DF89818F5F89838981282F880F330B7B
:101CF0008E81882F90E0281739078CF38E818823F6
:101D000011F081E04EDF1A8224C087E089831BC076
:101D10008A81082E000C990B2C813D81820F931F24
:101D2000FC018081482F8981282F880F330B81E0A7
:101D300090E002C0880F991F2A95E2F7842331DFD3
:101D40008981815089838981882314F78A818F5FF3
:101D50008A838A81282F880F330B8F81882F90E008
:101D60002817390794F287E089831BC08A81082EDF
:101D7000000C990B2C813D81820F931FFC01808107
:101D8000482F8981282F880F330B81E090E002C013
:101D9000880F991F2A95E2F7842303DF89818150F8
:101DA00089838981282F880F330B8885882F90E0BD
:101DB00082179307DCF28A850E94980689858150F4
:101DC00089878985882309F088CF8091D10288236B
:101DD00019F00E941B0403C086E30E94F70485E209
:101DE00090E025E230E0F90120812D7FFC01208385
:101DF0002A960FB6F894DEBF0FBECDBFDF91CF910C
:101E00000F91EF900895A7E0B0E0E9E0FFE00C94B7
:101E10006F388A837C836B835E834D832F838D81B0
:101E20009E81FC01808189838A818823F1F08981E8
:101E3000882F90E02B813C81820F931F2981222FD4
:101E400030E04B815C81240F351FF9012081622F26
:101E50002F81422F50E021E030E002C0220F331FDB
:101E60004A95E2F7262BFC0120838F819FEF980F84
:101E70009F838823B1F489818F5F898389818C3026
:101E800028F48D819E812981FC01208387E08F8346
:101E90008981882F90E02B813C81820F931FFC0168
:101EA00010828F81882F90E02796E2E00C948B3887
:101EB000EF920F931F93CF93DF93CDB7DEB7669763
:101EC0000FB6F894DEBF0FBECDBF9B8B8A8B6C8B99
:101ED0004D8B2E8B8C89882F90E02A893B89890134
:101EE000080F191F8A899B894C89BC018D8966D38B
:101EF000F80180838C898F5F8C8B198A898989830B
:101F000087E08B838B818A838989882F90E09E016B
:101F10002B5F3F4F820F931FFC01108252C06B81D9
:101F20008981882F90E02A893B89820F931FFC01C9
:101F30008081482F8A81282F880F330B81E090E021
:101F400002C0880F991F2A95E2F78423382FAE012B
:101F50004F5E5F4FCE010596262FBC01832F53DFC6
:101F60008B838A81982F91509A83882351F56B81B6
:101F70008981882F90E02A893B89820F931FFC0179
:101F80008081082E82958025082E8695869580254D
:101F90008C838C81882F90E0019695958795817030
:101FA0009927382FAE014F5E5F4FCE010596262F41
:101FB000BC01832F28DF8B8387E08A8389818F5F31
:101FC000898399818C89981708F4A9CF8B81982FE0
:101FD00091509B83882329F489898F5F898B87E0BF
:101FE0008B8389E180932D0180912D0180932C01B9
:101FF00085E280932F0180912F0180932E012B8108
:102000003989CE0105960F2EFAE0EF2EF02D0E89BC
:10201000432F6CE015DE66960FB6F894DEBF0FBE58
:10202000CDBFDF91CF911F910F91EF900895A1E166
:10203000B0E0EDE1F0E10C946F389F878E87688BFC
:10204000498B8E859F8501969E012E5F3F4F4BE009
:10205000B9010E9419088983CE010296298948890D
:10206000698126DF6196E2E00C948B38A2E0B0E053
:10207000ECE3F0E10C946F389A83898389819A812B
:1020800043E066E0D4DF2296E2E00C948B38EF92D6
:102090000F93CF93DF93CDB7DEB767970FB6F89462
:1020A000DEBF0FBECDBF9F8B8E8B8E899F89019621
:1020B0009E012A5F3F4F40E1B9010E9419088E81BD
:1020C00089838F8182958F708A838F818F708B83B4
:1020D000888582958F708C8388858F708D838985A4
:1020E00080932C018A8580932D018B8580932E010E
:1020F0008C8580932F01CE0106960796EC800D818A
:102100002B814A8169819CDD67960FB6F894DEBF0A
:102110000FBECDBFDF91CF910F91EF900895EF9259
:102120000F931F93CF93DF93CDB7DEB76F970FB6A3
:10213000F894DEBF0FBECDBF9F8F8E8F8E8D9F8D8B
:1021400001969E012E5E3F4F4BE0B9010E94190897
:102150008C838C81893009F089C089E180932D01BD
:1021600080912D0180932C0180912C0180932E0170
:1021700082E380932F018C81082F10E0CE014296DC
:102180006C813ED2282FCE014296800F911FFC0118
:1021900020838C818F5F8C83198A8989898387E06A
:1021A0008B838B818A838989882F90E09E012B5FA6
:1021B0003F4F820F931FFC0110823CC06B818981CD
:1021C000882F90E09E012E5E3F4F820F931FFC01EF
:1021D0008081482F8A81082E000C990B27E030E07F
:1021E000281B390B81E090E002C0880F991F2A95C7
:1021F000E2F78423382FAE014F5E5F4FCE01059684
:10220000262FBC01832FFFDD8B838A81982F91506D
:102210009A83882379F42B81AE014F5E5F4FCE0104
:102220000596BC0181E0EFDD8B8387E08A8389819D
:102230008F5F898399818C81981708F4BFCF8B8138
:10224000982F91509B83882329F489898F5F898BEC
:1022500087E08B832B813989CE0105960F2EFAE01A
:10226000EF2EF02D03E0432F6CE0EADC6F960FB603
:10227000F894DEBF0FBECDBFDF91CF911F910F91BC
:10228000EF900895EF920F931F93CF93DF93CDB705
:10229000DEB76F970FB6F894DEBF0FBECDBF9F8F2E
:1022A0008E8F8E8D9F8D01969E012E5E3F4F4BE04F
:1022B000B9010E9419088C8385E380932C0186E183
:1022C00080932D0186E180932E0185E380932F0179
:1022D0008C81082F10E0CE0142966C81B3D1282F5B
:1022E000CE014296800F911FFC0120838C818F5F6D
:1022F0008C83198A8989898387E08B838B818A8380
:102300008989882F90E09E012B5F3F4F820F931F9A
:10231000FC0110826EC01A8226C06B818981882FD1
:1023200090E09E012E5E3F4F820F931FFC01808143
:10233000482F8A81282F880F330B81E090E002C05C
:10234000880F991F2A95E2F78423382FAE014F5E3C
:102350005F4FCE010596262FBC01832F54DD8B8362
:102360008A818F5F8A838A818430BCF22B81AE019F
:102370004F5E5F4FCE010596BC0181E044DD8B834B
:1023800084E08A8326C06B818981882F90E09E013A
:102390002E5E3F4F820F931FFC018081482F8A8160
:1023A000282F880F330B81E090E002C0880F991F1F
:1023B0002A95E2F78423382FAE014F5E5F4FCE019E
:1023C0000596262FBC01832F1EDD8B838A818F5FAC
:1023D0008A838A818830BCF22B81AE014F5E5F4FC9
:1023E000CE010596BC0181E00EDD8B8389818F5F74
:1023F000898399818C81981708F48DCF2B81398935
:10240000CE0105960F2EFAE0EF2EF02D03E0432FBC
:102410006AE016DC6F960FB6F894DEBF0FBECDBF34
:10242000DF91CF911F910F91EF900895EF920F934D
:10243000CF93DF9300D000D000D0CDB7DEB79E831E
:102440008D838D819E81019643E09E012F5F3F4FDA
:10245000B9010E9419088AE680932C0184E28093D6
:102460002D0181E280932E018AE680932F0180E87E
:102470008C830F2EFFE0EF2EF02D03E026E043E0EB
:1024800060E0CE010196DCDB26960FB6F894DEBF45
:102490000FBECDBFDF91CF910F91EF900895A2E0D5
:1024A000B0E0E5E5F2E10C946F388AE290E02AE2D0
:1024B00030E0F90120812860FC0120838BE290E06C
:1024C0002BE230E0F9012081277FFC0120838AE2A2
:1024D00090E02AE230E0F90120812B7FFC0120838B
:1024E00089E690E029E630E0F90120812160FC01D5
:1024F000208382EC91E09093D0028093CF0281E020
:1025000090E09A83898311C029813A8149E4429FEE
:10251000C001439F900D11248E599E4FFC011082E3
:1025200089819A8101969A83898389819A81029708
:102530005CF31092C7022296E2E00C948B38A0E084
:10254000B0E0E5EAF2E10C946F388091D102882383
:1025500029F00E9427050E941B0402C00E94180552
:10256000E2E00C948B38A2E0B0E0E9EBF2E10C94ED
:102570006F389A83898389819A810196FC018081D1
:10258000882379F48091D1020E9408088091CF02BB
:102590009091D00240E265E00E941F070E9412075E
:1025A00009C089819A81019641E061ED72E00E9443
:1025B0001908C5DF2296E2E00C948B38A4E0B0E065
:1025C000E4EEF2E10C946F3889837B836A834C8359
:1025D0000FC08C8181508C838C81882F90E02A8160
:1025E0003B81820F931FFC0180819981890F898330
:1025F0008C81882371F789812496E2E00C948B38D2
:10260000A4E0B0E0E6E0F3E10C946F389B838A83AA
:102610006C8319820FC08C8181508C838C81882FB0
:1026200090E02A813B81820F931FFC018081998178
:10263000892789838C81882371F789812496E2E038
:102640000C948B38A7E0B0E0E8E2F3E10C946F382B
:102650009E838D836F83198285E08A831B822EC0BF
:102660008F8181508F838F81882F90E02D813E81D3
:10267000820F931FFC0180818C838C8182958F70E7
:102680009981892789838C8182958F709A81890F9E
:102690008A838091F701882319F08B81882359F070
:1026A0008C81982F9F708981892789838C818F7075
:1026B0009A81890F8A838B818F5F8B838F81882397
:1026C00079F69A818981890F8A838A81882F90E09F
:1026D00082959295907F9827807F9827982F89815F
:1026E000892B2796E2E00C948B38ADE0B0E0EBE765
:1026F000F3E10C946F389A8789876B875D874C87E5
:1027000019821A821B8287E08C8387E08D83109266
:10271000F70189859A85FC018181282F220F220FDC
:10272000220F89859A85FC018381F22FF81B8F2F58
:10273000895F8E8310923001D0C08B81882F90E00A
:1027400029853A85820F931F0496FC018081882F8A
:1027500090E02C81022E000C330B02C095958795DA
:102760002A95E2F78170992721E0892B09F420E06E
:102770002F838C81982F91509C83882329F48B81FF
:102780008F5F8B8387E08C838B858B34E9F48D811D
:102790008330D1F48091F701882371F48F818823ED
:1027A00011F480E0C4C09091F70181E0992309F011
:1027B00080E08093F70191C09091F70181E0992327
:1027C00009F080E08093F7018D818F3F09F03BC0D5
:1027D0008B85863401F58981882F90E0805D9E4F3E
:1027E000FC018081082E82958025082E869586958D
:1027F000802588878885882F90E001969595879514
:102800009C01217033278F81882F90E0281739078A
:1028100011F080E08CC08B85853419F08B858B346A
:1028200029F48F81882311F480E081C089818F5F32
:1028300089838981882F90E0805D9E4FFC01108202
:1028400087E08D834AC08F81882309F443C08B853C
:102850008634D9F48981882F90E02981222F30E0B5
:10286000205D3E4FF9012081622F2D81422F220FE2
:10287000550B21E030E002C0220F331F4A95E2F7EA
:10288000262B805D9E4FFC0120838B85853419F0BB
:102890008B858B34F9F48981882F90E02981222F50
:1028A00030E0205D3E4FF9012081622F2D81022E04
:1028B000000C330B47E050E0421B530B21E030E0AB
:1028C00002C0220F331F4A95E2F7262B805D9E4FF0
:1028D000FC0120838D8181508D838A8191E0980F46
:1028E0009A839E81891708F428CF9A818E8189174F
:1028F00010F080E01CC08B85853439F48D818F3FCA
:1029000021F489818F5F898307C08091F701882333
:1029100019F089818F5F89838C859D852981FC01D0
:1029200020838981882311F480E001C081E02D9605
:10293000E2E00C948B38A4E0B0E0E1EAF4E10C941E
:102940006F389A8389837C836B8389819A81FC01A8
:102950008081893631F089819A81FC0180818337B9
:1029600039F58091C4028170882381F08091C4027E
:102970008270882359F48091C40282608093C402DB
:102980008091C40284608093C40211C08091C4020B
:102990008170882331F08091C4028B7F8093C402C0
:1029A00006C08091C4028D7F8093C4020BC00AC010
:1029B0008091C4028170882329F48091C4028460CC
:1029C0008093C4022496E2E00C948B38A9E0B0E036
:1029D000ECEEF4E10C946F389B838A837D836C83E7
:1029E0005F834E833987288780912B01813009F0DE
:1029F00055C08C819D81FC018081882309F04EC0E7
:102A00008A819B81FC0180818D3009F047C0198249
:102A100017C08981882F90E02E813F81820F931FFC
:102A20002981222F30E04A815B81240F351F2C5FE2
:102A30003F4FF9012081FC01208389818F5F8983C9
:102A40008A819B81FC0191818981891710F38A8198
:102A50009B81FC0183818730B9F08981882F90E0C8
:102A60002E813F81820F931F2981222F30E04A81DE
:102A70005B81240F351F2C5F3F4FF9012081FC0142
:102A8000208389818F5F8983888599852981FC01CD
:102A900020838C819D812FE6FC0120832996E2E032
:102AA0000C948B38A9E0B0E0E8E5F5E10C946B38C4
:102AB000188619868091330290913402892B09F48B
:102AC00054C08091D102882314F584E30E94B0049D
:102AD00089838981805889838981803410F419829F
:102AE00012C08981803C18F08FE089830CC08981F5
:102AF000882F90E0805591099595879595958795B4
:102B000095958795898389818F590E94AD0680911B
:102B1000D102882F90E088709927892B11F182E7E4
:102B20000E94AD068091D102882F90E08071992794
:102B3000892B31F080913102909132020E94AD06D2
:102B400086E60E94AD068091D102882F90E08071C8
:102B50009927892B31F080913302909134020E94A1
:102B6000AD0610923402109233028091F601882350
:102B700009F4F6C385E290E025E230E0F901208116
:102B80002260FC0120838091F501282F30E049E488
:102B9000429FC001439F900D11248E599E4F9E83EA
:102BA0008D839E01275F3F4FBE01685F7F4F8D8100
:102BB0009E8140E351E00E94CC239E01275F3F4F5E
:102BC000BE01685F7F4F8D819E8140E351E00E948E
:102BD00061239E01275F3F4FBE01685F7F4F8D815C
:102BE0009E8140E351E0F2DE8885882309F041C0F0
:102BF0008D819E81FC0180818B30D9F51A8215C0B0
:102C00008A81882F90E02A81222F30E04D815E81D9
:102C1000240F351F2C5F3F4FF9012081805D9E4FAF
:102C2000FC0120838A818F5F8A838D819E81FC01D4
:102C300091818A81891720F38D819E81FC01838196
:102C40008730A9F08A81882F90E02A81222F30E0F6
:102C50004D815E81240F351F2C5F3F4FF90120818C
:102C6000805D9E4FFC0120838A818F5F8A838A81E9
:102C700089878D819E81FC018081833009F0DEC0CF
:102C80008885882309F05CC09E01275F3F4F8D81B6
:102C90009E81A90166E429DD882309F451C0898554
:102CA000815089878985482F60E371E086E086DC62
:102CB0008F838985882F90E0805D9E4FFC019081F5
:102CC0008F81981731F48985843018F086E48887DD
:102CD00037C08F81882F90E09C012F5F3F4F8985FF
:102CE000882F90E0805D9E4FFC018081882F90E0CE
:102CF0002817390771F48985843058F086E488876D
:102D00008985882F90E0805D9E4F2F81FC01208374
:102D100017C08985482F60E371E08CE04FDC282FD5
:102D20008985882F90E0805D9E4FFC018081281767
:102D300031F48985843018F084E5888701C01886CD
:102D400080912B01823021F58885882309F59E0129
:102D5000275F3F4F8D819E81A90165E4C6DC8823F2
:102D6000B9F08985815089878985893089F4898579
:102D7000682F80E391E044DC282F8985882F90E03C
:102D8000805D9E4FFC018081281711F485E48887BF
:102D90009E01275F3F4FBE01685F7F4F8D819E81FF
:102DA00040E351E00E9417258885882309F046C03A
:102DB0008D819E81FC0120818D819E81FC0185ADEC
:102DC00096AD482F8091310290913202382F8D813B
:102DD0009E81CB96632F86D3282F8D819E81622F73
:102DE0000E945B229E01275F3F4F8D819E81A9013A
:102DF0006BE47BDC8823E1F08985815089878985B4
:102E0000682F80E391E01EDC482F8985282F30E071
:102E10008091F701882F90E07901E81AF90AC7013B
:102E2000805D9E4FFC018081481711F48BE48887F8
:102E30008885882319F48D819E81F9D3888588231C
:102E400009F44FC18091D102882F90E081709927B9
:102E5000892B09F446C18091C4028E7F8093C402FD
:102E60008091C4028B7F8093C4028091D102882F0D
:102E700090E082709927892B09F07EC09091F8012B
:102E80008985981709F04BC01092F8011DC08091F8
:102E9000F801882F90E087509E4FFC01208180919F
:102EA000F801882F90E0805D9E4FFC0180812817FB
:102EB00031F08091C4028D7F8093C4020AC080915A
:102EC000F8018F5F8093F8019091F8018985981738
:102ED000F0F29091F8018985981709F52091C902BF
:102EE0003091CA024091CB025091CC0280912B02CA
:102EF00090912C02A0912D02B0912E0279018A01AD
:102F0000E81AF90A0A0B1B0BD801C7018697A1051D
:102F1000B10528F48091C40281608093C4021092AC
:102F2000F80115C08091F801882F90E02091F801F8
:102F3000222F30E0205D3E4FF901208187509E4FC7
:102F4000FC0120838091F8018F5F8093F8019091BC
:102F5000F8018985981730F38091C9029091CA02CF
:102F6000A091CB02B091CC0280932B0290932C02C3
:102F7000A0932D02B0932E028885843589F5809127
:102F8000D102882F90E080749927892B49F5898593
:102F9000853030F1809132018B34E9F0809132013B
:102FA0008936C9F0809132018335A9F080913201D0
:102FB000843589F0809132018D3769F0809132013A
:102FC0008E3749F080913301882F90E080779927E0
:102FD0008037910529F48091C40281608093C402F6
:102FE0002D813E81CE010896B901A5DC8091C402F5
:102FF0008470882309F475C088850E94AD068D8190
:103000009E81FC0180818D3019F48DE60E94AD0611
:103010008091F701882319F08985815089871B8267
:103020000CC08B81882F90E0805D9E4FFC018081D9
:103030000E9408088B818F5F8B8389859B819817FD
:1030400080F38091F701882379F08985882F90E0BB
:10305000805D9E4FFC018081882F90E08F709927C2
:1030600040E361E00E949F078091D102882F90E0A9
:1030700080729927892B29F084E30E94B0040E9472
:1030800008088D819E81FC018081883041F58BE3A9
:103090000E94AD068D819E818D5B9F4FFC018081DA
:1030A000918182959295907F9827807F982740E222
:1030B00065E00E941F078AE30E94AD068D819E8114
:1030C0008B5B9F4FFC018081918182959295907FCF
:1030D0009827807F982740E265E00E941F070E94A2
:1030E00012078091D102882F90E084709927892B54
:1030F00009F411C180E70E94AD068D819E81FC011B
:103100008081882F90E040E262E00E941F078D815D
:103110009E81FC0187A990AD82959295907F98271A
:10312000807F982740E265E00E941F078D819E8185
:10313000FC0181AD92AD82959295907F9827807F1A
:10314000982740E265E00E941F078D819E81FC0167
:1031500083AD94AD82959295907F9827807F982734
:1031600040E265E00E941F078D819E81FC0185ADD4
:1031700096AD82959295907F9827807F982740E220
:1031800065E00E941F078D819E81CF96FC018081A2
:10319000918182959295907F9827807F982740E231
:1031A00065E00E941F078D819E818F5B9F4FFC0110
:1031B0008081918182959295907F9827807F982732
:1031C00040E265E00E941F078D819E81FC0186A977
:1031D000882F90E040E264E00E941F078D819E816D
:1031E000FC018281882F90E040E263E00E941F078B
:1031F0008D819E81FC018181882F90E040E263E017
:103200000E941F078D819E81FC018381882F90E0A1
:1032100027E030E07901E81AF90AC70140E262E0EC
:103220000E941F0780E20E94AD068D819E818D5B0A
:103230009F4FFC018081918182959295907F982784
:10324000807F982740E265E00E941F0780E20E948D
:10325000AD068D819E818B5B9F4FFC0180819181AA
:1032600082959295907F9827807F982740E265E02D
:103270000E941F0780E20E94AD068D819E81895BBE
:103280009F4FFC018081918182959295907F982734
:10329000807F982740E265E00E941F0780E20E943D
:1032A000AD068091D102882F90E080729927892BFA
:1032B00041F084E30E94B0040E94080880E20E946A
:1032C000AD068D819E81FC018381873051F08D8117
:1032D0009E81FC01818121E0280F8D819E81FC016E
:1032E00021831C820FC08C81882F90E02D813E812C
:1032F000820F931F0496FC0180810E9408088C8134
:103300008F5F8C838D819E81FC0191818C818917D7
:1033100050F30E9412078D819E81FC0110828D81E5
:103320009E81FC0116AA1092300210922F02809109
:10333000F60181508093F6018091F5018F5F8093B3
:10334000F5018091F501823011F41092F50185E2CA
:1033500090E025E230E0F90120812D7FFC012083FF
:103360002996E6E00C948738A0E0B0E0EAEBF9E1BA
:103370000C946F381092300210922F028FE690E07A
:10338000FC0110828091F401282F30E049E4429F33
:10339000C001439F900D11248E599E4FFC01108255
:1033A0008091C4028D7F8093C40288E890E0FC0184
:1033B00011821082E2E00C948B381F920F920090E1
:1033C0005F000F9211242F933F934F935F936F935E
:1033D0007F938F939F93AF93BF93EF93FF93CF937D
:1033E000DF9300D0CDB7DEB78FE690E0FC0110820E
:1033F00088E890E0FC01808191819A83898388E844
:1034000090E020E23EE4FC013183208384E890E0F8
:1034100029813A81FC01318320838091D102882F58
:1034200090E088709927892B19F08EE20E94AD06F2
:103430008091F401282F30E049E4429FC001439F6E
:10344000900D11248E599E4FFC018081833080F0B5
:103450008091F401282F30E049E4429FC001439F4E
:10346000900D11248D599E4FFC018081823010F403
:103470007BDF22C08091F601813071F48091D1020E
:10348000882F90E084709927892B21F084EE91E0B9
:103490000E94F00669DF10C08091F6018F5F809373
:1034A000F6018091F4018F5F8093F4018091F40123
:1034B000823011F41092F4010F900F90DF91CF91B0
:1034C000FF91EF91BF91AF919F918F917F916F91FC
:1034D0005F914F913F912F910F9000925F000F905D
:1034E0001F901895ACE0B0E0E8E7FAE10C946F3873
:1034F000998788876A874B872C878CE089838885A2
:103500009985FC01228133818B85882F90E0A90168
:10351000481B590BCA019B838A8388859985FC01C6
:10352000208131818A85882F90E0A901481B590BA1
:10353000CA019D838C8388859985FC012281338112
:1035400088859985FC0180819181820F931F2B854D
:10355000422F50E02A85222F30E0240F351F821B96
:10356000930B9F838E838981282F30E08A819B81F2
:1035700082179307B4F58981882F90E0222733279B
:10358000281B390B8A819B812817390754F58981BB
:10359000282F30E08C819D818217930714F5898153
:1035A000882F90E022273327281B390B8C819D819F
:1035B00028173907B4F48981282F30E08E819F8144
:1035C0008217930774F48981882F90E0222733278C
:1035D000281B390B8E819F812817390714F481E04D
:1035E00001C080E02C96E2E00C948B38A2E0B0E0C1
:1035F000ECEFFAE10C946F3889836A838981853214
:1036000080F089818C3368F48A818A3050F08A8115
:10361000873238F499818A81891718F481E090E023
:1036200002C080E090E02296E2E00C948B38A2E0A9
:10363000B0E0EDE1FBE10C946F389A8389838981D6
:103640009A81FC01238131E0320F89819A81FC014A
:103650003383273071F489819A81FC011382898137
:103660009A81FC0181812FEF280F89819A81FC01C9
:1036700021832296E2E00C948B38A9E0B0E0E3E4E9
:10368000FBE10C946F389C838B837E836D8358871A
:103690004F8329878B819C81FC0186A9883008F0A3
:1036A00083C08D819E81FC012081318180912F0218
:1036B000909130028217930748F48D819E81FC011E
:1036C000808191819093300280932F028F81988521
:1036D000FC012081318180912F029091300282176C
:1036E000930748F48F819885FC01808191819093A4
:1036F000300280932F028B819C81FC0186A9873048
:1037000009F052C080912F0290913002892B09F468
:103710004BC01A82198289858823E9F08B819C81AC
:103720008D5B9F4FFC012081318180912F02909110
:103730003002A901481B590BCA019C0136952795F7
:103740003695279580912F0290913002820F931F1A
:103750009A8389831CC08B819C818B5B9F4FFC016A
:103760002081318180912F0290913002A901481B64
:10377000590BCA019C01369527953695279580915E
:103780002F0290913002820F931F9A83898388E8D9
:1037900090E029813A8122953295307F3227207F2F
:1037A0003227FC01318320832996E2E00C948B3888
:1037B0001F920F9200905F000F9211242F933F935E
:1037C0004F935F936F937F938F939F93AF93BF9329
:1037D000EF93FF93CF93DF9300D000D0CDB7DEB748
:1037E0008091D202882321F082E08093D20273C5B7
:1037F00084E890E0FC0180819181929582958F70A0
:1038000089279F7089279A8389838091F401282FC3
:1038100030E049E4429FC001439F900D11248E592E
:103820009E4F9C838B8389E290E0FC018081882FEE
:1038300090E084709927892B09F0CCC089819A8106
:1038400090933202809331028B819C81FC018081B4
:103850008D3009F0BEC08B819C81895B9F4FFC013C
:10386000808191819C0136952795809131029091BC
:10387000320282179307D0F08B819C81895B9F4F26
:10388000FC01808191819C01220F331F8B819C81DF
:10389000895B9F4FFC0180819181280F391F8091A6
:1038A0003102909132022817390730F48B819C81C4
:1038B00022E0FC0120830FC58B819C81895B9F4F97
:1038C000FC01208131818091310290913202280FD8
:1038D000391F8B819C81FC0147A950AD8B819C8154
:1038E000FC0183AD94AD840F951F96958795821743
:1038F000930708F045C08091310290913202282F41
:103900008B819C81FC0183AD94AD622F1AD5282F49
:1039100030E08B819C81FC0134AF23AF8B819C8193
:10392000895B9F4FFC012081318180913102909110
:1039300032020A9782179307C8F48B819C81895BB6
:103940009F4FFC01208131818091310290913202A0
:103950000A962817390750F4809135029091360263
:103960000196909336028093350226C080913502ED
:1039700090913602029690933602809335021CC0D5
:103980008091310290913202282F8B819C81FC0121
:1039900087A990AD622FD5D4282F30E08B819C81F0
:1039A000FC0130AF27AB8091350290913602019631
:1039B00090933602809335028091350290913602C1
:1039C00081709927892B29F08B819C8161E073D5C7
:1039D00082C481C4809131029091320229813A815E
:1039E000A901481B590BCA019093340280933302FA
:1039F00084E890E0FC011182108286E390E022E0EE
:103A0000FC0120838B819C81FC0180818D3009F039
:103A1000BFC08B819C81895B9F4FFC01808191811C
:103A20009C0136952795809133029091340282173C
:103A30009307D0F08B819C81895B9F4FFC01808133
:103A400091819C01220F331F8B819C81895B9F4F49
:103A5000FC0180819181280F391F80913302909160
:103A600034022817390730F48B819C8122E0FC0155
:103A700020838EC08B819C81895B9F4FFC012081BC
:103A800031818091330290913402280F391F8B814C
:103A90009C81FC0141AD52AD8B819C81FC0185ADC7
:103AA00096AD840F951F969587958217930708F01A
:103AB00045C08091330290913402282F8B819C81E4
:103AC000FC0185AD96AD622F3CD4282F30E08B8170
:103AD0009C81FC0136AF25AF8B819C81895B9F4F18
:103AE000FC012081318180913302909134020A9748
:103AF00082179307C8F48B819C81895B9F4FFC01DF
:103B00002081318180913302909134020A962817E6
:103B1000390750F4809135029091360201969093C6
:103B200036028093350226C080913502909136028C
:103B3000029690933602809335021CC08091330226
:103B400090913402282F8B819C81FC0181AD92AD34
:103B5000622FF7D3282F30E08B819C81FC0132AF9C
:103B600021AF8091350290913602019690933602F2
:103B700080933502809135029091360281709927A9
:103B8000892B29F08B819C8160E095D4A4C3A3C3C9
:103B90008B819C81FC018081882F90E0823091058F
:103BA00009F47EC18B30910509F404C2892B09F018
:103BB00010C38B819C81FC0110AE17AA8B819C8164
:103BC000FC0112AE11AE8B819C81FC0114AE13AED0
:103BD0008B819C81FC0116AE15AE8B819C81CF96AA
:103BE000FC01118210828B819C818F5B9F4FFC01B5
:103BF0001182108210923602109235028B819C81C4
:103C0000895B9F4FFC01118210828B819C81FC019A
:103C100016AA8B819C81FC0111828B819C8127E0FB
:103C2000FC0123838B819C81FC0114822091310251
:103C3000309132028B819C818D5B9F4FFC013183DF
:103C4000208320913302309134028B819C818B5BE5
:103C50009F4FFC013183208380912B01813051F5EE
:103C60008091310290913202C49720F58091310207
:103C7000909132020A97F0F08091330290913402D1
:103C80008B369340B8F48091330290913402893C92
:103C9000910580F08B819C812BE0FC0120838B813E
:103CA0009C8121E0FC0122838FE690E022E0FC0170
:103CB000208311C3809131029091320285369105A3
:103CC00038F480913302909134028536910508F0E2
:103CD00002C320913102309132028B819C81FC0120
:103CE00030AF27AB20913302309134028B819C811D
:103CF000FC0132AF21AF8B819C8121E0FC0122834A
:103D00008B819C8122E0FC01208380912B018130FA
:103D100009F0C5C080913302909134029C012A5071
:103D2000310980913102909132022817390778F4D5
:103D300080913302909134029C01265F3F4F809125
:103D40003102909132028217930708F441C08091AA
:103D5000330290913402855090489C01220F331F0A
:103D600080913102909132022817390778F48091BE
:103D700033029091340205969C01220F331F8091EB
:103D80003102909132028217930710F18091330231
:103D900090913402969587959C012A503109809123
:103DA0003102909132022817390708F078C08091CB
:103DB000330290913402969587959C01265F3F4F80
:103DC00080913102909132028217930708F067C008
:103DD0008B819C812DE0FC012083809131029091A8
:103DE00032029C01369527958B819C81895B9F4F80
:103DF000FC013183208381E090E090933602809330
:103E000035028B819C81895B9F4FFC018081918170
:103E1000429758F420913102309132028B819C817B
:103E2000895B9F4FFC01318320838B819C81895B5F
:103E30009F4FFC01808191810C9748F08B819C8180
:103E4000895B9F4FFC0180819181CF9728F08B8106
:103E50009C8122E0FC01208388E890E020EA3FE09A
:103E6000FC01318320838FE690E022E0FC01208377
:103E700020913302309134028B819C81FC0136AF5A
:103E800025AF20913102309132028B819C81FC015F
:103E900034AF23AF8B819C8161E00DD3BACD1BC2BF
:103EA0008B819C81FC0120818091330290913402AE
:103EB000482F8091310290913202382F8B819C8162
:103EC000C796632F0FDB8823C1F180913102909157
:103ED0003202282F8B819C81FC0187A990AD622F33
:103EE00030D2282F30E08B819C81FC0130AF27AB92
:103EF0008091330290913402282F8B819C81FC01A8
:103F000081AD92AD622F1DD2282F30E08B819C8134
:103F1000FC0132AF21AF8B819C81895B9F4FFC01FB
:103F2000118210828B819C81FC01828121E0280F0B
:103F30008B819C81FC0122833CC08B819C81FC0194
:103F40008281843088F188E890E020EA3FE0FC013B
:103F5000318320838B819C8123E0FC01208320918D
:103F60003102309132028B819C81FC0134AF23AF4E
:103F700020913302309134028B819C81FC0136AF59
:103F800025AF8B819C81FC0111828B819C8127E074
:103F9000FC0123838B819C81FC0114828FE690E0DD
:103FA00022E0FC01208305C08B819C81FC011082F2
:103FB00000CE91C1809133029091340287359140B7
:103FC00008F006C180913302909134029C012A507E
:103FD0003109809131029091320228173907C8F4D3
:103FE00080913302909134029C01265F3F4F809173
:103FF0003102909132028217930758F48B819C8191
:10400000FC0186A9882329F48B819C81FC01108204
:10401000D0CD8B819C8120E043E352E061E372E0EC
:104020002CDB8B819C81FC0186A9882391F4209153
:104030003102309132028B819C81FC0130AF27AB81
:1040400020913302309134028B819C81FC0132AF8C
:1040500021AF80913302909134028037910508F0AE
:104060004AC08B819C818B5B9F4FFC018081918139
:104070008A31914008F43FC0809131029091320220
:104080009C01245F3F4F809133029091340282174C
:104090009307B8F48B819C8160E00DD220913102AE
:1040A000309132028B819C81FC0134AF23AF20918F
:1040B0003302309134028B819C81FC0136AF25AFF5
:1040C00087C08B819C8161E0F6D1209131023091D3
:1040D00032028B819C81CF96FC0131832083209119
:1040E0003302309134028B819C818F5B9F4FFC01A6
:1040F000318320836DC080913302909134028C39DA
:10410000910520F58B819C818B5B9F4FFC01808109
:10411000918189339140D0F08B819C8160E0CBD13B
:1041200020913102309132028B819C81CF96FC012B
:104130003183208320913302309134028B819C8122
:104140008F5B9F4FFC013183208342C080913302FB
:10415000909134028D35910520F58B819C818B5B8C
:104160009F4FFC018081918188339140D0F48B81F5
:104170009C8160E0A0D120913102309132028B818C
:104180009C81CF96FC0131832083209133023091B2
:1041900034028B819C818F5B9F4FFC013183208394
:1041A00017C08B819C8161E086D1209131023091D2
:1041B00032028B819C81FC0134AF23AF209133020A
:1041C000309134028B819C81FC0136AF25AF83C0D6
:1041D00082C08B819C81FC0120818091330290916F
:1041E0003402482F8091310290913202382F8B8116
:1041F0009C81CB96632F76D9882359F18B819C8142
:1042000061E059D18091310290913202282F8B8147
:104210009C81FC0183AD94AD622F93D0282F30E0B8
:104220008B819C81FC0134AF23AF8091330290914C
:104230003402282F8B819C81FC0185AD96AD622FC5
:1042400080D0282F30E08B819C81FC0136AF25AFD8
:1042500041C08B819C81FC0120818091330290912F
:104260003402482F8091310290913202382F8B8195
:104270009C81C796632F36D9882359F18B819C8105
:1042800060E019D18091310290913202282F8B8108
:104290009C81FC0187A990AD622F53D0282F30E07C
:1042A0008B819C81FC0130AF27AB809133029091D0
:1042B0003402282F8B819C81FC0181AD92AD622F4D
:1042C00040D0282F30E08B819C81FC0132AF21AFA0
:1042D00001C04AD800000F900F900F900F90DF910F
:1042E000CF91FF91EF91BF91AF919F918F917F916E
:1042F0006F915F914F913F912F910F9000925F00CE
:104300000F901F901895A1E0B0E0E9E8F1E20C945D
:104310006F388091F401282F30E049E4429FC001BA
:10432000439F900D11248E599E4FFC01908181E096
:10433000992309F480E0898389812196E2E00C9435
:104340008B38A2E0B0E0E7EAF1E20C946F388983A1
:104350006A838981282F30E08981882F90E0280F97
:10436000391F8981882F90E0280F391F8A81882F73
:1043700090E0820F931F99230CF4039695958795EF
:10438000959587952296E2E00C948B38EF920F93E7
:104390001F93CF93DF93CDB7DEB72A970FB6F8946C
:1043A000DEBF0FBECDBF8A836B835D834C833F83AB
:1043B0002E8319870887EA8619822BC08A8588236D
:1043C00099F08981882F90E02C813D81820F931F85
:1043D0002981222F30E04C815D81240F351FF901A6
:1043E00020812095FC0120838981882F90E02E81F7
:1043F0003F81820F931F2981222F30E04C815D8104
:10440000240F351FF9012081FC01208389818F5FF2
:10441000898399818A81981788F28B818730D1F1BD
:104420008A85882311F18981882F90E02C813D8134
:10443000820F931F2981222F30E04C815D81240F50
:10444000351FF9012081622F60952B81222F30E0EA
:10445000A9014F5F5F4F2FEF30E002C0220F331FE3
:104460004A95E2F72623FC0120838981882F90E07A
:104470002E813F81820F931F2981222F30E04C81B2
:104480005D81240F351FF9012081FC012083898182
:104490008F5F8983888599852981FC0120832A96ED
:1044A0000FB6F894DEBF0FBECDBFDF91CF911F9145
:1044B0000F91EF900895A3E0B0E0E1E6F2E20C94F2
:1044C0006F389A8389836B8389819A81FC0181810A
:1044D000823318F00E94B41960C08B81882359F18F
:1044E00089819A81FC018181882F90E029813A811C
:1044F000F9012181222F30E049815A81240F351F93
:104500002C5F3F4FF9012081622F29813A81F90107
:104510002381422F50E021E030E002C0220F331F00
:104520004A95E2F7262B422F29813A81820F931F69
:104530000496FC01408389819A81FC0123813FEF2D
:10454000320F89819A81FC0133832223E1F489812E
:104550009A8127E0FC01238389819A81FC01818172
:1045600021E0280F89819A81FC01218389819A8128
:10457000FC018181882F90E029813A81820F931F6D
:104580000496FC01108289819A81FC0186A921E0B0
:10459000280F89819A81FC0126AB2396E2E00C94D6
:1045A0008B38A3E0B0E0E7EDF2E20C946F389B8328
:1045B0008A838A819B81FC01208131818A819B8150
:1045C000FC018481882F90E0820F931FFC01808181
:1045D000882F90E02A813B81F9012581222F30E04C
:1045E00002C0959587952A95E2F78170992721E079
:1045F000892B09F420E029838A819B81FC01258194
:104600003FEF320F8A819B81FC013583222379F4AD
:104610008A819B81FC01848121E0280F8A819B8112
:10462000FC0124838A819B8127E0FC012583898109
:104630002396E2E00C948B38A6E0B0E0E2E2F3E2ED
:104640000C946F389C838B836D834E8319821A82FE
:104650002FC08B819C81A5DF882339F18E8188232F
:10466000B1F08D81282F30E08A81882F90E0A90158
:10467000481B590BCA019C012150310981E090E08F
:1046800002C0880F991F2A95E2F7982F0BC08A81E4
:10469000282F30E081E090E002C0880F991F2A9512
:1046A000E2F7982F8981892B89838A818F5F8A839A
:1046B0009A818D81981768F289812696E2E00C94A0
:1046C0008B38EF920F931F93CF93DF93CDB7DEB765
:1046D00028970FB6F894DEBF0FBECDBF9A838983AB
:1046E0007C836B835E834D8338872F8380912B017E
:1046F000813009F045C08B819C81FC018081882339
:1047000009F03EC089819A81FC0186A98831C1F0F7
:1047100089819A81FC0186A98C3191F089819A81E5
:10472000FC0186A9843261F089819A81FC0186A905
:10473000853231F089819A81FC0186A98A3201F59E
:1047400089819A81AC014C5F5F4F89819A81FC011C
:10475000638189819A81FC0171812F8138858D81E6
:104760009E81E12C89019C01872F10DE89819A812D
:1047700028E0FC0120838B819C8123E7FC012083BE
:1047800028960FB6F894DEBF0FBECDBFDF91CF9154
:104790001F910F91EF900895EF920F931F93CF9376
:1047A000DF93CDB7DEB729970FB6F894DEBF0FBE03
:1047B000CDBF9B838A837D836C835F834E833987E0
:1047C000288780912B01813009F025C18C819D8142
:1047D000FC018081882309F01EC18A819B81FC0134
:1047E00080818B3009F017C18A819B81FC0186A9E9
:1047F0008831C9F08A819B81FC0186A98C3199F0AE
:104800008A819B81FC0186A9893369F08A819B8119
:10481000FC0186A9813439F08A819B81FC0186A93B
:10482000893409F0F8C08A819B81FC0185AD96AD81
:104830008D37910508F0EFC08A819B818F5B9F4F78
:10484000FC01808191818D37910508F0E4C08A8157
:104850009B81FC0186A98831E9F48A819B81AC01A6
:104860004C5F5F4F8A819B81FC0163818A819B81C0
:10487000FC017181288539858E819F81EE24E39426
:1048800089019C01872F82DD8A819B8127E0FC01C1
:104890002083BBC08A819B81FC0186A9813439F0C9
:1048A0008A819B81FC0186A9893409F0AEC08A8186
:1048B0009B81FC0181AD92AD8E35910508F4A5C0B8
:1048C000198291C08981882F90E09C012F5F3F4F12
:1048D0008A819B81FC018181882F90E0281739070C
:1048E00009F057C08981882F90E02E813F81820F87
:1048F000931F2981222F30E04A815B81240F351FCD
:104900002C5F3F4FF9012081220FFC0120838A8117
:104910009B81FC018381873009F462C08981882FE3
:1049200090E001962E813F81820F931F2981222FD3
:1049300030E02F5F3F4F4A815B81240F351F2C5F92
:104940003F4FF9012081FC0120838981882F90E06D
:104950002E813F81820F931F2981222F30E04E81CB
:104960005F81240F351FF90160812981222F30E0FA
:104970002F5F3F4F4A815B81240F351F2C5F3F4FD4
:10498000F9012081221F2227221F260FFC012083EC
:1049900027C08981882F90E02E813F81820F931F4D
:1049A0002981222F30E04A815B81240F351F2C5F43
:1049B0003F4FF9012081622F660F2981222F30E0BD
:1049C0002F5F3F4F4A815B81240F351F2C5F3F4F84
:1049D000F9012081221F2227221F260FFC0120839C
:1049E00089818F5F89838A819B81FC019181898183
:1049F000891708F467CF888599852981FC01208370
:104A00008A819B8129E0FC0120838C819D8129E69C
:104A1000FC012083000029960FB6F894DEBF0FBE7C
:104A2000CDBFDF91CF911F910F91EF900895A1E13C
:104A3000B0E0EDE1F5E20C946D389B878A877D87C5
:104A40006C875F874E87398B288B8C859D85FC0111
:104A50008081882309F083C0188687E089878A854A
:104A60009B8504969D838C831B828A859B85FC0194
:104A70008181843031F48A859B85FC01838181307A
:104A800009F06DC0198228C08981882341F4CE01C4
:104A9000049641E067E0D0DD80688A8306C0CE01DD
:104AA000049641E068E0C8DD8A838A81982F929558
:104AB0009F708B81980F8A818F70890F8B8389817A
:104AC000882F90E02E853F85820F931F2A81FC015D
:104AD000208389818F5F898389818430A8F28981CD
:104AE000882F90E02E853F858901080F191FCE0180
:104AF000049641E067E0A0DD880FF801808389819A
:104B0000882F90E02E853F85820F931FFC018081C6
:104B1000982F92959F708B81890F8F708B838981DD
:104B20008F5F8983888999892981FC0120838B8102
:104B300082958F70882341F48E859F85FC0180814A
:104B400082958F708A3031F08C859D8524E7FC0139
:104B5000208305C08C859D8524E7FC012083619618
:104B6000E4E00C948938A5E1B0E0E9EBF5E20C94BF
:104B70006F388D8B8DE390E02DE330E0F9012081DB
:104B80002E7FFC01208384E290E024E230E0F901F2
:104B900020812460FC0120831092370285E290E09E
:104BA00025E230E0F90120812460FC0120838EE1C0
:104BB00090E00E947C0685E290E025E230E0F90179
:104BC00020812B7FFC0120838EE190E00E947C06F7
:104BD00085E290E025E230E0F90120812460FC01CB
:104BE00020838DE290E00E947C0680E30E94F7041F
:104BF00084E690E00E947C068D89882319F08D89D7
:104C0000843008F0A2C0198231C08981882F90E0D9
:104C100085519E4F9C838B838B819C81FC01849169
:104C20008D838D81813408F024C08981882F90E0A4
:104C3000019685519E4F9F838E838E819F81FC01BB
:104C40008491888728858981882F90E085519E4F9F
:104C50009A87898789859A85FC0184918B878B85C2
:104C6000622F0E94D40489818E5F898389818C336D
:104C700060F21A825BC08D89882F90E0AC014150B0
:104C800051098A81882F90E064E1649F9001659FBB
:104C9000300D1124820F931F875E9D4F9D878C8757
:104CA0008C859D85FC0184918E878E85813408F0EA
:104CB00041C08D89882F90E0AC01415051098A8113
:104CC000882F90E0019664E1649F9001659F300D0C
:104CD0001124820F931F875E9D4F988B8F878F853E
:104CE0009889FC018491898B79898D89882F90E03E
:104CF000AC01415051098A81882F90E064E1649FA2
:104D00009001659F300D1124820F931F875E9D4F88
:104D10009B8B8A8B8A899B89FC0184918C8B8C89E3
:104D2000672F0E94D4048A818E5F8A838A818431AE
:104D300008F4A1CF83E30E94F7048D8980933702A2
:104D40000E94380C81E00E9498066596E2E00C947F
:104D50008B38A3E0B0E0EFEAF6E20C946F38809174
:104D60003702882309F45CC089E290E0FC0180816D
:104D7000882F90E084709927892BD9F186E30E94CF
:104D8000F7048BE30E94B0048F778A838A8188239B
:104D900079F185E290E025E230E0F90120812B7F76
:104DA000FC0120838FEF0E943B028EE40E94AD063F
:104DB000809137020E94080819820AC080E00E9490
:104DC0003B028B838B810E94080889818F5F8983D6
:104DD00099818A81981790F385E290E025E230E08E
:104DE000F90120812460FC0120830E94120718C071
:104DF00017C085E30E94B004882F90E081309105B0
:104E000011F0419769F48AE30E94F70486E30E9457
:104E1000F7048DE30E94F70484E30E94F704000086
:104E20002396E2E00C948B38A3E0B0E0EAE1F7E2ED
:104E30000C946F389B838A8319828A819B810196A7
:104E4000FC0180818237F1F48A819B810296FC010A
:104E50008081882349F08A819B8102969E012F5F81
:104E60003F4FB9010E94FC088981882319F089818C
:104E7000843028F085E592E00E94F00619C089810F
:104E800072DE10C08A819B810196FC018081883787
:104E900049F480913702882319F086E30E94F704D1
:104EA00010923702809137020E9408080E94120770
:104EB0002396E2E00C948B38A7E0B0E0E2E6F7E25C
:104EC0000C946F388DE390E02DE330E0F901208100
:104ED0002E7FFC01208384E290E024E230E0F9019F
:104EE00020812460FC01208385E290E025E230E00F
:104EF000F90120812460FC0120838EE190E00E9472
:104F00007C0685E290E025E230E0F90120812B7FEC
:104F1000FC0120838EE190E00E947C0685E290E017
:104F200025E230E0F90120812460FC0120838DE23C
:104F300090E00E947C0680E30E94F70484E690E003
:104F40000E947C06198221C08981882F90E00196F9
:104F50008F589D4F9B838A838A819B81FC0184911A
:104F60008C832C818981882F90E08F589D4F9E8360
:104F70008D838D819E81FC0184918F838F81622F2F
:104F80000E94D40489818E5F898389818233E0F213
:104F900083E30E94F70484E00E94980684E30E9461
:104FA000F70485E30E94B0048D30C1F72796E2E054
:104FB0000C948B38A0E0B0E0E0EEF7E20C946F3890
:104FC0008AE30E94F70486E30E94F7048DE30E94BF
:104FD000F70484E30E94F704E2E00C948B38A5E226
:104FE000B0E0E5EFF7E20C946D3880913802882349
:104FF00009F4FFC089E290E0FC018081882F90E0F5
:1050000084709927892B09F4DBC08FE30E94B004D8
:105010008F77888788858E3110F0CCDFEAC085E2F3
:1050200090E025E230E0F90120812B7FFC01208314
:105030008FEF0E943B021B8213C08B81882F90E070
:105040008C010F5F1F4F80E00E943B02282FCE0192
:105050000896800F911FFC0120838B818F5F8B83CB
:1050600098858B81891748F380E00E943B028E83EC
:1050700080E00E943B0285E290E025E230E0F90109
:1050800020812460FC01208384E30E94F70485E3EF
:105090000E94B0048D30C1F7898589838985982F56
:1050A00086E78927898782E08A8329C08A81882FB9
:1050B00090E09E01285F3F4F820F931FFC0180818B
:1050C0008F838A81882F90E029812452622F2A8140
:1050D000222F30E0AE01485F5F4F240F351FF901EA
:1050E00020812627422F9E01285F3F4F820F931F6A
:1050F000FC0140838F8189838A818F5F8A839885B1
:105100008A81891798F28A81882F90E02A81222F3C
:1051100030E0AE01485F5F4F240F351FF901308149
:105120002A85432F42279E01285F3F4F820F931FFE
:10513000FC0140838091D102882F90E080719927F3
:10514000892BC9F081E60E94AD061C820FC08C81BC
:10515000882F90E09E01285F3F4F820F931FFC0134
:1051600080810E94AD068C818F5F8C8398858C81B5
:10517000981768F725C081E40E94AD061D820FC014
:105180008D81882F90E09E01285F3F4F820F931FF3
:10519000FC0180810E9408088D818F5F8D83988536
:1051A0008D81981768F78091D102882F90E08072E6
:1051B0009927892B19F08E810E9408080E941207F6
:1051C00085E30E94B004882F90E08130910529F09A
:1051D000419769F48AE30E94F70486E30E94F7048A
:1051E0008DE30E94F70484E30E94F70400000E940C
:1051F0008705A596E4E00C948938ACE2B0E0E3E0E2
:10520000F9E20C946B389CA78BA78BA59CA5019603
:105210009E012B5F3F4F4DE1B9010E9419088B831E
:105220008B81882F90E09C01215031098D81882F3E
:1052300090E02817390709F015C1809138028823BA
:1052400021F43ADE83E00E9498068F818C838E8160
:10525000982F86E789278E8382E0898327C08981FA
:10526000882F90E02981222F30E021503109AE01B2
:105270004B5F5F4F240F351FF90120812452622FAD
:105280002981222F30E0AE014B5F5F4F240F351F85
:10529000F90120812627422F9E012B5F3F4F820F6D
:1052A000931FFC01408389818F5F89839D81898160
:1052B0008917A8F28981882F90E02981222F30E078
:1052C000AE014B5F5F4F240F351FF90130812C81F8
:1052D000432F42279E012B5F3F4F820F931FFC01FC
:1052E0004083CE0183960E94D40585E30E94F70493
:1052F00085E30E94B004833109F44BC0CE01879648
:105300000E94D4052FA138A549A55AA58BA19CA11F
:10531000ADA1BEA182179307A407B507A8F42FA1DA
:1053200038A549A55AA58BA19CA1ADA1BEA1790123
:105330008A01E81AF90A0A0B1B0BD801C7018D3B39
:105340009105A105B10500F52FA138A549A55AA5DC
:105350008BA19CA1ADA1BEA1281739074A075B0705
:10536000C0F48BA19CA1ADA1BEA19C01AD012454B0
:105370003F4F4F4F5F4F8FA198A5A9A5BAA52817FA
:1053800039074A075B0728F483EA92E00E94F00697
:105390004CC085E30E94B004833109F0A6CF8C8114
:1053A000882F90E080719927892B61F0198206C0BF
:1053B00088E70E94980689818F5F8983898183307D
:1053C000B8F303C08AE00E94980685E290E025E2E7
:1053D00030E0F90120812B7FFC0120838FE70E94C0
:1053E0003B021A820FC08A81882F90E09E012B5FBA
:1053F0003F4F820F931FFC0180810E943B028A81F4
:105400008F5F8A839A818B81981768F385E290E099
:1054100025E230E0F90120812460FC0120830000B6
:1054200085E30E94B0048331D9F385E30E94B00480
:10543000863149F48BE30E94F70486E30E94F70467
:105440008DE30E94F70480913802882349F084E3B9
:105450000E94F70485E30E94B0048D30C1F702C0BA
:105460000E949F12AC96E6E00C948738A2E0B0E070
:10547000ECE3FAE20C946F389A83898389819A81EC
:105480000196FC018081823729F416DD81E080934A
:1054900038020EC089819A810196FC018081833790
:1054A00029F489819A810196A8DE02C010923802FF
:1054B0002296E2E00C948B38A7E0B0E0E2E6FAE254
:1054C0000C946F388DE390E02DE330E0F9012081FA
:1054D0002E7FFC01208384E290E024E230E0F90199
:1054E00020812460FC01208385E290E025E230E009
:1054F000F90120812460FC0120838EE190E00E946C
:105500007C0685E290E025E230E0F90120812B7FE6
:10551000FC0120838EE190E00E947C0685E290E011
:1055200025E230E0F90120812460FC0120838DE236
:1055300090E00E947C0680E30E94F70484E690E0FD
:105540000E947C0685E290E025E230E0F9012081AE
:105550002B7FFC01208380E40E943B02198212C051
:105560008981882F90E083559D4F9E838D838D8107
:105570009E81FC0184918F838F810E943B028981EF
:105580008F5F89838981893258F385E290E025E233
:1055900030E0F90120812460FC0120838BE290E05F
:1055A0009B838A8385E290E025E230E0F901208147
:1055B0002B7FFC0120838EE70E943B021C820EC0E1
:1055C0008A819B819C012F5F3F4F3B832A830E94EE
:1055D00085090E943B028C818F5F8C838C8188308F
:1055E00078F385E290E025E230E0F9012081246043
:1055F000FC01208383E30E94F70481E00E94980667
:1056000081E08093C7020E94380C2796E2E00C9458
:105610008B38A0E0B0E0EFE0FBE20C946F388BE257
:1056200090E02BE230E0F90120812860FC0120832A
:1056300080910401909105010E947C068BE290E02C
:105640002BE230E0F9012081277FFC01208380914B
:105650000401909105010E947C06E2E00C948B38D5
:10566000A0E0B0E0E6E3FBE20C946F388BE290E060
:105670002BE230E0F9012081277FFC01208380911B
:105680000401909105010E947C068BE290E02BE2E0
:1056900030E0F90120812860FC0120838091040121
:1056A000909105010E947C06E2E00C948B38A9E001
:1056B000B0E0EDE5FBE20C946F3898878F83698743
:1056C00019821DC08BE290E02BE230E0F9012081CD
:1056D0002860FC01208386EF99E00E947C068BE223
:1056E00090E02BE230E0F9012081277FFC0120834C
:1056F00086EF99E00E947C0689818F5F898399817A
:1057000089859817FCF28BE290E02BE230E0F901FA
:1057100020812860FC0120838CEF92E10E947C06AE
:105720008BE290E02BE230E0F9012081277FFC0141
:10573000208380910401909105010E947C061A82C9
:105740002CC080E890E09C838B838A81082E000C1B
:10575000990B2F813885820F931FFC0180818E83E6
:105760001D8215C08E81282F30E08B819C81822381
:105770009323892B11F44DDF01C072DF8B819C8153
:10578000969587959C838B838D818F5F8D838D818B
:10579000883044F38A818F5F8A838A8187308CF2D4
:1057A0008BE290E02BE230E0F9012081277FFC01C1
:1057B000208380E090E00E947C062996E2E00C9431
:1057C0008B38A4E0B0E0E7EEFBE20C946F389C83EA
:1057D0008B8319821A821EC08A81082E000C990BB5
:1057E0002B813C81820F931FFC0190818981492F7D
:1057F00048278A81082E000C990B2B813C81820F4F
:10580000931FFC01808182958F70842789838A8110
:105810008F5F8A838A818730FCF289812496E2E057
:105820000C948B38A9E0B0E0E8E1FCE20C946F380E
:10583000998788871F8287E090E00E9496389C8332
:105840008B838885998502969E01295F3F4F41E0B1
:10585000B9010E9419082F818B819C81FC01208352
:105860008885998504969E01295F3F4F41E0B901E3
:105870000E9419088B819C8101962F81207FFC0159
:1058800020838885998506969E01295F3F4F41E0D8
:10589000B9010E9419088B819C8102962F81FC011D
:1058A00020838885998508969E01295F3F4F41E0B6
:1058B000B9010E9419088B819C8103962F81FC01FC
:1058C0002083888599850A969E01295F3F4F41E094
:1058D000B9010E9419088B819C8106962F81FC01D9
:1058E0002083888599850C969E01295F3F4F41E072
:1058F000B9010E9419088B819C8105962F81FC01BA
:105900002083888599850E969E01295F3F4F41E04F
:10591000B9010E9419088B819C8104962F81FC019A
:1059200020838B819C814DDF882F90E0AC014F70EC
:1059300055278B819C8101962B813C812F5F3F4FA6
:10594000F9012081322F242F232BFC01208387E0B3
:1059500090E00E9496389E838D832B813C818D81BF
:105960009E8147E050E0B9010E94C33981E08983FC
:1059700024C08981082E000C990B2B813C81820F59
:10598000931F2981022E000C330B4B815C81240F65
:10599000351FF90160812981022E000C330B215043
:1059A00031094B815C81240F351FF90120812627A5
:1059B000FC01208389818F5F898389818730CCF2C4
:1059C00085E290E025E230E0F90120812260FC01CF
:1059D000208380913B02882369F4809138028823D8
:1059E00029F081E0809339021092380265DD83E06E
:1059F0000E94980686E30E94F7048AE30E94F70457
:105A00008BE30E94F7040E94F2038BE290E02BE20A
:105A100030E0F90120812860FC01208387EC94E2CA
:105A20000E947C068BE290E02BE230E0F9012081BD
:105A3000277FFC01208389E50E94980685E392E098
:105A40000E947C0619820DC08981882311F422E00E
:105A500001C027E08B819C81622F29DE89818F5FC5
:105A600089838981282F880F330B80910101882F2A
:105A700090E02817390744F380913B02882359F0BE
:105A80008091D102882319F00E941B0413C086E381
:105A90000E94F7040FC080913902882349F01092C8
:105AA00039020ADA81E0809338020E941B0402C0A6
:105AB0000E949F1285E290E025E230E0F90120810A
:105AC0002D7FFC01208389E50E94AD0683E70E94BB
:105AD000AD061A820FC08A81082E000C990B2D8109
