:10000000E8C1000002C2000000C200000C94391ACE
:10001000FCC10000FAC10000F8C10000F6C10000F8
:10002000F4C10000F2C10000F0C10000EEC1000008
:10003000ECC100000C94EB18E8C10000E6C1000020
:10004000E2C50000E2C10000E0C10000DEC1000026
:100050000C9450360C940C36D8C10000D6C1000068
:10006000D4C10000D2C10000D0C10000CEC1000048
:10007000CCC10000CAC10000C8C10000427F0B43D0
:100080009F0446A8106931354140255A6E2945DD47
:100090002B47B9104D01114BB41155881259402FFF
:1000A00052280A54FF0D56BC0B57870A5825136572
:1000B0001B0B66E12F6C4B0B745B0678330400005E
:1000C0000000030F1E2627000000030F1E253638F0
:1000D0006700030F256740605000030F2751888396
:1000E0008100030F2750C8C3C20027000000000092
:1000F0000000670000000000000050000000000049
:1001000000008100000000000000C20000000000AC
:10011000000D2E2D07D3913D04320000060021650D
:100120006A57C43023B900070018146C0700908781
:100130006BF85611E92A001F4100072E050DD391D7
:10014000FF080500000C0021656A2D3B1322F862B0
:10015000073F181D1CC700B0876BF8B611EA2A00CC
:100160001F4100203D2000202F2000504C4C300D1E
:100170000A00504C4C310D0A00203D2000202F2059
:10018000005620312E32302E303620612D63756CB2
:100190006677204275696C643A2070726976617482
:1001A00065206275696C642028756E6B6E6F776E62
:1001B0002920006136343443554C343333006136E2
:1001C000343443554C383638002028462D42616E71
:1001D000643A203433334D487A29002028462D4292
:1001E000616E643A203836384D487A29004C4F56B3
:1001F000460D0A00424F56460D0A000B060D210E11
:10020000650F6A1700181819161B431C682500266D
:10021000110001024605D4042D0302070008021054
:1002200089115C12061556FF000302FF0000000052
:1002300000000000000000000000000000030210A9
:10024000881182FF00000000000000000000000094
:100250000003071088110B0D210E6B0FD01553FFF3
:100260000000000000737065636966792076616C38
:100270006964206D6F6465206E756D6265720D0A2C
:10028000000007022E030D04E905CA070C0B060D3A
:10029000210E650F6A10C811931203153417331815
:1002A0001819161B4321562500261129592C812D7A
:1002B000353EC30B08105B11F81547191D1A1C1B9E
:1002C000C71C001DB221B623EA4552523A434341AE
:1002D0000D0A000007024604C605260B0610C811C9
:1002E00093120313221534173F182819161B4321A4
:1002F00056250026110D210E650F6A070C160720E2
:10030000F81E871F6B29592C812D353EC3FF004CE9
:10031000454E4552520D0A004C4F56460D0A004CB0
:10032000454E4552520D0A0000070246030D049A3D
:10033000057D0642070C0B060D210E650F6A10C8DD
:100340001193120315341700181819161B431C6853
:1003500025002611FF000000000000000000000042
:10036000000000000D2E2D07D3913D043200000641
:100370000010ABA5550A3023B900070018146C070C
:100380000090876BF85611E92A001F41000D2E2DB1
:1003900007D3913D04320000060010B07155E430DF
:1003A00023B900070018146C070090876BF85611EA
:1003B000E92A001F41003F20280020697320756E44
:1003C0006B6E6F776E2920557365206F6E65206F99
:1003D000660011241FBECFEFD0E1DEBFCDBF11E01C
:1003E000A0E0B1E0E8E7F3E702C005900D92A83283
:1003F000B107D9F723E0A8E2B1E001C01D92A43D06
:10040000B207E1F703D00C94BA39FACDA0E0B0E01E
:10041000ECE0F2E00C942A380FB6F894A89580919D
:100420006000886180936000109260000FBE84E2DB
:1004300090E024E230E0F90120812160FC0120837A
:1004400085E290E025E230E0F90120812160FC01A5
:1004500020830E94A6370E94000B87E490E029EFDA
:10046000FC01208385E490E024E0FC01208384E407
:1004700090E022E0FC0120838EE690E022E0FC0187
:10048000208380E890E0FC01108281E890E02AE07F
:10049000FC01208384E590E024E530E0F90120812F
:1004A000277FFC01208387E090E088709927892BC3
:1004B00011F088E201C088E097E09770892B982FAF
:1004C00088E10FB6F894A895809360000FBE9093D2
:1004D000600089E190E80E9493360E94EC0D0E9432
:1004E000C1128CE497E39093BD028093BC0281E03B
:1004F00080932C010E94990C85E290E025E230E087
:10050000F90120812E7FFC01208378940E94BC3663
:100510000E942515FBD30E944C300E94F1220E94BC
:1005200099260E94672A0E948121F0CFA1E0B0E0C5
:10053000ECE9F2E00C942A3889838EE490E029817A
:10054000FC01208300008DE490E0FC018081882381
:10055000D4F78EE490E0FC0180812196E2E00C94D7
:100560004638A6E0B0E0E7EBF2E00C942A389E8330
:100570008D83109224028DE390E02DE330E0F901A9
:1005800020812B7FFC01208384E290E024E230E094
:10059000F90120812061FC01208385E290E025E2C1
:1005A00030E0F90120812061FC0120838EE190E0A0
:1005B00004D485E290E025E230E0F90120812F7E2D
:1005C000FC0120838EE190E0F8D385E290E025E203
:1005D00030E0F90120812061FC0120838DE290E070
:1005E000ECD380E361D284E690E0E7D385E290E04B
:1005F00025E230E0F90120812F7EFC01208380E498
:1006000095DF19820CC08D819E819C012F5F3F4F29
:100610003E832D83DBD68ADF89818F5F8983898141
:10062000893288F385E290E025E230E0F90120810B
:100630002061FC0120838BE290E09B838A8385E22A
:1006400090E025E230E0F90120812F7EFC0120833B
:100650008EE76CDF1C820CC08A819B819C012F5F1E
:100660003F4F3B832A83B2D661DF8C818F5F8C83BF
:100670008C81883088F385E290E025E230E0F90152
:1006800020812061FC01208383E30ED281E0B1D37D
:100690002696E2E00C944638A9E0B0E0E2E5F3E00B
:1006A0000C942A3889878BE290E09A838983898524
:1006B0008A3010F088E089878985882F90E0880F3C
:1006C000991F880F991F880F991F8F539F4F9D83E4
:1006D0008C831B821BC08B81882F90E02C813D81F5
:1006E000820F931F9F838E838E819F81FC01849153
:1006F0008887488589819A819C012F5F3F4F3A8383
:100700002983642F47D68B818F5F8B838B818830C1
:1007100010F38985853028F089858A3010F481E1CD
:1007200001C087E1682F84E290E034D62996E2E0A8
:100730000C944638AAE0B0E0E0EAF3E00C942A38E2
:1007400082E090E09A8389831B8219C08B81882F75
:1007500090E08F5E9E4F9E838D838D819E81FC01F4
:1007600084918F834F8189819A819C012F5F3F4FB4
:100770003A832983642F0ED68B818F5F8B838B8185
:10078000893220F387E390E09A8389831C8219C021
:100790008C81882F90E0865C9E4F9987888788851A
:1007A0009985FC0184918A874A8589819A819C0177
:1007B0002F5F3F4F3A832983642FECD58C818F5F65
:1007C0008C838C81893220F38BE191E0FC01808164
:1007D000882F90E081709927892B09F03EC08FE027
:1007E00090E09A83898389819A819C012F5F3F4F92
:1007F0003A83298360E1CED589819A819C012F5F5C
:100800003F4F3A83298360EBC5D589819A819C014A
:100810002F5F3F4F3A83298361E7BCD584E490E0A2
:100820009A83898389819A819C012F5F3F4F3A8304
:10083000298360E1AFD589819A819C012F5F3F4F69
:100840003A83298360EBA6D589819A819C012F5F29
:100850003F4F3A83298361E79DD588E01DDF2A96C3
:10086000E2E00C944638A3E0B0E0E9E3F4E00C9455
:100870002A389B838A8382E089838A819B810196BF
:1008800041E09E012F5F3F4FB90134D4898104DFDD
:1008900082E090E066DE2396E2E00C944638A1E028
:1008A000B0E0E5E5F4E00C942A388FEF89838DE31E
:1008B00090E02DE330E0F90120812B7FFC012083C3
:1008C00086E3F2D003C08AE090E077D289819FEF7F
:1008D000980F9983882341F085E3E6D0882F90E034
:1008E00080779927809779F72196E2E00C94463833
:1008F000A1E0B0E0EEE7F4E00C942A388FEF8983B2
:1009000003C08AE090E059D289819FEF980F9983C4
:10091000882341F084E3C8D0882F90E0807799271E
:10092000409779F78DE390E02DE330E0F9012081E5
:100930002460FC0120832196E2E00C944638A6E076
:10094000B0E0E5EAF4E00C942A389E838D838D8133
:100950009E810196FC018081873719F58D819E81EA
:1009600002969E012C5F3F4F41E0B901C3D3892B12
:10097000C1F08D819E8104969E012D5F3F4F41E025
:10098000B901B8D3892B69F09B818C81692F69D01B
:1009900083E38AD0ADDF8C819CD38B819AD3A3D2A1
:1009A00038C08D819E8101969E012D5F3F4F41E0B1
:1009B000B901A0D3892B69F18B818939A1F41982FE
:1009C0000EC089812AD085D38981882F90E08770D5
:1009D0009927079709F487D289818F5F8983898155
:1009E000803378F316C08B8118D08A8383E416D2C3
:1009F0008B816FD383E691E054D28A816AD387E6F4
:100A000091E04FD28A81882F90E040E262E078D274
:100A10006AD22696E2E00C944638A2E0B0E0E3E128
:100A2000F5E00C942A388A8385E290E025E230E0F4
:100A3000F90120812F7EFC0120838A81806C76DD84
:100A400080E074DD898385E290E025E230E0F90101
:100A500020812061FC01208389812296E2E00C94B0
:100A60004638A2E0B0E0E7E3F5E00C942A38898349
:100A70006A8385E290E025E230E0F90120812F7E53
:100A8000FC0120838981806451DD8A814FDD85E20C
:100A900090E025E230E0F90120812061FC01208313
:100AA0002296E2E00C944638A2E0B0E0EAE5F5E0F8
:100AB0000C942A388A8385E290E025E230E0F9013F
:100AC00020812F7EFC0120838A8130DD898385E2AD
:100AD00090E025E230E0F90120812061FC012083D3
:100AE00089812296E2E00C944638A0E0B0E0EBE782
:100AF000F5E00C942A3886E3D7DF1092BE021092FC
:100B0000220210922402E2E00C944638A0E0B0E009
:100B1000ECE8F5E00C942A3882E090E022DD81E0F8
:100B20008093BE021092220210922402E2E00C9402
:100B30004638A0E0B0E0EFE9F5E00C942A3885E211
:100B40006CDF8F3311F080E01FC086E3ADDF809152
:100B50002801882321F48BE691E0A3D102C08DE324
:100B6000A3DF83E3A1DF64E081E011D085E255DFFC
:100B70008F3311F080E008C080912801882319F498
:100B800082E791E08ED181E0E2E00C944638A3E068
:100B9000B0E0EDECF5E00C942A388A836B838FEF9C
:100BA000898385E33ADF982F8A81981711F480E0D2
:100BB0000BC08B81882F90E000D189819FEF980F27
:100BC0009983882371F781E02396E2E00C944638FC
:100BD000A0E0B0E0EEEEF5E00C942A3885E31DDFEE
:100BE0008D3071F485E219DF8F3351F4A2DF0000FC
:100BF00084E35ADF882F90E0807799274097C1F7E8
:100C0000E2E00C9446381F920F9200905F000F9222
:100C100011248F939F93AF93BF93CF93DF93CDB75F
:100C2000DEB78091C0029091C102A091C202B09142
:100C3000C3020196A11DB11D8093C0029093C10211
:100C4000A093C202B093C3028091BF028F5F8093D2
:100C5000BF02DF91CF91BF91AF919F918F910F9084
:100C600000925F000F901F901895A3E0B0E0EBE3B7
:100C7000F6E00C942A389B838A838FE590E0FC0190
:100C800080818983F8948091C0029091C102A091E3
:100C9000C202B091C3022A813B81F9018083918312
:100CA000A283B3838FE590E02981FC012083239602
:100CB000E2E00C944638A8E0B0E0E1E6F6E00C94FF
:100CC0002A3898878F83CE010396CFDFCE01039613
:100CD0009A83898389819A810396FC018081F9D165
:100CE00089819A810296FC018081F3D189819A8160
:100CF0000196FC018081EDD189819A81FC0180817E
:100D0000E8D1F1D02896E2E00C944638A0E0B0E0BB
:100D1000ECE8F6E00C942A388091C0029091C10270
:100D2000A091C202B091C302982F80912901981717
:100D300009F440C08091C0029091C102A091C2020A
:100D4000B091C30280932901A8958091BF028D378D
:100D500008F430C01092BF0280910001882F90E00B
:100D600082709927892B51F085E290E025E230E0EE
:100D7000F901308121E02327FC0120838091C60204
:100D80009091C7028438934048F48091C6029091B4
:100D9000C70201969093C7028093C60280912A01F0
:100DA0008F5F80932A0180912A018C3309F002C061
:100DB00010922A01E2E00C944638A4E0B0E0E3EEA1
:100DC000F6E00C942A389C838B838B819C81880F5E
:100DD000991F9C838B838B819C819A8389838981D2
:100DE0009A810197F1F79A8389832496E2E00C9423
:100DF0004638A1E0B0E0EFEFF6E00C942A388983A2
:100E000003C088EE93E0D9DF89819FEF980F998323
:100E10008823B9F72196E2E00C944638A1E0B0E0CF
:100E2000E4E1F7E00C942A38898380912C01882F23
:100E300090E081709927892B99F08091CC028E37B0
:100E400050F08091CC0288235CF089818D3019F0BC
:100E500089818A3029F48981682F8AEC92E0EFD564
:100E60002196E2E00C944638A2E0B0E0EAE3F7E035
:100E70000C942A389A8389830AC089819A819C01BB
:100E80002F5F3F4F3A832983FC018081C7DF89812F
:100E90009A81FC018081882381F72296E2E00C94FC
:100EA0004638A6E0B0E0E7E5F7E00C942A389E83E8
:100EB0008D8307C08C81B2DF8D819E8101969E83D8
:100EC0008D838D819E819A83898389819A81FC019A
:100ED00084918B838B818C838C81882359F7269610
:100EE000E2E00C944638A0E0B0E0E9E7F7E00C94CB
:100EF0002A388DE093DF8AE091DFE2E00C944638F7
:100F0000ABE0B0E0E6E8F7E00C942A3899878887F0
:100F10006A874B8786E089838981815089838981AB
:100F2000882F90E09E012E5F3F4F820F931FFC01A0
:100F300010828981815089838981E82FF0E048857A
:100F400059859A01ADECBCEC0E940B3896958795BB
:100F50009695879596958795880F991F9C01220FE6
:100F6000331F220F331F820F931F9A01281B390B47
:100F7000C901805D282FCE0102968E0F9F1FFC01B4
:100F80002083888599859C01ADECBCEC0E940B38D0
:100F9000969587959695879596958795998788874D
:100FA0008A8581508A8788859985892B21F0898156
:100FB000882309F0BECF0EC0898181508983898141
:100FC000882F90E04B859E012E5F3F4F820F931F2D
:100FD000FC0140838A8581508A878A8588231CF09A
:100FE0008981882349F78981882F90E09E012E5FAF
:100FF0003F4F820F931F38DF2B96E2E00C94463868
:10100000ABE0B0E0E6E0F8E00C942A3899878887F6
:101010006A874B8785E089838981815089838981AB
:10102000882F90E09E012D5F3F4F820F931FFC01A0
:10103000108288858F708A83898181508983898114
:10104000882F90E02A812A3020F42A81205D422FC7
:1010500003C02A81295C422F9E012D5F3F4F820FE2
:10106000931FFC01408388859985929582958F70A6
:1010700089279F708927998788878A8581508A87E1
:1010800088859985892BA9F60EC08981815089832D
:101090008981882F90E04B859E012D5F3F4F820F05
:1010A000931FFC0140838A8581508A878A85882323
:1010B0001CF08981882349F78981882F90E09E015F
:1010C0002D5F3F4F820F931FCFDE2B96E2E00C94F3
:1010D0004638A1E0B0E0EFE6F8E00C942A388983C6
:1010E0008981882F90E040E362E08ADF2196E2E088
:1010F0000C944638AAE0B0E0E0E8F8E00C942A3816
:101100009F838E83798768874A87888599859A83A4
:1011100089831C821D824EC08B81813618F08B81A1
:1011200080528B838B81803350F08B818A3338F4EB
:101130008B818053982F8C81892B8C8315C08B8158
:10114000813450F08B81873438F48B818753982F0A
:101150008C81892B8C8308C08B81803221F08B811C
:101160008A3309F035C026C08D8191E0980F9D83A8
:101170008823E1F089819A819C012F5F3F4F3A8358
:1011800029832C81FC0120838A8581508A878A8566
:10119000882349F429813A8188859985A901481BCA
:1011A000590BCA011DC01D821C8204C08C8182950E
:1011B000807F8C838E819F819C012F5F3F4F3F8377
:1011C0002E83FC0180818B838B81882309F0A4CF3F
:1011D00029813A8188859985A901481B590BCA0143
:1011E0002A96E2E00C944638AAE0B0E0EAEFF8E094
:1011F0000C942A389F838E83798768874A878885ED
:1012000099859A8389831B821C822EC01C828D81C2
:10121000803380F08D818A3368F48B81880F982F1A
:10122000990F990F980F8D81890F80538B8381E0DF
:101230008C831AC08D81803221F08D818E3209F02D
:1012400020C08A85882381F089819A819C012F5F43
:101250003F4F3A8329832B81FC0120831B828B81A2
:101260008C838A8581508A878E819F819C012F5F24
:101270003F4F3F832E83FC0180818D838D818823A6
:1012800029F68C81882369F08A85882351F0898129
:101290009A819C012F5F3F4F3A8329832B81FC0168
:1012A000208329813A8188859985A901481B590B9A
:1012B000CA012A96E2E00C944638A7E0B0E0E3E6E3
:1012C000F9E00C942A389D838C837F836E831A8285
:1012D000198219C08B818033B0F08B818A3398F4E6
:1012E00089819A81880F991F9C01220F331F220F39
:1012F000331F280F391F8B81882F90E0820F931F97
:10130000C0979A8389838C819D819C012F5F3F4F79
:101310003D832C83FC0180818B838B818823D1F6D4
:101320008E819F8129813A81FC0131832083279618
:10133000E2E00C944638A4E0B0E0E1EAF9E00C9475
:101340002A388A837C836B838A8182958F70898314
:1013500089818A3020F4898120E3280F03C08981A4
:1013600027E3280F8B819C81FC0120838A818F7069
:1013700089838B819C81019629812A3018F42981E7
:10138000205D02C02981295CFC0120832496E2E0D3
:101390000C944638A3E0B0E0E0EDF9E00C942A3874
:1013A0009A8389836B8389819A816B810E94AC398E
:1013B0008FE390E0FC018081882F90E08270992774
:1013C000892BB1F72396E2E00C944638A2E0B0E016
:1013D000ECEEF9E00C942A389A83898389819A810A
:1013E0000E94A4392296E2E00C944638A3E0B0E0D3
:1013F000ECEFF9E00C942A389A8389836B830EC052
:1014000089819A819C012F5F3F4F3A832983DEDFD8
:1014100060DE8B81882311F08AE300DD8B819FEFF2
:10142000980F9B83882361F72396E2E00C9446385B
:10143000A2E0B0E0EEE1FAE00C942A389A838983C6
:1014400089819A8166E0D2DF2296E2E00C944638E8
:10145000A7E0B0E0EEE2FAE00C942A389F838E8396
:101460008E819F810196FC0180818D3421F48AEF69
:1014700097E0DEDF47C08E819F810196FC0180816D
:10148000803529F460E18AED97E0B0DF3BC01D8232
:101490008D818C838E819F8101969E012C5F3F4FB1
:1014A00042E0B90127DE8B838B81823069F48C8125
:1014B000882F90E0382F22278D81882F90E0822B73
:1014C000932B9A83898305C08C81882F90E09A831F
:1014D000898389819A817ADF8B8382E59FDC898188
:1014E0009A8140E364E08CDD89E791E0DADC8B816E
:1014F000F0DD8DE791E0D5DC8B81882F90E040E234
:1015000062E0FEDCF0DC2796E2E00C944638ABE0CB
:10151000B0E0EDE8FAE00C942A389B878A871B82BA
:101520008A859B8501969E012C5F3F4F43E0B90160
:10153000E1DD8B838B81823008F45EC08B81823049
:1015400031F48C81882F90E09A8389830CC08C8140
:10155000882F90E0382F22278D81882F90E0822BD2
:10156000932B9A8389838B81882F90E001979E012A
:101570002C5F3F4F820F931FFC01208189819A814C
:10158000622F08DF89819A810F9741F089819A81C2
:10159000409721F089819A81419709F4CAD18B81C2
:1015A000882F90E0880F991F01962A853B85820F2E
:1015B000931F9B878A871AC09E012C5F3F4F8A85A5
:1015C0009B8541E0B90196DD892B09F415C02C817A
:1015D00089819A8101969A83898389819A81622F70
:1015E000D9DE8A859B8502969B878A878A859B851B
:1015F000FC018081882301F72B96E2E00C944638A9
:10160000A0E0B0E0E6E0FBE00C942A3880E090E057
:10161000DDDE813029F481E090E0D8DE843119F0FC
:1016200080E090E008D084E390E0D0DE8093000179
:10163000E2E00C944638A2E0B0E0E1E2FBE00C947A
:101640002A389A83898361E080E090E0A3DE64E138
:1016500081E090E09FDE6ED86CD160E080E690E0A3
:1016600099DE60E081E690E095DE60E083E390E063
:1016700091DE62E084E390E08DDE89819A810196BB
:10168000FC018081883719F080E090E038D0229604
:10169000E2E00C944638A2E0B0E0E1E5FBE00C9417
:1016A0002A389A83898389819A81019641E060E092
:1016B00071E020DD80910001882F90E081709927F2
:1016C000892B51F085E290E025E230E0F90120819C
:1016D0002160FC01208309C085E290E025E230E032
:1016E000F90120812E7FFC01208380910001682F69
:1016F00084E390E04FDE2296E2E00C944638A3E0CB
:10170000B0E0E5E8FBE00C942A389B838A831982D9
:101710008A819B81892B49F08A819B81019641E0D6
:101720009E012F5F3F4FB901E5DC89818F3F09F4AE
:10173000FFCF8981882321F061E083E390E02ADEF6
:101740008EE690E0FC011082F89480E090E08870D2
:101750009927892B11F088E201C088E090E097700A
:10176000892B982F88E10FB6F894A8958093600094
:101770000FBE90936000FFCFA2E0B0E0E2ECFBE090
:101780000C942A389A83898381E891E08ADB8BE183
:1017900091E0FC018081882F90E081709927892B4E
:1017A00021F483EB91E07DDB03C08EEB91E079DBEC
:1017B00080912D01813021F489EC91E072DB03C02E
:1017C0008BED91E06EDB8FDB2296E2E00C944638E5
:1017D000A9E0B0E0EEEEFBE00C942A389F838E8304
:1017E000798768871A82198265C088858B838B8187
:1017F000813110F080E18B8389819A8140E364E03C
:10180000FFDB8AE30BDB80E209DB1C8216C08C81E4
:10181000882F90E02E813F81820F931FFC018081F1
:1018200058DC8C81882F90E081709927892B11F0EA
:1018300080E2F4DA8C818F5F8C839C818B81981796
:1018400030F380E2EBDA1D8226C08D81882F90E094
:101850002E813F81820F931FFC0180818032B0F086
:101860008D81882F90E02E813F81820F931FFC0194
:1018700080818F3758F48D81882F90E02E813F81B1
:10188000820F931FFC018081C9DA02C08EE2C6DAA2
:101890008D818F5F8D839D818B819817B0F28E81B2
:1018A0009F8140969F838E831EDB89819A8140961B
:1018B0009A83898329813A818885998528173907F0
:1018C00008F493CF10DB2996E2E00C944638A7E0A9
:1018D000B0E0EDE6FCE00C942A389F838E831D82F5
:1018E0008D818C839E012C5F3F4F8E819F8142E0D2
:1018F000B90100DC8B838B81823069F48C81882F65
:1019000090E0382F22278D81882F90E0822B932B17
:101910009A83898305C08C81882F90E09A8389837C
:1019200089819A8153DD8B838B812796E2E00C9429
:101930004638A9E0B0E0EFE9FCE00C942A388CE1ED
:1019400091E0C5DF882F90E0A0E0B0E089839A8322
:10195000AB83BC838FE191E0BADF882F90E09E8358
:101960008D8382E291E0B3DF8F8389819A81AB819D
:10197000BC81AC01332722278D819E81982F882737
:10198000CC01A0E0B0E0280F391F4A1F5B1F8F81F8
:10199000882F90E0A0E0B0E0280F391F4A1F5B1F9E
:1019A000DA01C901880F991FAA1FBB1F820F931F5D
:1019B000A41FB51F880F991FAA1FBB1F880F991F4F
:1019C000AA1FBB1F820F931FA41FB51F880F991F4B
:1019D000AA1FBB1FCD01AA27BB27998788878885A7
:1019E0009985853F914020F082E080932D0103C0CE
:1019F00081E080932D012996E2E00C944638A2E024
:101A0000B0E0E5E0FDE00C942A389A83898389816F
:101A10009A81FC01128289819A81FC01228189814B
:101A20009A81FC01208389819A81FC01208189812E
:101A30009A81FC0121832296E2E00C944638A4E0CE
:101A4000B0E0E5E2FDE00C942A389B838A836C8346
:101A50008FE590E0FC0180818983F8948A819B81E5
:101A6000FC018281882334F48FE590E02981FC0118
:101A700020832DC08A819B81FC01828121E0280F77
:101A80008A819B81FC0122838A819B81FC012081C8
:101A900031E0320F8A819B81FC013083822F90E0FC
:101AA0004C812A813B81820F931F0396FC01408366
:101AB0008A819B81FC018081803821F48A819B810D
:101AC000FC0110828FE590E02981FC01208324969F
:101AD000E2E00C944638A4E0B0E0E1E7FDE00C94CD
:101AE0002A389C838B838FE590E0FC018081898379
:101AF000F8948B819C81FC018281882339F48FE5E5
:101B000090E02981FC01208380E02EC08B819C81A4
:101B1000FC0182812FEF280F8B819C81FC012283A5
:101B20008B819C81FC01218131E0320F8B819C8172
:101B3000FC013183822F90E02B813C81820F931F27
:101B40000396FC0180818A838B819C81FC018181C9
:101B5000803821F48B819C81FC0111828FE590E01B
:101B60002981FC0120838A812496E2E00C94463886
:101B7000A3E0B0E0EEEBFDE00C942A389B838A836F
:101B80008091C802882F90E080749927892B09F4EE
:101B90001FC084E543D919820DC08981882F90E048
:101BA0002A813B81820F931FFC01808192DA898117
:101BB0008F5F89838981853080F38091C802882F67
:101BC00090E080729927892B11F08AEF82DA8BD905
:101BD0002396E2E00C944638A0E0B0E0E2EFFDE0AE
:101BE0000C942A3885E390E0F1DB8093C40286E30D
:101BF00090E0ECDB8093C502E2E00C944638A9E06B
:101C0000B0E0E5E0FEE00C942A3899878887888563
:101C1000998501969E012E5F3F4F45E0B9016ADA32
:101C2000898389818430D0F48A818130A9F48981C3
:101C3000833061F48B81682F85E390E0ABDB8C818E
:101C4000682F86E390E0A6DBC7DF08C08091C4025E
:101C500040DA8091C5023DDA46D900002996E2E0DB
:101C60000C944638A1E0B0E0E8E3FEE00C942A389A
:101C7000898385E290E025E230E0F9012081286047
:101C8000FC0120838981882359F080913001882FBD
:101C900090E082959295907F9827807F98270AC040
:101CA00080912E01882F90E082959295907F9827C1
:101CB000807F982782D885E290E025E230E0F90124
:101CC0002081277FFC0120838981882359F080911E
:101CD0003101882F90E082959295907F9827807FA0
:101CE00098270AC080912F01882F90E082959295C5
:101CF000907F9827807F982760D82196E2E00C9407
:101D00004638EF920F93CF93DF93CDB7DEB72B9783
:101D10000FB6F894DEBF0FBECDBF9E838D836F8359
:101D2000488729870A87EB868885882F90E0029666
:101D3000982F8A85989F802D11248C838C81282F41
:101D4000880F330B8091C6029091C70282179307C8
:101D500020F48DEE91E0A5D8BDC02091C60230914F
:101D6000C7028C81082E000C990BA901481B590B46
:101D7000CA019093C7028093C60285E290E025E2F3
:101D800030E0F90120812160FC0120831B828091D9
:101D90002402882339F081E08B831092240285E2AB
:101DA00091E053D48091BE02882311F40E948605ED
:101DB0000E944F04198205C080E054DF89818F5F43
:101DC00089838981282F880F330B8F81882F90E09A
:101DD000281739078CF38F81882311F081E042DFC7
:101DE0001A8224C087E089831BC08A81082E000CD8
:101DF000990B2D813E81820F931FFC018081482F1A
:101E00008981282F880F330B81E090E002C0880F72
:101E1000991F2A95E2F7842325DF898181508983E0
:101E20008981882314F78A818F5F8A838A81282F8A
:101E3000880F330B8885882F90E02817390794F294
:101E400087E089831BC08A81082E000C990B2D81A5
:101E50003E81820F931FFC018081482F8981282FAA
:101E6000880F330B81E090E002C0880F991F2A95FC
:101E7000E2F78423F7DE8981815089838981282FC5
:101E8000880F330B8985882F90E082179307DCF247
:101E90008B850E94F9068A8581508A878A858823E6
:101EA00009F088CF8091C802882319F00E94780435
:101EB00003C086E30E9454058B81882311F00E94A1
:101EC0007A2585E290E025E230E0F90120812E7F3D
:101ED000FC0120832B960FB6F894DEBF0FBECDBF5A
:101EE000DF91CF910F91EF900895A7E0B0E0EBE77D
:101EF000FFE00C942A388A837C836B835E834D8356
:101F00002F838D819E81FC01808189838A81882332
:101F1000F1F08981882F90E02B813C81820F931F03
:101F20002981222F30E04B815C81240F351FF9017C
:101F30002081622F2F81422F50E021E030E002C04B
:101F4000220F331F4A95E2F7262BFC0120838F8155
:101F50009FEF980F9F838823B1F489818F5F8983D6
:101F600089818C3028F48D819E812981FC01208318
:101F700087E08F838981882F90E02B813C81820FBD
:101F8000931FFC0110828F81882F90E02796E2E05A
:101F90000C944638EF920F931F93CF93DF93CDB7F6
:101FA000DEB766970FB6F894DEBF0FBECDBF9B8B32
:101FB0008A8B6C8B4D8B2E8B8C89882F90E02A8995
:101FC0003B898901080F191F8A899B894C89BC01AB
:101FD0008D8966D3F80180838C898F5F8C8B198AF9
:101FE0008989898387E08B838B818A838989882F7C
:101FF00090E09E012B5F3F4F820F931FFC011082E8
:1020000052C06B818981882F90E02A893B89820F99
:10201000931FFC018081482F8A81282F880F330B62
:1020200081E090E002C0880F991F2A95E2F784238F
:10203000382FAE014F5E5F4FCE010596262FBC01B3
:10204000832F53DF8B838A81982F91509A83882323
:1020500051F56B818981882F90E02A893B89820F15
:10206000931FFC018081082E82958025082E86957D
:10207000869580258C838C81882F90E0019695959C
:10208000879581709927382FAE014F5E5F4FCE0143
:102090000596262FBC01832F28DF8B8387E08A8358
:1020A00089818F5F898399818C89981708F4A9CFDA
:1020B0008B81982F91509B83882329F489898F5F86
:1020C000898B87E08B8389E180932F0180912F0199
:1020D00080932E0185E280933101809131018093BC
:1020E00030012B813989CE0105960F2EFAE0EF2EB3
:1020F000F02D0E89432F6CE004DE66960FB6F8943F
:10210000DEBF0FBECDBFDF91CF911F910F91EF903A
:102110000895A1E1B0E0EFE8F0E10C942A389F8740
:102120008E87688B498B8E859F8501969E012E5FD9
:102130003F4F4BE0B9010E947A088983CE01029695
:1021400029894889698126DF6196E2E00C94463846
:10215000A2E0B0E0EEEAF0E10C942A389A83898399
:1021600089819A8143E066E0D4DF2296E2E00C9414
:102170004638EF920F93CF93DF93CDB7DEB76797D3
:102180000FB6F894DEBF0FBECDBF9F8B8E8B8E89AE
:102190009F8901969E012A5F3F4F40E1B9010E944D
:1021A0007A088E8189838F8182958F708A838F814F
:1021B0008F708B83888582958F708C8388858F70D4
:1021C0008D83898580932E018A8580932F018B854D
:1021D000809330018C8580933101CE01069607965D
:1021E000EC800D812B814A8169818BDD67960FB66A
:1021F000F894DEBF0FBECDBFDF91CF910F91EF906E
:102200000895EF920F931F93CF93DF93CDB7DEB76F
:102210006F970FB6F894DEBF0FBECDBF9F8F8E8F26
:102220008E8D9F8D01969E012E5E3F4F4BE0B90132
:102230000E947A088C838C81893009F089C089E1F9
:1022400080932F0180912F0180932E0180912E0188
:102250008093300182E3809331018C81082F10E05C
:10226000CE0142966C813ED2282FCE014296800F3D
:10227000911FFC0120838C818F5F8C83198A89894F
:10228000898387E08B838B818A838989882F90E07B
:102290009E012B5F3F4F820F931FFC0110823CC0B9
:1022A0006B818981882F90E09E012E5E3F4F820FC7
:1022B000931FFC018081482F8A81082E000C990B06
:1022C00027E030E0281B390B81E090E002C0880F46
:1022D000991F2A95E2F78423382FAE014F5E5F4F96
:1022E000CE010596262FBC01832FFFDD8B838A81CB
:1022F000982F91509A83882379F42B81AE014F5EF9
:102300005F4FCE010596BC0181E0EFDD8B8387E056
:102310008A8389818F5F898399818C81981708F4DA
:10232000BFCF8B81982F91509B83882329F4898973
:102330008F5F898B87E08B832B813989CE0105964E
:102340000F2EFAE0EF2EF02D03E0432F6CE0D9DCE6
:102350006F960FB6F894DEBF0FBECDBFDF91CF9161
:102360001F910F91EF900895EF920F931F93CF93CA
:10237000DF93CDB7DEB76F970FB6F894DEBF0FBE11
:10238000CDBF9F8F8E8F8E8D9F8D01969E012E5E6D
:102390003F4F4BE0B9010E947A088C8385E380931C
:1023A0002E0186E180932F0186E18093300185E341
:1023B000809331018C81082F10E0CE0142966C8110
:1023C000B3D1282FCE014296800F911FFC012083AC
:1023D0008C818F5F8C83198A8989898387E08B83BD
:1023E0008B818A838989882F90E09E012B5F3F4FE4
:1023F000820F931FFC0110826EC01A8226C06B816F
:102400008981882F90E09E012E5E3F4F820F931F9F
:10241000FC018081482F8A81282F880F330B81E0AF
:1024200090E002C0880F991F2A95E2F78423382F85
:10243000AE014F5E5F4FCE010596262FBC01832F64
:1024400054DD8B838A818F5F8A838A818430BCF2DA
:102450002B81AE014F5E5F4FCE010596BC0181E03E
:1024600044DD8B8384E08A8326C06B818981882F39
:1024700090E09E012E5E3F4F820F931FFC018081F2
:10248000482F8A81282F880F330B81E090E002C00B
:10249000880F991F2A95E2F78423382FAE014F5EEB
:1024A0005F4FCE010596262FBC01832F1EDD8B8347
:1024B0008A818F5F8A838A818830BCF22B81AE014A
:1024C0004F5E5F4FCE010596BC0181E00EDD8B8330
:1024D00089818F5F898399818C81981708F48DCFCA
:1024E0002B813989CE0105960F2EFAE0EF2EF02DC3
:1024F00003E0432F6AE005DC6F960FB6F894DEBF69
:102500000FBECDBFDF91CF911F910F91EF90089536
:10251000EF920F93CF93DF9300D000D000D0CDB7D0
:10252000DEB79E838D838D819E81019643E09E015F
:102530002F5F3F4FB9010E947A088AE680932E01EF
:1025400084E280932F0181E2809330018AE68093B8
:10255000310180E88C830F2EFFE0EF2EF02D03E099
:1025600026E043E060E0CE010196CBDB26960FB675
:10257000F894DEBF0FBECDBFDF91CF910F91EF90EA
:102580000895A2E0B0E0E7ECF2E10C942A3884E28E
:1025900090E024E230E0F90120812860FC012083F2
:1025A00085E290E025E230E0F9012081277FFC01FF
:1025B000208384E290E024E230E0F90120812B7F47
:1025C000FC01208389E690E029E630E0F9012081D2
:1025D0002061FC01208382EC91E09093C7028093FC
:1025E000C60281E090E09A83898311C029813A81F3
:1025F0004FE3429FC001439F900D11248C599E4F81
:10260000FC01108289819A8101969A83898389814C
:102610009A8102975CF31092BE022296E2E00C943B
:102620004638A0E0B0E0E7E1F3E10C942A3880916D
:10263000C802882329F00E9486050E94780402C0FF
:102640000E947505E2E00C944638A2E0B0E0EBE2AF
:10265000F3E10C942A389A83898389819A810196BF
:10266000FC018081882379F48091C8020E94690866
:102670008091C6029091C70240E265E00E94800707
:102680000E94730709C089819A81019641E068EC34
:1026900072E00E947A08C5DF2296E2E00C94463888
:1026A000A4E0B0E0E6E5F3E10C942A3889837B836B
:1026B0006A834C830FC08C8181508C838C81882FDE
:1026C00090E02A813B81820F931FFC0180819981D8
:1026D000890F89838C81882371F789812496E2E0B0
:1026E0000C944638A4E0B0E0E8E7F3E10C942A3813
:1026F0009B838A836C8319820FC08C8181508C8369
:102700008C81882F90E02A813B81820F931FFC01EE
:1027100080819981892789838C81882371F78981B8
:102720002496E2E00C944638A7E0B0E0EAE9F3E151
:102730000C942A389E838D836F83198285E08A8367
:102740001B822EC08F8181508F838F81882F90E0D4
:102750002D813E81820F931FFC0180818C838C81AF
:1027600082958F709981892789838C8182958F705A
:102770009A81890F8A838091E501882319F08B81E2
:10278000882359F08C81982F9F70898189278983AC
:102790008C818F709A81890F8A838B818F5F8B8365
:1027A0008F81882379F69A818981890F8A838A812A
:1027B000882F90E082959295907F9827807F982728
:1027C000982F8981892B2796E2E00C944638ADE05A
:1027D000B0E0EDEEF3E10C942A389A8789876B8795
:1027E0005D874C8719821A821B8287E08C8387E081
:1027F0008D831092E50189859A85FC018181282FBE
:10280000220F220F220F89859A85FC018381F22FE6
:10281000F81B8F2F895F8E8310923201D0C08B817D
:10282000882F90E029853A85820F931F0496FC013A
:102830008081882F90E02C81022E000C330B02C087
:10284000959587952A95E2F78170992721E0892B44
:1028500009F420E02F838C81982F91509C8388234A
:1028600029F48B818F5F8B8387E08C838B858B34FE
:10287000E9F48D818330D1F48091E501882371F4EE
:102880008F81882311F480E0C4C09091E50181E03C
:10289000992309F080E08093E50191C09091E501D2
:1028A00081E0992309F080E08093E5018D818F3FDD
:1028B00009F03BC08B85863401F58981882F90E033
:1028C0008E5C9E4FFC018081082E82958025082E0B
:1028D00086958695802588878885882F90E0019643
:1028E000959587959C01217033278F81882F90E0E3
:1028F0002817390711F080E08CC08B85853419F0DA
:102900008B858B3429F48F81882311F480E081C07A
:1029100089818F5F89838981882F90E08E5C9E4FAB
:10292000FC01108287E08D834AC08F81882309F4DF
:1029300043C08B858634D9F48981882F90E0298122
:10294000222F30E02E5C3E4FF9012081622F2D8135
:10295000422F220F550B21E030E002C0220F331F1F
:102960004A95E2F7262B8E5C9E4FFC0120838B85D7
:10297000853419F08B858B34F9F48981882F90E0A8
:102980002981222F30E02E5C3E4FF9012081622FF9
:102990002D81022E000C330B47E050E0421B530BFD
:1029A00021E030E002C0220F331F4A95E2F7262BC8
:1029B0008E5C9E4FFC0120838D8181508D838A81A6
:1029C00091E0980F9A839E81891708F428CF9A8105
:1029D0008E81891710F080E01CC08B85853439F416
:1029E0008D818F3F21F489818F5F898307C080911A
:1029F000E501882319F089818F5F89838C859D8506
:102A00002981FC0120838981882311F480E001C0A1
:102A100081E02D96E2E00C944638A4E0B0E0E3E1DA
:102A2000F5E10C942A389A8389837C836B838091A7
:102A3000BB028170882329F48091BB02846080935B
:102A4000BB022496E2E00C944638A8E0B0E0EBE24A
:102A5000F5E10C9426381F82188680912002882385
:102A600009F44EC08091C802882314F584E30E94C3
:102A70000D0589838981805889838981803410F488
:102A8000198212C08981803C18F08FE089830CC0C4
:102A90008981882F90E08055910995958795959526
:102AA000879595958795898389818F590E940E070F
:102AB0008091C802882F90E088709927892BF1F0C7
:102AC00082E70E940E078091C802882F90E08071F3
:102AD0009927892B21F080911F020E940E0786E61C
:102AE0000E940E078091C802882F90E0807199277C
:102AF000892B21F0809120020E940E071092200263
:102B00008091E401882309F43EC385E290E025E248
:102B100030E0F90120812160FC0120838091E301F4
:102B2000282F30E04FE3429FC001439F900D1124B6
:102B30008C599E4F9D838C839E01285F3F4FBE0121
:102B4000695F7F4F8C819D8142E351E00E94E41ECA
:102B50009E01285F3F4FBE01695F7F4F8C819D8141
:102B600042E351E00E94BF1F8C819D81FC01808166
:102B7000833009F0D7C08F81882309F05CC09E01A3
:102B8000285F3F4F8C819D81A90166E420DE882368
:102B900009F451C08885815088878885482F62E371
:102BA00071E086E07DDD8E838885882F90E08E5CE5
:102BB0009E4FFC0190818E81981731F48885843076
:102BC00018F086E48F8337C08E81882F90E09C01B7
:102BD0002F5F3F4F8885882F90E08E5C9E4FFC01D1
:102BE0008081882F90E02817390771F48885843018
:102BF00058F086E48F838885882F90E08E5C9E4F06
:102C00002E81FC01208317C08885482F62E371E084
:102C10008CE046DD282F8885882F90E08E5C9E4FC3
:102C2000FC018081281731F48885843018F084E510
:102C30008F8301C01F8280912D01823021F58F8109
:102C4000882309F59E01285F3F4F8C819D81A90152
:102C500065E4BDDD8823B9F0888581508887888543
:102C6000893089F48885682F82E391E03BDD282F45
:102C70008885882F90E08E5C9E4FFC01808128170C
:102C800011F485E48F839E01285F3F4FBE01695F89
:102C90007F4F8C819D8142E351E0FAD78F81882359
:102CA00009F040C08C819D81FC0120818C819D8137
:102CB000FC0142AD30911F028C819D81C996632F2A
:102CC00007D3282F8C819D81622FDDD69E01285F3E
:102CD0003F4F8C819D81A9016BE479DD8823E1F070
:102CE0008885815088878885682F82E391E01CDD84
:102CF000482F8885282F30E08091E501882F90E0CB
:102D00007901E81AF90AC7018E5C9E4FFC018081A7
:102D1000481711F48BE48F838F81882319F48C81F9
:102D20009D8181D38F81882309F418C18091C802C5
:102D3000882F90E081709927892B09F40FC1809129
:102D4000BB028E7F8093BB028091BB028B7F8093FE
:102D5000BB028091C802882F90E082709927892B4E
:102D600009F07EC09091E6018885981709F04BC064
:102D70001092E6011DC08091E601882F90E08951F4
:102D80009E4FFC0120818091E601882F90E08E5CAF
:102D90009E4FFC018081281731F08091BB028D7F0E
:102DA0008093BB020AC08091E6018F5F8093E601A9
:102DB0009091E60188859817F0F29091E601888558
:102DC000981709F52091C0023091C1024091C202CA
:102DD0005091C3028091190290911A02A0911B0296
:102DE000B0911C0279018A01E81AF90A0A0B1B0B3F
:102DF000D801C7018697A105B10528F48091BB02CF
:102E000081608093BB021092E60115C08091E601BB
:102E1000882F90E02091E601222F30E02E5C3E4F7B
:102E2000F901208189519E4FFC0120838091E601A8
:102E30008F5F8093E6019091E6018885981730F3C3
:102E40008091C0029091C102A091C202B091C302D0
:102E50008093190290931A02A0931B02B0931C0254
:102E60008F81843589F58091C802882F90E0807425
:102E70009927892B49F58885853030F18091340177
:102E80008B34E9F0809134018936C9F080913401A6
:102E90008335A9F080913401843589F08091340123
:102EA0008D3769F0809134018E3749F0809135017A
:102EB000882F90E0807799278037910529F48091B9
:102EC000BB0281608093BB022C813D81CE010796BD
:102ED000B901A3DD8091BB028470882309F43EC050
:102EE0008F810E940E078091E501882319F0888563
:102EF000815088871A820CC08A81882F90E08E5C6E
:102F00009E4FFC0180810E9469088A818F5F8A83BD
:102F100088859A81981780F38091E501882379F05C
:102F20008885882F90E08E5C9E4FFC018081882FE1
:102F300090E08F70992740E361E00E940008809143
:102F4000C802882F90E080729927892B29F084E3AA
:102F50000E940D050E9469080E9473078091C802B3
:102F6000882F90E084709927892B09F4E7C080E7C7
:102F70000E940E078C819D81FC018081882F90E04A
:102F800040E262E00E9480078C819D81FC0187A95C
:102F9000882F90E082959295907F9827807F982740
:102FA00040E265E00E9480078C819D81FC0180AD3C
:102FB000882F90E082959295907F9827807F982720
:102FC00040E265E00E9480078C819D81FC0181AD1B
:102FD000882F90E082959295907F9827807F982700
:102FE00040E265E00E9480078C819D81FC0182ADFA
:102FF000882F90E082959295907F9827807F9827E0
:1030000040E265E00E9480078C819D81FC0183ADD8
:10301000882F90E082959295907F9827807F9827BF
:1030200040E265E00E9480078C819D81FC0184ADB7
:10303000882F90E082959295907F9827807F98279F
:1030400040E265E00E9480078C819D81FC0186A999
:10305000882F90E040E264E00E9480078C819D818F
:10306000FC018281882F90E040E263E00E948007AB
:103070008C819D81FC018181882F90E040E263E09A
:103080000E9480078C819D81FC018381882F90E0C4
:1030900027E030E07901E81AF90AC70140E262E06E
:1030A0000E9480078C819D81FC0185AD96AD829543
:1030B0009295907F9827807F982740E265E00E9454
:1030C000800780E20E940E078091C802882F90E05E
:1030D00080729927892B41F084E30E940D050E949C
:1030E000690880E20E940E078C819D81FC0183812A
:1030F000873051F08C819D81FC01818121E0280F76
:103100008C819D81FC0121831B820FC08B81882FC4
:1031100090E02C813D81820F931F0496FC018081F9
:103120000E9469088B818F5F8B838C819D81FC015C
:1031300091818B81891750F30E9473078C819D8147
:10314000FC0110828C819D81FC0116AA10921E0246
:1031500010921D028091E40181508093E4018091DE
:10316000E3018F5F8093E3018091E301823011F4EA
:103170001092E30185E290E025E230E0F901208140
:103180002E7FFC0120832896E6E00C944238A0E0D4
:10319000B0E0EDECF8E10C942A3810921E02109287
:1031A0001D028FE690E0FC0110828091E201282F41
:1031B00030E04FE3429FC001439F900D11248C5992
:1031C0009E4FFC01108288E890E0FC011182108281
:1031D000E2E00C9446381F920F9200905F000F922D
:1031E00011242F933F934F935F936F937F938F930C
:1031F0009F93AF93BF93EF93FF93CF93DF93CDB79D
:10320000DEB78FE690E0FC0110828091C802882F23
:1032100090E088709927892B19F08EE20E940E07A2
:103220008091E201282F30E04FE3429FC001439F8D
:10323000900D11248C599E4FFC018081833080F0C9
:103240008091E201282F30E04FE3429FC001439F6D
:10325000900D11248B599E4FFC018081823010F417
:1032600096DF22C08091E401813071F48091C80220
:10327000882F90E084709927892B21F084EF91E0CA
:103280000E94510784DF10C08091E4018F5F80931A
:10329000E4018091E2018F5F8093E2018091E2017D
:1032A000823011F41092E201DF91CF91FF91EF9102
:1032B000BF91AF919F918F917F916F915F914F914E
:1032C0003F912F910F9000925F000F901F901895E3
:1032D000ACE0B0E0EEE6F9E10C942A3899878887F3
:1032E0006A874B872C878CE0898388859985FC01C8
:1032F0008181282F30E08B85882F90E0A901481B21
:10330000590BCA019B838A8388859985FC0180813A
:10331000282F30E08A85882F90E0A901481B590B9F
:10332000CA019D838C8388859985FC018181282F22
:1033300030E088859985FC018081882F90E0280FF6
:10334000391F8B85482F50E08A85882F90E0840FA5
:10335000951FA901481B590BCA019F838E83898140
:10336000282F30E08A819B8182179307B4F58981E9
:10337000882F90E022273327281B390B8A819B81D5
:103380002817390754F58981282F30E08C819D81D9
:103390008217930714F58981882F90E0222733271D
:1033A000281B390B8C819D8128173907B4F489813A
:1033B000282F30E08E819F818217930774F48981D2
:1033C000882F90E022273327281B390B8E819F817D
:1033D0002817390714F481E001C080E02C96E2E060
:1033E0000C944638A2E0B0E0E8EFF9E10C942A38FA
:1033F00089836A838981853280F089818C3368F47E
:103400008A818A3050F08A81873238F499818A81A2
:10341000891718F481E090E002C080E090E02296E5
:10342000E2E00C944638A2E0B0E0E9E1FAE10C9465
:103430002A389A83898389819A81FC01238131E02A
:10344000320F89819A81FC013383273071F489819D
:103450009A81FC01138289819A81FC0181812FEF7D
:10346000280F89819A81FC0121832296E2E00C9445
:1034700046381F920F9200905F000F9211242F93F5
:103480003F934F935F936F937F938F939F93AF93EC
:10349000BF93EF93FF93CF93DF9300D01F92CDB7ED
:1034A000DEB78091C902882321F082E08093C902AF
:1034B000FBC184E890E0FC01808191819295829526
:1034C0008F7089279F70892789838091E201282F37
:1034D00030E04FE3429FC001439F900D11248C596F
:1034E0009E4F9B838A8380912D01823079F48A815B
:1034F0009B81FC018081843049F489818E3208F4FB
:10350000D3C189818F3410F042DECEC180912D016C
:10351000823079F48A819B81FC018081853049F475
:103520008981873108F4C0C18981883210F02FDE8B
:10353000BBC183E290E0FC018081882F90E0847021
:103540009927892B09F580912D018230C9F48A8150
:103550009B81FC018081843051F080912D0182306B
:1035600079F48A819B81FC018081853049F48A81CC
:103570009B8161E088D284E890E0FC011182108296
:10358000898180931F0290C180911F029981F92F38
:10359000F81B8F2F8093200284E890E0FC011182B9
:1035A000108280912D01823089F48A819B81FC01F7
:1035B0008081843031F08A819B81FC01808185305B
:1035C00029F48A819B8160E05ED26EC186E390E03F
:1035D00022E0FC0120838A819B81FC018081882F6D
:1035E00090E0009721F0029709F44FC0FFC08A8154
:1035F0009B81FC0117AA8A819B81FC0110AE8A8104
:103600009B81FC0111AE8A819B81FC0112AE8A81F3
:103610009B81FC0113AE8A819B81FC0114AE8A81DF
:103620009B81FC0116AE15AE8A819B81FC0116AA16
:103630008A819B81FC0111828A819B8127E0FC01A8
:1036400023838A819B81FC01148280911F0285362D
:1036500020F480912002853608F026C120911F02B7
:103660008A819B81FC0127AB209120028A819B816A
:10367000FC0120AF8A819B8121E0FC0122838A81A9
:103680009B8122E0FC0120830FC18A819B81FC0188
:1036900020814091200230911F028A819B81C79630
:1036A000632F16DE882351F120911F028A819B81AE
:1036B000FC0187A9622F2DD1282F8A819B81FC01D3
:1036C00027AB209120028A819B81FC0180AD622F73
:1036D00020D1282F8A819B81FC0120AF8A819B8188
:1036E000FC0116AE15AE8A819B81FC01828121E02E
:1036F000280F8A819B81FC01228377C08A819B816C
:10370000FC018281843008F46BC088E890E020EAF4
:103710003FE0FC01318320838A819B81FC0182810F
:103720008C30B8F08A819B81FC0187A9282F30E07A
:103730008A819B81FC0180AD882F90E0820F931FCE
:103740008536910534F08A819B8124E0FC01208339
:1037500028C08A819B81FC0182818A30E8F08A81BD
:103760009B81FC0187A9282F30E08A819B81FC0185
:1037700080AD882F90E0820F931F85976CF48A812B
:103780009B8125E0FC01208388E890E028EE33E06F
:10379000FC013183208305C08A819B8123E0FC01E9
:1037A000208320911F028A819B81FC0121AF2091FF
:1037B00020028A819B81FC0122AF8A819B81FC01CE
:1037C00011828A819B8127E0FC0123838A819B816E
:1037D000FC0114828FE690E022E0FC01208305C00A
:1037E0008A819B81FC01108202CF5EC08A819B810D
:1037F000FC0120814091200230911F028A819B812F
:10380000C996632F65DD8823F9F08A819B8161E089
:103810003AD120911F028A819B81FC0181AD622FE8
:1038200078D0282F8A819B81FC0121AF2091200232
:103830008A819B81FC0182AD622F6BD0282F8A8107
:103840009B81FC0122AF2FC08A819B81FC012081DA
:103850004091200230911F028A819B81C796632F7D
:1038600037DD8823F9F08A819B8160E00CD12091BB
:103870001F028A819B81FC0187A9622F4AD0282FD1
:103880008A819B81FC0127AB209120028A819B8148
:10389000FC0180AD622F3DD0282F8A819B81FC01E5
:1038A00020AF01C074DC00000F900F900F90DF91EB
:1038B000CF91FF91EF91BF91AF919F918F917F91A8
:1038C0006F915F914F913F912F910F9000925F0008
:1038D0000F901F901895A1E0B0E0E1E7FCE10C9497
:1038E0002A388091E201282F30E04FE3429FC00147
:1038F000439F900D11248C599E4FFC01908181E0D3
:10390000992309F480E0898389812196E2E00C946F
:103910004638A2E0B0E0EFE8FCE10C942A38898355
:103920006A838981282F30E08981882F90E0280FD1
:10393000391F8981882F90E0280F391F8A81882FAD
:1039400090E0820F931F99230CF403969595879529
:10395000959587952296E2E00C944638EF920F9366
:103960001F93CF93DF93CDB7DEB72A970FB6F894A6
:10397000DEBF0FBECDBF8A836B835D834C833F83E5
:103980002E8319870887EA8619822BC08A858823A7
:1039900099F08981882F90E02C813D81820F931FBF
:1039A0002981222F30E04C815D81240F351FF901E0
:1039B00020812095FC0120838981882F90E02E8131
:1039C0003F81820F931F2981222F30E04C815D813E
:1039D000240F351FF9012081FC01208389818F5F2D
:1039E000898399818A81981788F28B818730D1F1F8
:1039F0008A85882311F18981882F90E02C813D816F
:103A0000820F931F2981222F30E04C815D81240F8A
:103A1000351FF9012081622F60952B81222F30E024
:103A2000A9014F5F5F4F2FEF30E002C0220F331F1D
:103A30004A95E2F72623FC0120838981882F90E0B4
:103A40002E813F81820F931F2981222F30E04C81EC
:103A50005D81240F351FF9012081FC0120838981BC
:103A60008F5F8983888599852981FC0120832A9627
:103A70000FB6F894DEBF0FBECDBFDF91CF911F917F
:103A80000F91EF900895A3E0B0E0E9E4FDE10C941C
:103A90002A389A8389836B8389819A81FC01818189
:103AA000823310F074DB60C08B81882359F18981E7
:103AB0009A81FC018181882F90E029813A81F90166
:103AC0002181222F30E049815A81240F351F2C5F3C
:103AD0003F4FF9012081622F29813A81F901238129
:103AE000422F50E021E030E002C0220F331F4A9500
:103AF000E2F7262B422F29813A81820F931F0496E9
:103B0000FC01408389819A81FC0123813FEF320FC0
:103B100089819A81FC0133832223E1F489819A818E
:103B200027E0FC01238389819A81FC01818121E0C6
:103B3000280F89819A81FC01218389819A81FC0166
:103B40008181882F90E029813A81820F931F04960A
:103B5000FC01108289819A81FC0186A921E0280F4D
:103B600089819A81FC0126AB2396E2E00C944638C9
:103B7000A3E0B0E0EEEBFDE10C942A389B838A834E
:103B80008A819B81FC01208131818A819B81FC019A
:103B90008481882F90E0820F931FFC018081882F01
:103BA00090E02A813B81F9012581222F30E002C07B
:103BB000959587952A95E2F78170992721E0892BC1
:103BC00009F420E029838A819B81FC0125813FEF54
:103BD000320F8A819B81FC013583222379F48A810B
:103BE0009B81FC01848121E0280F8A819B81FC015B
:103BF00024838A819B8127E0FC0125838981239688
:103C0000E2E00C944638A6E0B0E0E9E0FEE10C9476
:103C10002A389C838B836D834E8319821A822FC02E
:103C20008B819C81A5DF882339F18E818823B1F0B7
:103C30008D81282F30E08A81882F90E0A901481BD0
:103C4000590BCA019C012150310981E090E002C06A
:103C5000880F991F2A95E2F7982F0BC08A81282F89
:103C600030E081E090E002C0880F991F2A95E2F7CA
:103C7000982F8981892B89838A818F5F8A839A8192
:103C80008D81981768F289812696E2E00C94463877
:103C9000A1E1B0E0EEE4FEE10C9428389B878A872E
:103CA0007D876C875F874E87398B288B8C859D85B8
:103CB000FC018081882309F083C0188687E089870A
:103CC0008A859B8504969D838C831B828A859B8530
:103CD000FC018181843031F48A859B85FC018381DC
:103CE000813009F06DC0198228C08981882341F490
:103CF000CE01049641E067E086DF80688A8306C0D3
:103D0000CE01049641E068E07EDF8A838A81982FA5
:103D100092959F708B81980F8A818F70890F8B830A
:103D20008981882F90E02E853F85820F931F2A81FD
:103D3000FC01208389818F5F898389818430A8F287
:103D40008981882F90E02E853F858901080F191FF2
:103D5000CE01049641E067E056DF880FF8018083CA
:103D60008981882F90E02E853F85820F931FFC016B
:103D70008081982F92959F708B81890F8F708B8394
:103D800089818F5F8983888999892981FC012083B2
:103D90008B8182958F70882341F48E859F85FC01ED
:103DA000808182958F708A3031F08C859D8524E7E3
:103DB000FC01208305C08C859D8524E7FC012083C0
:103DC0006196E4E00C944438A3E1B0E0EAEEFEE151
:103DD0000C9428389D878C877F876E87598B488BFA
:103DE0003B8B2A8B80912D01823009F0C4C08E85D7
:103DF0009F85FC018081882309F0BDC01A8687E079
:103E00008B878C859D8504969F838E838C859D856D
:103E1000FC018081853009F0AEC08C859D85FC0158
:103E20008181882F90E09C01220F331F220F331FC6
:103E3000220F331F8C859D85FC018381882F90E0A4
:103E400047E050E0BA01681B790BCB01820F931F4A
:103E50008039910509F08FC089E889838FE090EF60
:103E60009B838A831C8221C0CE01069641E068E0D4
:103E7000CADE8D838D81882F90E02A813B81820F5D
:103E8000931F9B838A838C81882F90E028893989AE
:103E9000820F931F3D8129812327FC0120838D817F
:103EA0008C5D89838C818F5F8C838C818F30E0F275
:103EB0008C81882F90E0288939898901080F191F82
:103EC000CE01069641E068E09EDEF80180838C8199
:103ED000882F90E028893989820F931FFC01808107
:103EE000882F90E02A813B81820F931F9B838A83D6
:103EF0004C8181E0840F8C83842F90E0288939895C
:103F0000820F931F242F30E048895989240F351FD1
:103F1000F90120812095FC0120838A899B892C81CD
:103F2000FC012083CE01069641E068E06CDE882F1C
:103F300090E0982F88279C018A819B81821B930B9C
:103F40009B838A83CE01069641E068E05CDE882F81
:103F500090E02A813B81A901481B590BCA019B8330
:103F60008A838A819B81892B09F005C08E859F8574
:103F700023E5FC0120836396E4E00C944438A3E13C
:103F8000B0E0E5ECFFE10C9428389D878C877F87B3
:103F90006E87598B488B3B8B2A8B80912D01823009
:103FA00009F0B5C08E859F85FC018081882309F0CA
:103FB000AEC08C859D85FC018081843009F0A7C04E
:103FC0001A8687E08B878C859D8504969F838E83D8
:103FD0008C859D85FC018181882F90E09C01220FBA
:103FE000331F220F331F220F331F8C859D85FC0149
:103FF0008381882F90E047E050E0BA01681B790B7D
:10400000CB01820F931F853491050CF480C0198277
:104010001A821A8247C08A81882F90E028893989BC
:104020008901080F191FCE01069640E068E0EBDD1C
:10403000F80180838A81882F90E028893989820F4E
:10404000931FFC018081082E82958025082E86957D
:10405000869580258B838B81882F90E0019695959E
:1040600087958C0101701127CE01069681DD882F7E
:1040700090E00817190709F04AC0CE01069678DDCE
:10408000882309F044C08A81882F90E028893989E3
:10409000820F931FFC0180819981892789838A81FE
:1040A0008F5F8A838A81863008F4B5CF8A899B899D
:1040B0002A81FC012083CE01069640E068E0A3DD62
:1040C0008C838C81082E82958025082E8695869576
:1040D00080258D838D81882F90E001969595879519
:1040E0008C0101701127CE01069642DD882F90E0E9
:1040F0000817190709F00BC099818C81981709F0EE
:1041000006C08E859F8528E4FC012083000063960D
:10411000E4E00C944438A5E1B0E0E1E9F0E20C946D
:104120002A388D8B8DE390E02DE330E0F90120817A
:104130002B7FFC01208384E290E024E230E0F9014F
:1041400020812061FC0120831092210285E290E011
:1041500025E230E0F90120812061FC0120838EE11D
:1041600090E00E94DD0685E290E025E230E0F90172
:1041700020812F7EFC0120838EE190E00E94DD06ED
:1041800085E290E025E230E0F90120812061FC0128
:1041900020838DE290E00E94DD0680E30E945405BA
:1041A00084E690E00E94DD068D89882319F08D89D0
:1041B000843008F0A2C0198231C08981882F90E034
:1041C00085509E4F9C838B838B819C81FC018491C5
:1041D0008D838D81813408F024C08981882F90E0FF
:1041E000019685509E4F9F838E838E819F81FC0117
:1041F0008491888728858981882F90E085509E4FFB
:104200009A87898789859A85FC0184918B878B851C
:10421000622F0E94310589818E5F898389818C3369
:1042200060F21A825BC08D89882F90E0AC0141500A
:1042300051098A81882F90E064E1649F9001659F15
:10424000300D1124820F931F875D9D4F9D878C87B2
:104250008C859D85FC0184918E878E85813408F044
:1042600041C08D89882F90E0AC01415051098A816D
:10427000882F90E0019664E1649F9001659F300D66
:104280001124820F931F875D9D4F988B8F878F8599
:104290009889FC018491898B79898D89882F90E098
:1042A000AC01415051098A81882F90E064E1649FFC
:1042B0009001659F300D1124820F931F875D9D4FE4
:1042C0009B8B8A8B8A899B89FC0184918C8B8C893E
:1042D000672F0E9431058A818E5F8A838A818431AB
:1042E00008F4A1CF83E30E9454058D8980932102B5
:1042F0000E94990C81E00E94F9066596E2E00C9418
:104300004638A3E0B0E0E7E8F1E20C942A38809167
:104310002102882309F45CC083E290E0FC018081E3
:10432000882F90E084709927892BD9F186E30E9429
:1043300054058BE30E940D058F778A838A81882339
:1043400079F185E290E025E230E0F90120812F7ECD
:10435000FC0120838FEF0E9496028EE40E940E07DC
:10436000809121020E94690819820AC080E00E949F
:1043700096028B838B810E94690889818F5F898374
:1043800099818A81981790F385E290E025E230E0E8
:10439000F90120812061FC0120830E94730718C06D
:1043A00017C085E30E940D05882F90E081309105AC
:1043B00011F0419769F48AE30E94540586E30E9454
:1043C00054058DE30E94540584E30E9454050000C7
:1043D0002396E2E00C944638A3E0B0E0E2EFF1E28D
:1043E0000C942A389B838A8319828A819B81019647
:1043F000FC0180818237F1F48A819B810296FC0165
:104400008081882349F08A819B8102969E012F5FDB
:104410003F4FB9010E945D098981882319F0898184
:10442000843028F085E692E00E94510719C0898106
:1044300072DE10C08A819B810196FC0180818837E1
:1044400049F480912102882319F086E30E945405E3
:1044500010922102809121020E9469080E94730734
:104460002396E2E00C944638AEE0B0E0EAE3F2E2F4
:104470000C942A388DE390E02DE330E0F90120819F
:104480002B7FFC01208384E290E024E230E0F901FC
:1044900020812061FC01208385E290E025E230E06C
:1044A000F90120812061FC0120838EE190E00E94CF
:1044B000DD0685E290E025E230E0F90120812F7EE3
:1044C000FC0120838EE190E00E94DD0685E290E011
:1044D00025E230E0F90120812061FC0120838DE29A
:1044E00090E00E94DD0680E30E94540584E690E09F
:1044F0000E94DD06198221C08981882F90E00196F3
:104500008F579D4F9C838B838B819C81FC01849171
:104510008D832D818981882F90E08F579D4F9F83B8
:104520008E838E819F81FC01849188878885622F8C
:104530000E94310589818E5F898389818233E0F20F
:1045400080912302882331F11A8221C08A81882F29
:1045500090E001968D549D4F9A87898789859A8529
:10456000FC0184918B872B858A81882F90E08D5464
:104570009D4F9D878C878C859D85FC0184918E87BE
:104580008E85622F0E9431058A818E5F8A838A819F
:104590008631E0F283E30E94540584E00E94F9062C
:1045A00084E30E94540585E30E940D058D30C1F718
:1045B0002E96E2E00C944638A0E0B0E0E2EEF2E2A3
:1045C0000C942A388AE30E94540586E30E9454051D
:1045D0008DE30E94540584E30E945405E2E00C94AC
:1045E0004638A9E3B0E0E7EFF2E20C942838809176
:1045F0002202882309F4FFC083E290E0FC0180815D
:10460000882F90E084709927892B09F4DBC08FE311
:104610000E940D058F7788878885823310F0CCDF64
:10462000EAC085E290E025E230E0F90120812F7EAA
:10463000FC0120838FEF0E9496021B8213C08B81A6
:10464000882F90E08C010F5F1F4F80E00E94960240
:10465000282FCE010896800F911FFC0120838B81AB
:104660008F5F8B8398858B81891748F380E00E9448
:1046700096028E8380E00E94960285E290E025E219
:1046800030E0F90120812061FC01208384E30E9455
:10469000540585E30E940D058D30C1F78985898316
:1046A0008985982F86E78927898782E08A8329C0B0
:1046B0008A81882F90E09E01285F3F4F820F931FD1
:1046C000FC0180818F838A81882F90E02981245288
:1046D000622F2A81222F30E0AE01485F5F4F240F06
:1046E000351FF90120812627422F9E01285F3F4F69
:1046F000820F931FFC0140838F8189838A818F5FA2
:104700008A8398858A81891798F28A81882F90E018
:104710002A81222F30E0AE01485F5F4F240F351F02
:10472000F90130812A85432F42279E01285F3F4FA0
:10473000820F931FFC0140838091C802882F90E074
:1047400080719927892BC9F081E60E940E071C828F
:104750000FC08C81882F90E09E01285F3F4F820F11
:10476000931FFC0180810E940E078C818F5F8C83D8
:1047700098858C81981768F725C081E40E940E0700
:104780001D820FC08D81882F90E09E01285F3F4FD2
:10479000820F931FFC0180810E9469088D818F5FC9
:1047A0008D8398858D81981768F78091C802882F2E
:1047B00090E080729927892B19F08E810E946908F8
:1047C0000E94730785E30E940D05882F90E08130D9
:1047D000910529F0419769F48AE30E94540586E324
:1047E0000E9454058DE30E94540584E30E94540501
:1047F00000000E94E805E996E4E00C944438A0E447
:10480000B0E0E5E0F4E20C9426389E01215C3F4FD5
:10481000F90191838083CE01CF96FC018081918143
:1048200001969E012B5F3F4F41E3B9010E947A0838
:104830008B838B81882F90E09C01215031098D81E1
:10484000882F90E02817390709F015C180912202BE
:10485000882321F409DE83E00E94F9068F818C838E
:104860008E81982F86E789278E8382E0898327C0EF
:104870008981882F90E02981222F30E02150310951
:10488000AE014B5F5F4F240F351FF9012081245289
:10489000622F2981222F30E0AE014B5F5F4F240F42
:1048A000351FF90120812627422F9E012B5F3F4FA4
:1048B000820F931FFC01408389818F5F89839D81D3
:1048C00089818917A8F28981882F90E02981222F78
:1048D00030E0AE014B5F5F4F240F351FF90130818F
:1048E0002C81432F42279E012B5F3F4F820F931F46
:1048F000FC014083CE01C7960E94350685E30E94E5
:10490000540585E30E940D05833109F44BC0CE01A7
:10491000CB960E9435062BAD3CAD4DAD5EAD8FA95B
:1049200098ADA9ADBAAD82179307A407B507A8F44F
:104930002BAD3CAD4DAD5EAD8FA998ADA9ADBAAD77
:1049400079018A01E81AF90A0A0B1B0BD801C70181
:104950008D3B9105A105B10500F52BAD3CAD4DADED
:104960005EAD8FA998ADA9ADBAAD281739074A0732
:104970005B07C0F48FA998ADA9ADBAAD9C01AD019C
:1049800024543F4F4F4F5F4F8BAD9CADADADBEAD8F
:10499000281739074A075B0728F489EC92E00E9440
:1049A00051074CC085E30E940D05833109F0A6CF65
:1049B0008C81882F90E080719927892B61F0198272
:1049C00006C088E70E94F90689818F5F8983898103
:1049D0008330B8F303C08AE00E94F90685E290E0D4
:1049E00025E230E0F90120812F7EFC0120838FE752
:1049F0000E9496021A820FC08A81882F90E09E0141
:104A00002B5F3F4F820F931FFC0180810E94960213
:104A10008A818F5F8A839A818B81981768F385E2F8
:104A200090E025E230E0F90120812061FC01208343
:104A3000000085E30E940D058331D9F385E30E94D0
:104A40000D05863149F48BE30E94540586E30E94EC
:104A500054058DE30E94540580912202882349F079
:104A600084E30E94540585E30E940D058D30C1F753
:104A700002C00E941113C05CDF4FE6E00C94423884
:104A8000A2E0B0E0E6E4F5E20C942A389A83898348
:104A900089819A810196FC018081823739F0898170
:104AA0009A810196FC018081823591F489819A81F5
:104AB0000196FC018081823521F481E080932302FC
:104AC00002C010922302D0DC81E0809322020EC04B
:104AD00089819A810196FC018081833729F489813B
:104AE0009A8101968CDE02C0109222022296E2E0A8
:104AF0000C944638ABE0B0E0E0E8F5E20C942A38DC
:104B00008DE390E02DE330E0F90120812B7FFC0163
:104B1000208384E290E024E230E0F90120812061EA
:104B2000FC01208385E290E025E230E0F90120815C
:104B30002061FC0120838EE190E00E94DD0685E289
:104B400090E025E230E0F90120812F7EFC012083F6
:104B50008EE190E00E94DD0685E290E025E230E003
:104B6000F90120812061FC0120838DE290E00E9408
:104B7000DD0680E30E94540584E690E00E94DD0695
:104B8000198231C08981882F90E08D529D4F9C837E
:104B90008B838B819C81FC0184918D838D818134F9
:104BA00008F024C08981882F90E001968D529D4F96
:104BB0009F838E838E819F81FC01849188872885C5
:104BC0008981882F90E08D529D4F9A8789878985AA
:104BD0009A85FC0184918B878B85622F0E94310519
:104BE00089818E5F898389818C3360F283E30E949F
:104BF000540584E00E94F9068FEF8A8304C08AE09E
:104C000090E00E94DD068A819FEF980F9A838823A7
:104C100021F084E30E945405F2CF81E080932402C6
:104C20000E94990C2B96E2E00C944638A2E0B0E08A
:104C3000ECE1F6E20C942A389A838983809125026C
:104C4000882341F480912602882321F48091270251
:104C5000882399F189819A810396FC0180818033B0
:104C600071F089819A810396FC018081803439F04A
:104C700089819A810396FC0180818035F1F48981D4
:104C80009A810796FC019081809125029817A9F4DA
:104C900089819A810896FC0190818091260298175B
:104CA00061F489819A810996FC01908180912702A3
:104CB000981719F489819A8184D2809128028823D7
:104CC00041F480912902882321F480912A028823CB
:104CD00059F189819A81FC0180818B3029F5898184
:104CE0009A810396FC0180818034F1F489819A8154
:104CF0000796FC019081809128029817A9F4898178
:104D00009A810896FC01908180912902981761F49C
:104D100089819A810996FC01908180912A029817D5
:104D200019F489819A814DD200002296E2E00C9418
:104D30004638A2E2B0E0EFE9F6E20C942838809120
:104D40002402882309F4A2C083E290E0FC01808160
:104D5000882F90E084709927892B09F489C08FE30C
:104D60000E940D058F778D838D818E3110F08DE13E
:104D70008D8385E290E025E230E0F90120812F7EED
:104D8000FC0120838FEF0E949602198213C0898153
:104D9000882F90E08C010F5F1F4F80E00E949602E9
:104DA000282FCE010596800F911FFC012083898159
:104DB0008F5F89839D818981891748F380E00E94F4
:104DC00096028C8380E00E94960285E290E025E2C4
:104DD00030E0F90120812061FC012083CE0105969D
:104DE00025DF8091C802882F90E080719927892B58
:104DF000C9F08AE70E940E071A820FC08A81882FA5
:104E000090E09E012B5F3F4F820F931FFC0180813A
:104E10000E940E078A818F5F8A839D818A819817FD
:104E200068F734C08AE50E940E071B820FC08B8191
:104E3000882F90E09E012B5F3F4F820F931FFC0154
:104E400080810E9469088B818F5F8B839D818B811C
:104E5000981768F78091C802882F90E08072992790
:104E6000892B19F08C810E9469080E9473070EC07B
:104E700085E30E940D05813149F48AE30E945405BF
:104E800086E30E94540584E30E945405A296E4E060
:104E90000C944438A1E2B0E0E0E5F7E20C942A3843
:104EA00099A388A388A199A101969E012E5F3F4FE7
:104EB0004DE1B9010E947A0889838981882F90E0A9
:104EC0009C01215031098A81882F90E028173907E9
:104ED00029F08FE093E00E94510705C0CE010296B1
:104EE00061E070E004D0A196E2E00C944638A1E1C4
:104EF000B0E0EDE7F7E20C942A389D878C877F8736
:104F00006E878C859D85FC0180818F5F8E838E8569
:104F10009F85892B19F024E630E002C020E030E0C4
:104F20008E81882F90E0880F991F880F991F880F16
:104F3000991F4AE050E0BA010E94F837CB01820F76
:104F4000931F092E000CAA0BBB0B8F839887A98790
:104F5000BA878091C6029091C7029C0140E050E060
:104F60008F819885A985BA85281739074A075B0775
:104F700028F488E193E00E9451071FC12091C602E6
:104F80003091C7028F819885A901481B590BCA012E
:104F90009093C7028093C60280912402882309F46B
:104FA000A9DD85E30E940D058D30C1F08AE50E94E0
:104FB0000E0785E40E940E0782E50E940E0782E537
:104FC0000E940E0781E30E940E0785E30E940D05F3
:104FD0000E9469080E9473078DDDEFC080912B024B
:104FE00090912C02A0912D02B0912E02892B8A2B38
:104FF0008B2BA1F103C081E00E94F9062091C00231
:105000003091C1024091C2025091C30280912B02A3
:1050100090912C02A0912D02B0912E0228173907F1
:105020004A075B0741F380912B0290912C02A091DB
:105030002D02B0912E029C01AD012F5F3F4F4F4FCB
:105040005F4F8091C0029091C102A091C202B091C5
:10505000C302281739074A075B0769F20E944F0409
:1050600085E30E940D058331C1F08AE50E940E0799
:1050700085E40E940E0782E50E940E0782E50E94E9
:105080000E0782E30E940E0785E30E940D050E9431
:1050900069080E9473072EDD90C08E859F85892B3D
:1050A00079F01A82198208C084E60E94F906898183
:1050B0009A8101969A83898389819A810A97A4F3B8
:1050C00085E290E025E230E0F90120812F7EFC01AD
:1050D00020838FE70E9496021B820EC08B81882F4F
:1050E00090E02C853D85820F931FFC0180810E94FA
:1050F00096028B818F5F8B839B818E81981770F3D3
:1051000085E290E025E230E0F90120812061FC0198
:1051100020831C8217C085E30E940D058D8385E3E3
:105120000E940D058B879D818B85981709F007C01C
:105130008D818D3009F409C081E00E94F9068C81CF
:105140008F5F8C838C818A3F30F385E30E940D054D
:105150008D30E9F08AE50E940E0785E40E940E0773
:1051600082E50E940E0782E50E940E0783E30E94FB
:105170000E0785E30E940D050E9469088D810E943B
:1051800069088C810E9469080E947307B3DC8091D2
:105190002402882311F40E9411138091C00290917F
:1051A000C102A091C202B091C30280932B029093DE
:1051B0002C02A0932D02B0932E026196E2E00C9493
:1051C0004638A3E1B0E0E7EEF8E20C942A389B8B76
:1051D0008A8B8BE08E838A899B89FC0181818F83F6
:1051E000188682E089871A8219821AC089819A8179
:1051F000049629813A81295F3F4FA9012A893B8979
:10520000240F351FF90140819E012A5F3F4F820F15
:10521000931FFC01408389819A8101969A83898337
:1052200089819A81039714F31C821B821AC08B8197
:105230009C8107962B813C812C5F3F4FA9012A89D5
:105240003B89240F351FF90140819E012A5F3F4FA2
:10525000820F931FFC0140838B819C8101969C836C
:105260008B838B819C81039714F3188A198A84E1BC
:105270000E94F906CE01069660E070E038DE8AE50D
:105280000E940E071D820FC08D81882F90E09E0125
:105290002A5F3F4F820F931FFC0180810E946908A3
:1052A0008D818F5F8D838D81282F30E08E81882FB7
:1052B00090E00196281739073CF38091C802882FA7
:1052C00090E080729927892B19F080E00E9469088C
:1052D0000E9473076396E2E00C944638A1E2B0E0C6
:1052E000E4E7F9E20C942A3899A388A388A199A14C
:1052F0000196FC018081823711F4FCDB5CC088A13F
:1053000099A10196FC018081833739F088A199A188
:105310000196FC018081863661F588A199A10296EB
:105320009E012E5F3F4F4DE1B9010E947A088983AB
:105330008981882F90E09C01215031098A81882F32
:1053400090E02817390729F08FE193E00E94510778
:1053500032C088A199A10196FC01908181E0933728
:1053600009F080E0282F30E0CE010296B901BFDDC0
:1053700022C088A199A10196FC018081813649F45F
:1053800088A199A1029643E065E272E00E947A0842
:1053900012C088A199A10196FC018081873749F448
:1053A00088A199A1029643E068E272E00E947A081F
:1053B00002C010922402A196E2E00C944638AAE0C2
:1053C000B0E0E5EEF9E20C942A388DE390E02DE3AD
:1053D00030E0F90120812B7FFC01208384E290E002
:1053E00024E230E0F90120812061FC01208385E284
:1053F00090E025E230E0F90120812061FC0120836A
:105400008EE190E00E94DD0685E290E025E230E04A
:10541000F90120812F7EFC0120838EE190E00E9423
:10542000DD0685E290E025E230E0F901208120618F
:10543000FC0120838DE290E00E94DD0680E30E9463
:10544000540584E690E00E94DD06198231C089810E
:10545000882F90E0885D9C4F9B838A838A819B8103
:10546000FC0184918C838C81813408F024C0898173
:10547000882F90E00196885D9C4F9E838D838D815F
:105480009E81FC0184918F832F818981882F90E0F8
:10549000885D9C4F9987888788859985FC018491D0
:1054A0008A878A85622F0E94310589818E5F898370
:1054B00089818C3360F283E30E94540581E00E946D
:1054C000F9060E94990C2A96E2E00C944638A2E272
:1054D000B0E0EDE6FAE20C94283880912F028823A0
:1054E00009F4B2C083E290E0FC018081882F90E053
:1054F00084709927892B09F48FC08FE30E940D05D2
:105500008F778D838D818E3110F08DE18D8385E2D3
:1055100090E025E230E0F90120812F7EFC0120831C
:105520008FEF0E949602198213C08981882F90E024
:105530008C010F5F1F4F80E00E949602282FCE0142
:105540000596800F911FFC01208389818F5F8983DD
:105550009D818981891748F380E00E9496028C839F
:1055600085E290E025E230E0F90120812061FC0134
:1055700020838AE30E94540586E30E9454058DE34C
:105580000E94540584E30E9454058091C802882F2C
:1055900090E080719927892BC9F087E70E940E0758
:1055A0001A820FC08A81882F90E09E012B5F3F4FA7
:1055B000820F931FFC0180810E940E078A818F5FFA
:1055C0008A839D818A81981768F73EC087E50E948B
:1055D0000E071B820FC08B81882F90E09E012B5FEE
:1055E0003F4F820F931FFC0180810E9469088B81CD
:1055F0008F5F8B839D818B81981768F78091C8029C
:10560000882F90E080729927892B19F08C810E9455
:1056100069080E94730718C085E30E940D05882F52
:1056200090E08130910519F0419709F00DC08AE3AF
:105630000E94540586E30E9454058DE30E945405A0
:1056400084E30E9454050000A296E4E00C944438E0
:10565000ADE2B0E0EEE2FBE20C942A389DA78CA705
:105660008CA59DA501969E01225F3F4F4DE1B9019A
:105670000E947A088C838C81882F90E09C012150B5
:1056800031098E85882F90E02817390709F091C0DD
:1056900080912F02882321F492DE83E00E94F90694
:1056A00086E30E945405198231C08981882F90E0D9
:1056B000885D9C4F9E838D838D819E81FC018491AA
:1056C0008F838F81813408F024C08981882F90E0F6
:1056D0000196885D9C4F9987888788859985FC010C
:1056E00084918A872A858981882F90E0885D9C4FE4
:1056F0009C878B878B859C85FC0184918D878D850C
:10570000622F0E94310589818E5F898389818C3364
:1057100060F28BE30E94540585E30E9454051A82CF
:1057200006C084E60E94F9068A818F5F8A838A8197
:105730008530B8F385E290E025E230E0F901208180
:105740002F7EFC0120838FE70E9496021B820FC0F0
:105750008B81882F90E09E01225F3F4F820F931F25
:10576000FC0180810E9496028B818F5F8B839B81DD
:105770008C81981768F385E290E025E230E0F9012A
:1057800020812061FC01208303C085E00E94F9068E
:1057900085E30E940D058130C1F786E30E94540520
:1057A00080912F02882319F00E94780402C00E9481
:1057B0001113AD96E2E00C944638A2E0B0E0E3EEBF
:1057C000FBE20C942A389A83898389819A81019615
:1057D000FC018081823729F4F2DD81E080932F0281
:1057E00009C089819A810196FC018081833711F07B
:1057F00010922F022296E2E00C944638A7E0B0E027
:10580000E4E0FCE20C942A388DE390E02DE330E0F4
:10581000F90120812B7FFC01208384E290E024E2C7
:1058200030E0F90120812061FC01208385E290E0D5
:1058300025E230E0F90120812061FC0120838EE126
:1058400090E00E94DD0685E290E025E230E0F9017B
:1058500020812F7EFC0120838EE190E00E94DD06F6
:1058600085E290E025E230E0F90120812061FC0131
:1058700020838DE290E00E94DD0680E30E945405C3
:1058800084E690E00E94DD0685E290E025E230E0CB
:10589000F90120812F7EFC01208380E40E94960282
:1058A000198212C08981882F90E08C599C4F9E8369
:1058B0008D838D819E81FC0184918F838F810E94D5
:1058C000960289818F5F89838981893258F385E2C5
:1058D00090E025E230E0F90120812061FC01208385
:1058E0008BE290E09B838A8385E290E025E230E0C2
:1058F000F90120812F7EFC0120838EE70E94960211
:105900001C820EC08A819B819C012F5F3F4F3B838D
:105910002A830E94E6090E9496028C818F5F8C8305
:105920008C81883078F385E290E025E230E0F9015F
:1059300020812061FC01208383E30E94540581E0E3
:105940000E94F90681E08093BE020E94990C27967E
:10595000E2E00C944638A0E0B0E0E1EBFCE20C940D
:105960002A3885E290E025E230E0F90120812860C4
:10597000FC01208380910401909105010E94DD06C5
:1059800085E290E025E230E0F9012081277FFC01EB
:10599000208380910401909105010E94DD06E2E0E0
:1059A0000C944638A0E0B0E0E8EDFCE20C942A3814
:1059B00085E290E025E230E0F9012081277FFC01BB
:1059C000208380910401909105010E94DD0685E20B
:1059D00090E025E230E0F90120812860FC0120837D
:1059E00080910401909105010E94DD06E2E00C9493
:1059F0004638A9E0B0E0EFEFFCE20C942A38988733
:105A00008F83698719821DC085E290E025E230E02E
:105A1000F90120812860FC01208386EF99E00E9433
:105A2000DD0685E290E025E230E0F9012081277F64
:105A3000FC01208386EF99E00E94DD0689818F5F5B
:105A40008983998189859817FCF285E290E025E2A7
:105A500030E0F90120812860FC0120838CEF92E185
:105A60000E94DD0685E290E025E230E0F901208128
:105A7000277FFC01208380910401909105010E9401
:105A8000DD061A822CC080E890E09C838B838A819B
:105A9000082E000C990B2F813885820F931FFC0173
:105AA00080818E831D8215C08E81282F30E08B81EE
:105AB0009C8182239323892B11F44DDF01C072DF77
:105AC0008B819C81969587959C838B838D818F5F3D
:105AD0008D838D81883044F38A818F5F8A838A81A8
