:1000000093C10000ADC10000ABC100000C949B1C6B
:10001000A7C10000A5C10000A3C10000A1C100004C
:100020009FC100009DC100009BC1000099C100005C
:1000300097C100000C94A01A93C1000091C1000068
:1000400083C500008DC100008BC1000089C1000084
:100050000C946D370C94293783C1000081C10000D6
:100060007FC100007DC100007BC1000079C100009C
:1000700077C1000075C1000073C1000042CC0B4382
:10008000440446E41069483641452C47F5104D3D7F
:10009000114BF01155C412599A2F52740A544C0E38
:1000A00056090C57D30A58611365670B6631304CFB
:1000B000C2066C980B74FC0578D80300000000039E
:1000C0000F1E2627000000030F1E25363867000389
:1000D0000F256740605000030F275188838100037C
:1000E0000F2750C8C3C200270000000000000067AF
:1000F000000000000000005000000000000000812F
:1001000000000000000000C20000000000000D2EF2
:100110002D07D3913D04320000060021656A57C4C3
:100120003023B900070018146C070090876BF8564D
:1001300011E92A001F4100072E050DD391FF080584
:1001400000000C0021656A2D3B1322F862073F185E
:100150001D1CC700B0876BF8B611EA2A001F4100CA
:10016000203D2000202F2000504C4C300D0A005024
:100170004C4C310D0A00203D2000202F200056203D
:10018000312E32302E303620612D63756C6677202B
:100190004275696C643A2070726976617465206298
:1001A00075696C642028756E6B6E6F776E29200000
:1001B0006136343443554C34333300613634344380
:1001C000554C383638002028462D42616E643A205E
:1001D0003433334D487A29002028462D42616E641D
:1001E0003A203836384D487A29004C4F56460D0A89
:1001F00000424F56460D0A000B060D210E650F6A90
:100200001700181819161B431C6825002611000139
:10021000024605D4042D0302070008021089115C70
:1002200012061556FF000302FF0000000000000048
:10023000000000000000000000000302108811828E
:10024000FF000000000000000000000000000307A5
:100250001088110B0D210E6B0FD01553FF000000FD
:100260000000737065636966792076616C6964204B
:100270006D6F6465206E756D6265720D0A00000712
:10028000022E030D04E905CA070C0B060D210E65AD
:100290000F6A10C811931203153417331818191662
:1002A0001B4321562500261129592C812D353EC38B
:1002B0004552523A4343410D0A000D2E2D07D3916A
:1002C0003D04320000060010ABA5550A3023B900EA
:1002D000070018146C070090876BF85611E92A0084
:1002E0001F41000D2E2D07D3913D04320000060062
:1002F00010B07155E43023B900070018146C0700E2
:1003000090876BF85611E92A001F41003F20280012
:1003100020697320756E6B6E6F776E29205573653B
:10032000206F6E65206F660011241FBECFEFD0E1F5
:10033000DEBFCDBF11E0A0E0B1E0EAE7F5E702C023
:1003400005900D92A033B107D9F723E0A0E3B1E007
:1003500001C01D92A73EB207E1F703D00C94BB3A4F
:100360004FCEA0E0B0E0E7EBF1E00C9434390FB6EB
:10037000F894A89580916000886180936000109245
:1003800060000FBE84E290E024E230E0F9012081B9
:100390002160FC01208385E290E025E230E0F90154
:1003A00020812160FC0120830E94C3380E944C0BF5
:1003B00087E490E029EFFC01208385E490E024E0CD
:1003C000FC01208384E490E022E0FC0120838EE69F
:1003D00090E022E0FC01208380E890E0FC011082A4
:1003E00081E890E02AE0FC01208384E590E024E5A8
:1003F00030E0F9012081277FFC01208387E090E035
:1004000088709927892B11F088E201C088E097E075
:100410009770892B982F88E10FB6F894A895809350
:1004200060000FBE9093600089E190E80E94B037B1
:100430000E94390E0E94FD1289E698E39093D00243
:100440008093CF0281E0809334010E94E60C85E224
:1004500090E025E230E0F90120812E7FFC0120832D
:1004600078940E94D9370E940016F1D30E949D30E3
:100470000E94FE290E94B828F4CFA1E0B0E0E3E496
:10048000F2E00C94343989838EE490E02981FC01F8
:10049000208300008DE490E0FC0180818823D4F764
:1004A0008EE490E0FC0180812196E2E00C945039CA
:1004B000A6E0B0E0EEE5F2E00C9434399E838D8343
:1004C0008DE390E02DE330E0F90120812B7FFC01EA
:1004D000208384E290E024E230E0F9012081206171
:1004E000FC01208385E290E025E230E0F9012081E3
:1004F0002061FC0120838EE190E0ABD485E290E0A6
:1005000025E230E0F90120812F7EFC0120838EE17D
:1005100090E09FD485E290E025E230E0F90120816F
:100520002061FC0120838DE290E093D480E361D2CE
:1005300084E690E08ED485E290E025E230E0F90197
:1005400020812F7EFC01208380E497DF19820CC07C
:100550008D819E819C012F5F3F4F3E832D8382D7EB
:100560008CDF89818F5F89838981893288F385E275
:1005700090E025E230E0F90120812061FC01208338
:100580008BE290E09B838A8385E290E025E230E075
:10059000F90120812F7EFC0120838EE76EDF1C8213
:1005A0000CC08A819B819C012F5F3F4F3B832A8334
:1005B00059D763DF8C818F5F8C838C81883088F37F
:1005C00085E290E025E230E0F90120812061FC0124
:1005D000208383E30ED281E058D42696E2E00C9487
:1005E0005039A9E0B0E0E7EFF2E00C9434398987A4
:1005F0008BE290E09A83898389858A3010F088E0C5
:1006000089878985882F90E0880F991F880F991F07
:10061000880F991F82549F4F9D838C831B821BC020
:100620008B81882F90E02C813D81820F931F9F83C7
:100630008E838E819F81FC01849188874885898182
:100640009A819C012F5F3F4F3A832983642FEED616
:100650008B818F5F8B838B81883010F38985853008
:1006600028F089858A3010F481E101C087E1682F84
:1006700084E290E0DBD62996E2E00C945039AAE0BF
:10068000B0E0E5E4F3E00C94343982E090E09A8342
:1006900089831B8219C08B81882F90E0825F9E4FD7
:1006A0009E838D838D819E81FC0184918F834F81F8
:1006B00089819A819C012F5F3F4F3A832983642F60
:1006C000B5D68B818F5F8B838B81893220F387E353
:1006D00090E09A8389831C8219C08C81882F90E0D6
:1006E000895C9E4F9987888788859985FC018491CC
:1006F0008A874A8589819A819C012F5F3F4F3A837F
:100700002983642F93D68C818F5F8C838C8189326F
:1007100020F385E291E0FC018081882F90E08170D8
:100720009927892B09F03EC08FE090E09A83898356
:1007300089819A819C012F5F3F4F3A83298360E131
:1007400075D689819A819C012F5F3F4F3A83298317
:1007500060EB6CD689819A819C012F5F3F4F3A8371
:10076000298361E763D684E490E09A838983898151
:100770009A819C012F5F3F4F3A83298360E156D6CF
:1007800089819A819C012F5F3F4F3A83298360EBD7
:100790004DD689819A819C012F5F3F4F3A832983EF
:1007A00061E744D688E01DDF2A96E2E00C945039D8
:1007B000A3E0B0E0EEEDF3E00C9434399B838A8340
:1007C00082E089838A819B81019641E09E012F5FAF
:1007D0003F4FB901DBD4898104DF82E090E068DE1D
:1007E0002396E2E00C945039A1E0B0E0EAEFF3E0A8
:1007F0000C9434398FEF89838DE390E02DE330E062
:10080000F90120812B7FFC01208386E3F2D003C015
:100810008AE090E01ED389819FEF980F9983882307
:1008200041F085E3E6D0882F90E080779927809784
:1008300079F72196E2E00C945039A1E0B0E0E3E2D0
:10084000F4E00C9434398FEF898303C08AE090E0A0
:1008500000D389819FEF980F9983882341F084E327
:10086000C8D0882F90E080779927409779F78DE35B
:1008700090E02DE330E0F90120812460FC01208329
:100880002196E2E00C945039A6E0B0E0EAE4F4E00E
:100890000C9434399E838D838D819E810196FC0159
:1008A0008081873719F58D819E8102969E012C5F8C
:1008B0003F4F41E0B9016AD4892BC1F08D819E81FF
:1008C00004969E012D5F3F4F41E0B9015FD4892B13
:1008D00069F09B818C81692F69D083E38AD0ADDF79
:1008E0008C8143D48B8141D44AD338C08D819E8181
:1008F00001969E012D5F3F4F41E0B90147D4892BFE
:1009000069F18B818939A1F419820EC089812AD0BD
:100910002CD48981882F90E087709927079709F454
:100920002ED389818F5F89838981803378F316C0C4
:100930008B8118D08A8383E4BDD28B8116D480E664
:1009400091E0FBD28A8111D484E691E0F6D28A81CB
:10095000882F90E040E262E01FD311D32696E2E0B8
:100960000C945039A2E0B0E0E8EBF4E00C94343998
:100970008A8385E290E025E230E0F90120812F7E34
:10098000FC0120838A81806C78DD80E076DD8983BC
:1009900085E290E025E230E0F90120812061FC0150
:1009A000208389812296E2E00C945039A2E0B0E0E5
:1009B000ECEDF4E00C94343989836A8385E290E0AD
:1009C00025E230E0F90120812F7EFC01208389811E
:1009D000806453DD8A8151DD85E290E025E230E0DC
:1009E000F90120812061FC0120832296E2E00C9431
:1009F0005039A2E0B0E0EFEFF4E00C9434398A8390
:100A000085E290E025E230E0F90120812F7EFC01B3
:100A100020838A8132DD898385E290E025E230E01F
:100A2000F90120812061FC01208389812296E2E086
:100A30000C945039A0E0B0E0E0E2F5E00C943439D9
:100A400086E3D7DF1092D10210924202E2E00C94CA
:100A50005039A0E0B0E0EFE2F5E00C94343982E0E8
:100A600090E026DD81E08093D10210924202E2E024
:100A70000C945039A0E0B0E0E0E4F5E00C94343997
:100A800085E270DF8F3311F080E01FC086E3B1DFB5
:100A900080913001882321F488E691E04ED202C093
:100AA0008DE3A7DF83E3A5DF64E081E011D085E279
:100AB00059DF8F3311F080E008C080913001882326
:100AC00019F48FE691E039D281E0E2E00C945039DC
:100AD000A3E0B0E0EEE6F5E00C9434398A836B8352
:100AE0008FEF898385E33EDF982F8A81981711F471
:100AF00080E00BC08B81882F90E0ABD189819FEF84
:100B0000980F9983882371F781E02396E2E00C9493
:100B10005039A0E0B0E0EFE8F5E00C94343985E31B
:100B200021DF8D3071F485E21DDF8F3351F4A2DFB8
:100B3000000084E35EDF882F90E08077992740975C
:100B4000C1F7E2E00C9450391F920F9200905F00C1
:100B50000F9211248F939F93AF93BF93CF93DF9303
:100B6000CDB7DEB78091D3029091D402A091D50287
:100B7000B091D6020196A11DB11D8093D30290932E
:100B8000D402A093D502B093D6028091D2028F5F97
:100B90008093D202DF91CF91BF91AF919F918F91BE
:100BA0000F9000925F000F901F901895A3E0B0E0A7
:100BB000ECEDF5E00C9434399B838A838FE590E06B
:100BC000FC0180818983F8948091D3029091D402B2
:100BD000A091D502B091D6022A813B81F901808390
:100BE0009183A283B3838FE590E02981FC01208368
:100BF0002396E2E00C945039A8E0B0E0E2E0F6E0A1
:100C00000C94343998878F83CE010396CFDFCE01C1
:100C100003969A83898389819A810396FC01808156
:100C2000A4D289819A810296FC0180819ED2898119
:100C30009A810196FC01808198D289819A81FC0178
:100C4000808193D29CD12896E2E00C945039A0E0A8
:100C5000B0E0EDE2F6E00C9434398091D30290914B
:100C6000D402A091D502B091D602982F8091310183
:100C7000981709F440C08091D3029091D402A091BA
:100C8000D502B091D60280933101A8958091D2020D
:100C90008D3708F430C01092D20280910001882F65
:100CA00090E082709927892B51F085E290E025E24F
:100CB00030E0F901308121E02327FC01208380917D
:100CC000D9029091DA028438934048F48091D90295
:100CD0009091DA0201969093DA028093D902809182
:100CE00032018F5F80933201809132018C3309F0A1
:100CF00002C010923201E2E00C945039A0E0B0E062
:100D0000E4E8F6E00C94343985E290E025E230E046
:100D1000F90120812860FC01208388EE93E099D0BE
:100D2000E2E00C945039A1E0B0E0E9E9F6E00C947F
:100D30003439898385E290E025E230E0F9012081B1
:100D4000277FFC0120838981882319F088EE93E0B6
:100D500002C080ED97E07DD085E290E025E230E0B2
:100D6000F90120812860FC0120838981882319F002
:100D700080ED97E002C088EE93E06BD02196E2E030
:100D80000C945039A6E0B0E0E8ECF6E00C9434396D
:100D90009E838D8384E089838D819E816EE070E0E7
:100DA0000E949A3A81508C838C818C3009F04DC01E
:100DB00085E290E025E230E0F90120812160FC012C
:100DC00020838091D102882309F443DE0DDD96DF74
:100DD00081E090E09B838A8312C08A819B812D8170
:100DE0003E81820F931FFC01908181E0913309F0D5
:100DF00080E099DF8A819B8101969B838A838A8127
:100E00009B810D9754F385E290E025E230E0F901F3
:100E10002081277FFC01208383E237D089818150A4
:100E200089838981882399F68091DB02882311F0D8
:100E300004DD02C086E3DDDD85E290E025E230E0FE
:100E4000F90120812E7FFC0120832696E2E00C949C
:100E50005039A4E0B0E0EFE2F7E00C9434399C8321
:100E60008B838B819C81880F991F9C838B838B81C3
:100E70009C819A83898389819A810197F1F79A836A
:100E800089832496E2E00C945039A1E0B0E0EBE4D1
:100E9000F7E00C943439898303C088EE93E0D9DFFE
:100EA00089819FEF980F99838823B9F72196E2E013
:100EB0000C945039A1E0B0E0E0E6F7E00C9434394E
:100EC000898380913401882F90E081709927892B44
:100ED00099F08091DF028E3750F08091DF028823F5
:100EE0005CF089818D3019F089818A3029F48981FB
:100EF000682F8DED92E0F0D52196E2E00C94503908
:100F0000A2E0B0E0E6E8F7E00C9434399A838983F4
:100F10000AC089819A819C012F5F3F4F3A832983C0
:100F2000FC018081C7DF89819A81FC01808188234F
:100F300081F72296E2E00C945039A6E0B0E0E3EAB3
:100F4000F7E00C9434399E838D8307C08C81B2DF27
:100F50008D819E8101969E838D838D819E819A8352
:100F6000898389819A81FC0184918B838B818C8315
:100F70008C81882359F72696E2E00C945039A0E042
:100F8000B0E0E5ECF7E00C9434398DE093DF8AE0D3
:100F900091DFE2E00C945039ABE0B0E0E2EDF7E035
:100FA0000C943439998788876A874B8786E08983D0
:100FB0008981815089838981882F90E09E012E5FED
:100FC0003F4F820F931FFC011082898181508983DA
:100FD0008981E82FF0E0488559859A01ADECBCEC99
:100FE0000E9415399695879596958795969587953C
:100FF000880F991F9C01220F331F220F331F820F6E
:10100000931F9A01281B390BC901805D282FCE013F
:1010100002968E0F9F1FFC012083888599859C0175
:10102000ADECBCEC0E941539969587959695879501
:1010300096958795998788878A8581508A8788853C
:101040009985892B21F08981882309F0BECF0EC0B4
:101050008981815089838981882F90E04B859E0109
:101060002E5F3F4F820F931FFC0140838A85815082
:101070008A878A8588231CF08981882349F789819A
:10108000882F90E09E012E5F3F4F820F931F38DF25
:101090002B96E2E00C945039ABE0B0E0E2E5F8E0EA
:1010A0000C943439998788876A874B8785E08983D0
:1010B0008981815089838981882F90E09E012D5FED
:1010C0003F4F820F931FFC01108288858F708A83A7
:1010D0008981815089838981882F90E02A812A30F3
:1010E00020F42A81205D422F03C02A81295C422FEF
:1010F0009E012D5F3F4F820F931FFC014083888527
:101100009985929582958F7089279F7089279987F5
:1011100088878A8581508A8788859985892BA9F651
:101120000EC08981815089838981882F90E04B8509
:101130009E012D5F3F4F820F931FFC0140838A85E4
:1011400081508A878A8588231CF08981882349F702
:101150008981882F90E09E012D5F3F4F820F931F62
:10116000CFDE2B96E2E00C945039A1E0B0E0EBEB3F
:10117000F8E00C94343989838981882F90E040E32A
:1011800062E08ADF2196E2E00C945039AAE0B0E0F8
:10119000ECECF8E00C9434399F838E837987688770
:1011A0004A87888599859A8389831C821D824EC0CF
:1011B0008B81813618F08B8180528B838B818033B9
:1011C00050F08B818A3338F48B818053982F8C8137
:1011D000892B8C8315C08B81813450F08B818734AF
:1011E00038F48B818753982F8C81892B8C8308C08E
:1011F0008B81803221F08B818A3309F035C026C083
:101200008D8191E0980F9D838823E1F089819A81F7
:101210009C012F5F3F4F3A8329832C81FC0120835F
:101220008A8581508A878A85882349F429813A8171
:1012300088859985A901481B590BCA011DC01D82CB
:101240001C8204C08C818295807F8C838E819F81DB
:101250009C012F5F3F4F3F832E83FC0180818B8356
:101260008B81882309F0A4CF29813A8188859985CB
:10127000A901481B590BCA012A96E2E00C94503987
:10128000AAE0B0E0E6E4F9E00C9434399F838E8361
:10129000798768874A87888599859A8389831B829D
:1012A0001C822EC01C828D81803380F08D818A3318
:1012B00068F48B81880F982F990F990F980F8D8163
:1012C000890F80538B8381E08C831AC08D8180329B
:1012D00021F08D818E3209F020C08A85882381F02B
:1012E00089819A819C012F5F3F4F3A8329832B810B
:1012F000FC0120831B828B818C838A8581508A87A5
:101300008E819F819C012F5F3F4F3F832E83FC0185
:1013100080818D838D81882329F68C81882369F0D3
:101320008A85882351F089819A819C012F5F3F4FE4
:101330003A8329832B81FC01208329813A81888586
:101340009985A901481B590BCA012A96E2E00C9421
:101350005039A7E0B0E0EFEAF9E00C9434399D830E
:101360008C837F836E831A82198219C08B818033AC
:10137000B0F08B818A3398F489819A81880F991F04
:101380009C01220F331F220F331F280F391F8B811F
:10139000882F90E0820F931FC0979A8389838C8156
:1013A0009D819C012F5F3F4F3D832C83FC018081F9
:1013B0008B838B818823D1F68E819F8129813A810D
:1013C000FC01318320832796E2E00C945039A4E09D
:1013D000B0E0EDEEF9E00C9434398A837C836B83C2
:1013E0008A8182958F70898389818A3020F48981EE
:1013F00020E3280F03C0898127E3280F8B819C817C
:10140000FC0120838A818F7089838B819C81019666
:1014100029812A3018F42981205D02C02981295CA4
:10142000FC0120832496E2E00C945039A3E0B0E064
:10143000ECE1FAE00C9434399A8389836B838981D7
:101440009A816B810E94AD3A8FE390E0FC0180812C
:10145000882F90E082709927892BB1F72396E2E0DC
:101460000C945039A2E0B0E0E8E3FAE00C9434398F
:101470009A83898389819A810E94A53A2296E2E023
:101480000C945039A3E0B0E0E8E4FAE00C9434396D
:101490009A8389836B830EC089819A819C012F5F17
:1014A0003F4F3A832983DEDF60DE8B81882311F092
:1014B0008AE300DD8B819FEF980F9B83882361F780
:1014C0002396E2E00C945039A2E0B0E0EAE6FAE0BC
:1014D0000C9434399A83898389819A8166E0D2DFBA
:1014E0002296E2E00C945039A7E0B0E0EAE7FAE097
:1014F0000C9434399F838E838E819F810196FC01E9
:1015000080818D3421F48AEF97E0DEDF47C08E8141
:101510009F810196FC018081803529F460E18AED8C
:1015200097E0B0DF3BC01D828D818C838E819F81CF
:1015300001969E012C5F3F4F42E0B90127DE8B836D
:101540008B81823069F48C81882F90E0382F22279C
:101550008D81882F90E0822B932B9A83898305C0FD
:101560008C81882F90E09A83898389819A817ADFA0
:101570008B8382E59FDC89819A8140E364E08CDD86
:1015800086E791E0DADC8B81F0DD8AE791E0D5DC5B
:101590008B81882F90E040E262E0FEDCF0DC279651
:1015A000E2E00C945039ABE0B0E0E9EDFAE00C94E5
:1015B00034399B878A871B828A859B8501969E0189
:1015C0002C5F3F4F43E0B901E1DD8B838B8182309B
:1015D00008F45EC08B81823031F48C81882F90E0DA
:1015E0009A8389830CC08C81882F90E0382F222722
:1015F0008D81882F90E0822B932B9A8389838B8116
:10160000882F90E001979E012C5F3F4F820F931F20
:10161000FC01208189819A81622F08DF89819A816A
:101620000F9741F089819A81409721F089819A81B1
:10163000419709F4CBD18B81882F90E0880F991FB7
:1016400001962A853B85820F931F9B878A871AC044
:101650009E012C5F3F4F8A859B8541E0B90196DD55
:10166000892B09F415C02C8189819A8101969A836E
:10167000898389819A81622FD9DE8A859B8502962A
:101680009B878A878A859B85FC018081882301F757
:101690002B96E2E00C945039A0E0B0E0E2E5FBE0EC
:1016A0000C94343980E090E0DDDE813029F481E073
:1016B00090E0D8DE843119F080E090E008D084E337
:1016C00090E0D0DE80930001E2E00C945039A2E07B
:1016D000B0E0EDE6FBE00C9434399A83898361E055
:1016E00080E090E0A3DE64E181E090E09FDE0E9474
:1016F0003F036CD160E080E690E098DE60E081E638
:1017000090E094DE60E083E390E090DE62E084E3CA
:1017100090E08CDE89819A810196FC018081883776
:1017200019F080E090E038D02296E2E00C94503935
:10173000A2E0B0E0EEE9FBE00C9434399A838983AF
:1017400089819A81019641E060E071E01FDD80911E
:101750000001882F90E081709927892B51F085E254
:1017600090E025E230E0F90120812160FC01208336
:1017700009C085E290E025E230E0F90120812E7F6A
:10178000FC01208380910001682F84E390E04EDE0D
:101790002296E2E00C945039A3E0B0E0E2EDFBE0E9
:1017A0000C9434399B838A8319828A819B81892B8B
:1017B00049F08A819B81019641E09E012F5F3F4F56
:1017C000B901E4DC89818F3F09F4FFCF8981882347
:1017D00021F061E083E390E029DE8EE690E0FC01F9
:1017E0001082F89480E090E088709927892B11F09E
:1017F00088E201C088E090E09770892B982F88E1FB
:101800000FB6F894A895809360000FBE9093600087
:10181000FFCFA2E0B0E0EFE0FCE00C9434399A8313
:1018200089838EE791E089DB85E291E0FC0180818C
:10183000882F90E081709927892B21F480EB91E02B
:101840007CDB03C08BEB91E078DB8091350181304C
:1018500021F486EC91E071DB03C088ED91E06DDB53
:101860008EDB2296E2E00C945039A9E0B0E0EBE385
:10187000FCE00C9434399F838E83798768871A82C1
:10188000198265C088858B838B81813110F080E15E
:101890008B8389819A8140E364E0FEDB8AE30ADB83
:1018A00080E208DB1C8216C08C81882F90E02E819C
:1018B0003F81820F931FFC01808157DC8C81882F30
:1018C00090E081709927892B11F080E2F3DA8C8106
:1018D0008F5F8C839C818B81981730F380E2EADAEA
:1018E0001D8226C08D81882F90E02E813F81820F3E
:1018F000931FFC0180818032B0F08D81882F90E0B1
:101900002E813F81820F931FFC0180818F3758F415
:101910008D81882F90E02E813F81820F931FFC01E3
:101920008081C8DA02C08EE2C5DA8D818F5F8D8337
:101930009D818B819817B0F28E819F8140969F8305
:101940008E831DDB89819A8140969A8389832981C0
:101950003A81888599852817390708F493CF0FDBDA
:101960002996E2E00C945039A7E0B0E0EAEBFCE005
:101970000C9434399F838E831D828D818C839E01CC
:101980002C5F3F4F8E819F8142E0B901FFDB8B834B
:101990008B81823069F48C81882F90E0382F222748
:1019A0008D81882F90E0822B932B9A83898305C0A9
:1019B0008C81882F90E09A83898389819A8152DD76
:1019C0008B838B812796E2E00C945039A9E0B0E03C
:1019D000ECEEFCE00C94343986E291E0C5DF882F10
:1019E00090E0A0E0B0E089839A83AB83BC8389E276
:1019F00091E0BADF882F90E09E838D838CE291E0A6
:101A0000B3DF8F8389819A81AB81BC81AC0133279D
:101A100022278D819E81982F8827CC01A0E0B0E0FD
:101A2000280F391F4A1F5B1F8F81882F90E0A0E08D
:101A3000B0E0280F391F4A1F5B1FDA01C901880F68
:101A4000991FAA1FBB1F820F931FA41FB51F880FCA
:101A5000991FAA1FBB1F880F991FAA1FBB1F820FA8
:101A6000931FA41FB51F880F991FAA1FBB1FCD016D
:101A7000AA27BB279987888788859985853F9140C4
:101A800020F082E08093350103C081E0809335012E
:101A90002996E2E00C945039A2E0B0E0E2E5FDE0E6
:101AA0000C9434399A83898389819A81FC0112824A
:101AB00089819A81FC01228189819A81FC0120839C
:101AC00089819A81FC01208189819A81FC0121838D
:101AD0002296E2E00C945039A4E0B0E0E2E7FDE0A9
:101AE0000C9434399B838A836C838FE590E0FC01EE
:101AF00080818983F8948A819B81FC01828188237B
:101B000034F48FE590E02981FC0120832DC08A8187
:101B10009B81FC01828121E0280F8A819B81FC014D
:101B200022838A819B81FC01208131E0320F8A81EE
:101B30009B81FC013083822F90E04C812A813B8184
:101B4000820F931F0396FC0140838A819B81FC01D5
:101B50008081803821F48A819B81FC0110828FE58D
:101B600090E02981FC0120832496E2E00C94503916
:101B7000A4E0B0E0EEEBFDE00C9434399C838B8361
:101B80008FE590E0FC0180818983F8948B819C81B2
:101B9000FC018281882339F48FE590E02981FC01E2
:101BA000208380E02EC08B819C81FC0182812FEFFD
:101BB000280F8B819C81FC0122838B819C81FC01FD
:101BC000218131E0320F8B819C81FC013183822F96
:101BD00090E02B813C81820F931F0396FC01808152
:101BE0008A838B819C81FC018181803821F48B81E7
:101BF0009C81FC0111828FE590E02981FC0120830A
:101C00008A812496E2E00C945039A3E0B0E0EBE046
:101C1000FEE00C9434399B838A838091DB02882F09
:101C200090E080749927892B09F41FC084E542D97C
:101C300019820DC08981882F90E02A813B81820F13
:101C4000931FFC01808191DA89818F5F898389816B
:101C5000853080F38091DB02882F90E08072992795
:101C6000892B11F08AEF81DA8AD92396E2E00C946D
:101C70005039A0E0B0E0EFE3FEE00C94343985E3A6
:101C800090E0F0DB8093D70286E390E0EBDB80937B
:101C9000D802E2E00C945039A9E0B0E0E2E5FEE0C1
:101CA0000C943439998788878885998501969E0197
:101CB0002E5F3F4F45E0B90169DA8983898184301D
:101CC000D0F48A818130A9F48981833061F48B81D9
:101CD000682F85E390E0AADB8C81682F86E390E093
:101CE000A5DBC7DF08C08091D7023FDA8091D80218
:101CF0003CDA45D900002996E2E00C945039A1E085
:101D0000B0E0E5E8FEE00C943439898385E290E0A8
:101D100025E230E0F90120812860FC0120838981DF
:101D2000882359F080913801882F90E08295929510
:101D3000907F9827807F98270AC080913601882F4E
:101D400090E082959295907F9827807F982781D800
:101D500085E290E025E230E0F9012081277FFC0157
:101D600020838981882359F080913901882F90E060
:101D700082959295907F9827807F98270AC08091BE
:101D80003701882F90E082959295907F9827807FE9
:101D900098275FD82196E2E00C945039EF920F9388
:101DA000CF93DF93CDB7DEB72A970FB6F894DEBF97
:101DB0000FBECDBF9D838C836E834F832887098799
:101DC000EA868F81882F90E00296982F8985989FC8
:101DD000802D11248B838B81282F880F330B8091CA
:101DE000D9029091DA028217930720F48AEE91E0EB
:101DF000A4D8ACC02091D9023091DA028B81082E90
:101E0000000C990BA901481B590BCA019093DA02E7
:101E10008093D90285E290E025E230E0F90120814B
:101E20002160FC0120838091D102882311F40E945B
:101E300029050E94F403198205C080E060DF8981D2
:101E40008F5F89838981282F880F330B8E81882F9C
:101E500090E0281739078CF38E81882311F081E0F8
:101E60004EDF1A8224C087E089831BC08A81082E36
:101E7000000C990B2C813D81820F931FFC01808106
:101E8000482F8981282F880F330B81E090E002C012
:101E9000880F991F2A95E2F7842331DF89818150C9
:101EA00089838981882314F78A818F5F8A838A8155
:101EB000282F880F330B8F81882F90E02817390740
:101EC00094F287E089831BC08A81082E000C990B4D
:101ED0002C813D81820F931FFC018081482F8981D5
:101EE000282F880F330B81E090E002C0880F991FE4
:101EF0002A95E2F7842303DF8981815089838981D0
:101F0000282F880F330B8885882F90E0821793073E
:101F1000DCF28A850E9445078985815089878985F9
:101F2000882309F088CF8091DB02882319F00E9472
:101F30001D0403C086E30E94F90485E290E025E2D7
:101F400030E0F90120812E7FFC0120832A960FB614
:101F5000F894DEBF0FBECDBFDF91CF910F91EF9010
:101F60000895A7E0B0E0E7EBFFE00C9434398A83F2
:101F70007C836B835E834D832F838D819E81FC01E7
:101F8000808189838A818823F1F08981882F90E07C
:101F90002B813C81820F931F2981222F30E04B81BE
:101FA0005C81240F351FF9012081622F2F81422F80
:101FB00050E021E030E002C0220F331F4A95E2F7E3
:101FC000262BFC0120838F819FEF980F9F8388230E
:101FD000B1F489818F5F898389818C3028F48D8168
:101FE0009E812981FC01208387E08F838981882F4E
:101FF00090E02B813C81820F931FFC0110828F8126
:10200000882F90E02796E2E00C945039EF920F93DE
:102010001F93CF93DF93CDB7DEB766970FB6F894D3
:10202000DEBF0FBECDBF9B8B8A8B6C8B4D8B2E8BF7
:102030008C89882F90E02A893B898901080F191F14
:102040008A899B894C89BC018D8966D3F80180837C
:102050008C898F5F8C8B198A8989898387E08B8330
:102060008B818A838989882F90E09E012B5F3F4F67
:10207000820F931FFC01108252C06B818981882FCF
:1020800090E02A893B89820F931FFC018081482FB1
:102090008A81282F880F330B81E090E002C0880FDF
:1020A000991F2A95E2F78423382FAE014F5E5F4FC8
:1020B000CE010596262FBC01832F53DF8B838A81A7
:1020C000982F91509A83882351F56B818981882FAD
:1020D00090E02A893B89820F931FFC018081082EA2
:1020E00082958025082E8695869580258C838C8107
:1020F000882F90E001969595879581709927382FC4
:10210000AE014F5E5F4FCE010596262FBC01832F97
:1021100028DF8B8387E08A8389818F5F8983998118
:102120008C89981708F4A9CF8B81982F91509B83A5
:10213000882329F489898F5F898B87E08B8389E1E4
:1021400080933701809137018093360185E2809337
:10215000390180913901809338012B813989CE0171
:1021600005960F2EFAE0EF2EF02D0E89432F6CE02E
:1021700015DE66960FB6F894DEBF0FBECDBFDF91B9
:10218000CF911F910F91EF900895A1E1B0E0EBEC9A
:10219000F0E10C9434399F878E87688B498B8E854C
:1021A0009F8501969E012E5F3F4F4BE0B9010E9433
:1021B000C6088983CE01029629894889698126DF6C
:1021C0006196E2E00C945039A2E0B0E0EAEEF0E172
:1021D0000C9434399A83898389819A8143E066E03B
:1021E000D4DF2296E2E00C945039EF920F93CF9314
:1021F000DF93CDB7DEB767970FB6F894DEBF0FBE9B
:10220000CDBF9F8B8E8B8E899F8901969E012A5F01
:102210003F4F40E1B9010E94C6088E8189838F81BA
:1022200082958F708A838F818F708B83888582954A
:102230008F708C8388858F708D838985809336011C
:102240008A85809337018B85809338018C858093B4
:102250003901CE0106960796EC800D812B814A81CB
:1022600069819CDD67960FB6F894DEBF0FBECDBFC7
:10227000DF91CF910F91EF900895EF920F931F93FD
:10228000CF93DF93CDB7DEB76F970FB6F894DEBF6D
:102290000FBECDBF9F8F8E8F8E8D9F8D01969E011D
:1022A0002E5E3F4F4BE0B9010E94C6088C838C81A3
:1022B000893009F089C089E1809337018091370125
:1022C00080933601809136018093380182E38093B8
:1022D00039018C81082F10E0CE0142966C813ED2EC
:1022E000282FCE014296800F911FFC0120838C8104
:1022F0008F5F8C83198A8989898387E08B838B819F
:102300008A838989882F90E09E012B5F3F4F820F3F
:10231000931FFC0110823CC06B818981882F90E063
:102320009E012E5E3F4F820F931FFC018081482F3C
:102330008A81082E000C990B27E030E0281B390B0E
:1023400081E090E002C0880F991F2A95E2F784236C
:10235000382FAE014F5E5F4FCE010596262FBC0190
:10236000832FFFDD8B838A81982F91509A83882356
:1023700079F42B81AE014F5E5F4FCE010596BC0113
:1023800081E0EFDD8B8387E08A8389818F5F89839A
:1023900099818C81981708F4BFCF8B81982F915029
:1023A0009B83882329F489898F5F898B87E08B83BE
:1023B0002B813989CE0105960F2EFAE0EF2EF02DF4
:1023C00003E0432F6CE0EADC6F960FB6F894DEBFB3
:1023D0000FBECDBFDF91CF911F910F91EF90089568
:1023E000EF920F931F93CF93DF93CDB7DEB76F9725
:1023F0000FB6F894DEBF0FBECDBF9F8F8E8F8E8D30
:102400009F8D01969E012E5E3F4F4BE0B9010E94C9
:10241000C6088C8385E38093360186E1809337017B
:1024200086E18093380185E3809339018C81082F00
:1024300010E0CE0142966C81B3D1282FCE01429696
:10244000800F911FFC0120838C818F5F8C83198A00
:102450008989898387E08B838B818A838989882F07
:1024600090E09E012B5F3F4F820F931FFC01108273
:102470006EC01A8226C06B818981882F90E09E01F0
:102480002E5E3F4F820F931FFC018081482F8A816F
:10249000282F880F330B81E090E002C0880F991F2E
:1024A0002A95E2F78423382FAE014F5E5F4FCE01AD
:1024B0000596262FBC01832F54DD8B838A818F5F85
:1024C0008A838A818430BCF22B81AE014F5E5F4FDC
:1024D000CE010596BC0181E044DD8B8384E08A83D4
:1024E00026C06B818981882F90E09E012E5E3F4F30
:1024F000820F931FFC018081482F8A81282F880F2B
:10250000330B81E090E002C0880F991F2A95E2F713
:102510008423382FAE014F5E5F4FCE010596262FE4
:10252000BC01832F1EDD8B838A818F5F8A838A8122
:102530008830BCF22B81AE014F5E5F4FCE01059615
:10254000BC0181E00EDD8B8389818F5F8983998156
:102550008C81981708F48DCF2B813989CE0105968F
:102560000F2EFAE0EF2EF02D03E0432F6AE016DC89
:102570006F960FB6F894DEBF0FBECDBFDF91CF913F
:102580001F910F91EF900895EF920F93CF93DF93E8
:1025900000D000D000D0CDB7DEB79E838D838D8173
:1025A0009E81019643E09E012F5F3F4FB9010E943B
:1025B000C6088AE68093360184E28093370181E27F
:1025C000809338018AE68093390180E88C830F2E4E
:1025D000FFE0EF2EF02D03E026E043E060E0CE01C7
:1025E0000196DCDB26960FB6F894DEBF0FBECDBF9A
:1025F000DF91CF910F91EF900895A2E0B0E0E3E07A
:10260000F3E10C94343984E290E024E230E0F90103
:1026100020812860FC01208385E290E025E230E003
:10262000F9012081277FFC01208384E290E024E2ED
:1026300030E0F90120812B7FFC01208389E690E0C6
:1026400029E630E0F90120812061FC01208382EC41
:1026500091E09093DA028093D90281E090E09A832E
:10266000898311C029813A8149E4429FC001439F77
:10267000900D112484599E4FFC01108289819A810A
:1026800001969A83898389819A8102975CF31092DB
:10269000D1022296E2E00C945039A0E0B0E0E3E5EC
:1026A000F3E10C9434398091DB02882329F00E94F5
:1026B00029050E941D0402C00E941A05E2E00C9444
:1026C0005039A2E0B0E0E7E6F3E10C9434399A83A4
:1026D000898389819A810196FC018081882379F41C
:1026E0008091DB020E94B5088091D9029091DA02B4
:1026F00040E265E00E94CC070E94BF0709C08981C3
:102700009A81019641E06BED72E00E94C608C5DF38
:102710002296E2E00C945039A4E0B0E0E2E9F3E163
:102720000C94343989837B836A834C830FC08C81FA
:1027300081508C838C81882F90E02A813B81820F8D
:10274000931FFC0180819981890F89838C81882363
:1027500071F789812496E2E00C945039A4E0B0E04E
:10276000E4EBF3E10C9434399B838A836C83198204
:102770000FC08C8181508C838C81882F90E02A81BE
:102780003B81820F931FFC01808199818927898376
:102790008C81882371F789812496E2E00C9450396A
:1027A000A7E0B0E0E6EDF3E10C9434399E838D832D
:1027B0006F83198285E08A831B822EC08F818150AE
:1027C0008F838F81882F90E02D813E81820F931F10
:1027D000FC0180818C838C8182958F7099818927FF
:1027E00089838C8182958F709A81890F8A838091E9
:1027F0000102882319F08B81882359F08C81982F4E
:102800009F708981892789838C818F709A81890F34
:102810008A838B818F5F8B838F81882379F69A815E
:102820008981890F8A838A81882F90E08295929589
:10283000907F9827807F9827982F8981892B2796CA
:10284000E2E00C945039ADE0B0E0E9E2F4E10C9440
:1028500034399A8789876B875D874C8719821A82FA
:102860001B8287E08C8387E08D831092010289852B
:102870009A85FC018181282F220F220F220F898542
:102880009A85FC018381F22FF81B8F2F895F8E833D
:1028900010923A01D0C08B81882F90E029853A852B
:1028A000820F931F0496FC018081882F90E02C8179
:1028B000022E000C330B02C0959587952A95E2F7FE
:1028C0008170992721E0892B09F420E02F838C81E6
:1028D000982F91509C83882329F48B818F5F8B8361
:1028E00087E08C838B858B34E9F48D818330D1F440
:1028F00080910102882371F48F81882311F480E094
:10290000C4C09091010281E0992309F080E0809396
:10291000010291C09091010281E0992309F080E0C9
:10292000809301028D818F3F09F03BC08B858634F7
:1029300001F58981882F90E0865C9E4FFC018081A3
:10294000082E82958025082E869586958025888775
:102950008885882F90E00196959587959C01217038
:1029600033278F81882F90E02817390711F080E0F6
:102970008CC08B85853419F08B858B3429F48F813D
:10298000882311F480E081C089818F5F89838981E8
:10299000882F90E0865C9E4FFC01108287E08D833B
:1029A0004AC08F81882309F443C08B858634D9F4CB
:1029B0008981882F90E02981222F30E0265C3E4FCC
:1029C000F9012081622F2D81422F220F550B21E02A
:1029D00030E002C0220F331F4A95E2F7262B865CB7
:1029E0009E4FFC0120838B85853419F08B858B34B9
:1029F000F9F48981882F90E02981222F30E0265C2C
:102A00003E4FF9012081622F2D81022E000C330BE5
:102A100047E050E0421B530B21E030E002C0220FA0
:102A2000331F4A95E2F7262B865C9E4FFC012083DC
:102A30008D8181508D838A8191E0980F9A839E8148
:102A4000891708F428CF9A818E81891710F080E0C9
:102A50001CC08B85853439F48D818F3F21F48981A9
:102A60008F5F898307C080910102882319F08981D3
:102A70008F5F89838C859D852981FC0120838981D5
:102A8000882311F480E001C081E02D96E2E00C94EF
:102A90005039A4E0B0E0EFE4F5E10C9434399A83C6
:102AA00089837C836B8389819A81FC01808189364B
:102AB00031F089819A81FC018081833739F58091D9
:102AC000CE028170882381F08091CE0282708823AB
:102AD00059F48091CE0282608093CE028091CE0222
:102AE00084608093CE0211C08091CE0281708823D1
:102AF00031F08091CE028B7F8093CE0206C0809110
:102B0000CE028D7F8093CE020BC00AC08091CE0290
:102B10008170882329F48091CE0284608093CE0254
:102B20002496E2E00C945039A9E0B0E0EAE9F5E13E
:102B30000C9434399B838A837D836C835F834E83BB
:102B40003987288780913501813009F055C08C8103
:102B50009D81FC018081882309F04EC08A819B8180
:102B6000FC0180818D3009F047C0198217C089812E
:102B7000882F90E02E813F81820F931F2981222F81
:102B800030E04A815B81240F351F2C5F3F4FF901F4
:102B90002081FC01208389818F5F89838A819B81C9
:102BA000FC0191818981891710F38A819B81FC0145
:102BB00083818730B9F08981882F90E02E813F8111
:102BC000820F931F2981222F30E04A815B81240FDD
:102BD000351F2C5F3F4FF9012081FC012083898143
:102BE0008F5F8983888599852981FC0120838C8169
:102BF0009D812FE6FC0120832996E2E00C94503958
:102C0000A9E0B0E0E6E0F6E10C94303918861986C8
:102C100080913D0290913E02892B09F454C080912D
:102C2000DB02882314F584E30E94B204898389813E
:102C3000805889838981803410F4198212C0898177
:102C4000803C18F08FE089830CC08981882F90E048
:102C50008055910995958795959587959595879533
:102C6000898389818F590E945A078091DB02882FBE
:102C700090E088709927892B11F182E70E945A070A
:102C80008091DB02882F90E080719927892B31F0A9
:102C900080913B0290913C020E945A0786E60E9476
:102CA0005A078091DB02882F90E080719927892B49
:102CB00031F080913D0290913E020E945A0710929D
:102CC0003E0210923D0280910002882309F40BC459
:102CD00085E290E025E230E0F90120812160FC01ED
:102CE00020838091FF01282F30E049E4429FC001FA
:102CF000439F900D112484599E4F9E838D839E0186
:102D0000275F3F4FBE01685F7F4F8D819E814AE301
:102D100051E00E94A9249E01275F3F4FBE01685FDA
:102D20007F4F8D819E814AE351E00E943E249E01A7
:102D3000275F3F4FBE01685F7F4F8D819E814AE3D1
:102D400051E00E94B8269E01275F3F4FBE01685F99
:102D50007F4F8D819E814AE351E0E6DE888588239E
:102D600009F041C08D819E81FC0180818B30D9F5B5
:102D70001A8215C08A81882F90E02A81222F30E0A4
:102D80004D815E81240F351F2C5F3F4FF90120815B
:102D9000865C9E4FFC0120838A818F5F8A838D81B0
:102DA0009E81FC0191818A81891720F38D819E810A
:102DB000FC0183818730A9F08A81882F90E02A81E5
:102DC000222F30E04D815E81240F351F2C5F3F4F55
:102DD000F9012081865C9E4FFC0120838A818F5FF0
:102DE0008A838A8189878D819E81FC0180818330DD
:102DF00009F0DEC08885882309F05CC09E01275F4A
:102E00003F4F8D819E81A90166E41DDD882309F471
:102E100051C08985815089878985482F6AE371E08F
:102E200086E07ADC8F838985882F90E0865C9E4FD0
:102E3000FC0190818F81981731F48985843018F0D6
:102E400086E4888737C08F81882F90E09C012F5FB0
:102E50003F4F8985882F90E0865C9E4FFC018081E2
:102E6000882F90E02817390771F48985843058F04D
:102E700086E488878985882F90E0865C9E4F2F8125
:102E8000FC01208317C08985482F6AE371E08CE03C
:102E900043DC282F8985882F90E0865C9E4FFC01BB
:102EA0008081281731F48985843018F084E588877B
:102EB00001C0188680913501823021F588858823EC
:102EC00009F59E01275F3F4F8D819E81A90165E431
:102ED000BADC8823B9F08985815089878985893052
:102EE00089F48985682F8AE391E038DC282F898569
:102EF000882F90E0865C9E4FFC018081281711F49A
:102F000085E488879E01275F3F4FBE01685F7F4F42
:102F10008D819E814AE351E00E941C26888588238A
:102F200009F046C08D819E81FC0120818D819E81AA
:102F3000FC0185AD96AD482F80913B0290913C02FB
:102F4000382F8D819E81CB96632F8FD3282F8D8133
:102F50009E81622F0E9438239E01275F3F4F8D8103
:102F60009E81A9016BE46FDC8823E1F089858150A3
:102F700089878985682F8AE391E012DC482F89854B
:102F8000282F30E080910102882F90E07901E81A23
:102F9000F90AC701865C9E4FFC018081481711F435
:102FA0008BE488878885882319F48D819E8102D4DB
:102FB0008885882309F458C18091DB02882F90E02E
:102FC00081709927892B09F44FC18091CE028E7FA1
:102FD0008093CE028091CE028B7F8093CE0280912F
:102FE000DB02882F90E082709927892B09F07EC040
:102FF000909102028985981709F04BC01092020245
:103000001DC080910202882F90E08D5F9D4FFC01D2
:10301000208180910202882F90E0865C9E4FFC0107
:103020008081281731F08091CE028D7F8093CE026F
:103030000AC0809102028F5F809302029091020287
:1030400089859817F0F2909102028985981709F501
:103050002091D3023091D4024091D5025091D602F2
:103060008091350290913602A0913702B0913802DA
:1030700079018A01E81AF90A0A0B1B0BD801C7016A
:103080008697A105B10528F48091CE0281608093D6
:10309000CE021092020215C080910202882F90E0A9
:1030A00020910202222F30E0265C3E4FF901208160
:1030B0008D5F9D4FFC012083809102028F5F809382
:1030C0000202909102028985981730F38091D30211
:1030D0009091D402A091D502B091D602809335028E
:1030E00090933602A0933702B093380288858435D6
:1030F00089F58091DB02882F90E080749927892BD5
:1031000049F58985853030F180913C018B34E9F0B7
:1031100080913C018936C9F080913C018335A9F04A
:1031200080913C01843589F080913C018D3769F0B4
:1031300080913C018E3749F080913D01882F90E0CD
:10314000807799278037910529F48091CE0281609C
:103150008093CE022D813E81CE010896B90199DC83
:103160008091CE028470882309F47EC088850E94F5
:103170005A078D819E81FC0180818A3019F488E68E
:103180000E945A078D819E81FC0180818D3019F447
:103190008DE60E945A0780910102882319F08985E3
:1031A000815089871B820CC08B81882F90E0865CC0
:1031B0009E4FFC0180810E94B5088B818F5F8B83BD
:1031C00089859B81981780F380910102882379F08B
:1031D0008985882F90E0865C9E4FFC018081882F36
:1031E00090E08F70992740E361E00E944C08809145
:1031F000DB02882F90E080729927892B29F084E3E5
:103200000E94B2040E94B5088D819E81FC018081DC
:10321000883041F58BE30E945A078D819E818D5B3A
:103220009F4FFC018081918182959295907F982794
:10323000807F982740E265E00E94CC078AE30E94E5
:103240005A078D819E818B5B9F4FFC01808191810C
:1032500082959295907F9827807F982740E265E03D
:103260000E94CC070E94BF078091DB02882F90E06C
:1032700084709927892B09F411C180E70E945A07AD
:103280008D819E81FC018081882F90E040E262E088
:103290000E94CC078D819E81FC0187A990AD82950B
:1032A0009295907F9827807F982740E265E00E9462
:1032B000CC078D819E81FC0181AD92AD8295929566
:1032C000907F9827807F982740E265E00E94CC0796
:1032D0008D819E81FC0183AD94AD82959295907F06
:1032E0009827807F982740E265E00E94CC078D8177
:1032F0009E81FC0185AD96AD82959295907F982731
:10330000807F982740E265E00E94CC078D819E81F6
:10331000CF96FC018081918182959295907F98272C
:10332000807F982740E265E00E94CC078D819E81D6
:103330008F5B9F4FFC018081918182959295907F58
:103340009827807F982740E265E00E94CC078D8116
:103350009E81FC0186A9882F90E040E264E00E94F3
:10336000CC078D819E81FC018281882F90E040E214
:1033700063E00E94CC078D819E81FC018181882FB2
:1033800090E040E263E00E94CC078D819E81FC01C9
:103390008381882F90E027E030E07901E81AF90A6C
:1033A000C70140E262E00E94CC0780E20E945A0717
:1033B0008D819E818D5B9F4FFC01808191818295E3
:1033C0009295907F9827807F982740E265E00E9441
:1033D000CC0780E20E945A078D819E818B5B9F4FB4
:1033E000FC018081918182959295907F9827807FC2
:1033F000982740E265E00E94CC0780E20E945A07CD
:103400008D819E81895B9F4FFC0180819181829596
:103410009295907F9827807F982740E265E00E94F0
:10342000CC0780E20E945A078091DB02882F90E04F
:1034300080729927892B41F084E30E94B2040E9494
:10344000B50880E20E945A078D819E81FC0183812C
:10345000873051F08D819E81FC01818121E0280F10
:103460008D819E81FC0121831C820FC08C81882F5D
:1034700090E02D813E81820F931F0496FC01808194
:103480000E94B5088C818F5F8C838D819E81FC01A9
:1034900091818C81891750F30E94BF078D819E8195
:1034A000FC0110828D819E81FC0116AA10923A02C5
:1034B0001092390280910002815080930002809125
:1034C000FF018F5F8093FF018091FF01823011F433
:1034D0001092FF0185E290E025E230E0F9012081C1
:1034E0002E7FFC0120832996E6E00C944C39A0E065
:1034F000B0E0EDE7FAE10C94343910923A02109200
:1035000039028FE690E0FC0110828091FE01282FA5
:1035100030E049E4429FC001439F900D112484593B
:103520009E4FFC0110828091CE028D7F8093CE024F
:1035300088E890E0FC0111821082E2E00C9450399E
:103540001F920F9200905F000F9211242F933F93D0
:103550004F935F936F937F938F939F93AF93BF939B
:10356000EF93FF93CF93DF9300D0CDB7DEB78FE615
:1035700090E0FC01108288E890E0FC01808191815C
:103580009A83898388E890E020E23EE4FC0131835D
:10359000208384E890E029813A81FC0131832083F3
:1035A0008091DB02882F90E088709927892B19F091
:1035B0008EE20E945A078091FE01282F30E049E4F4
:1035C000429FC001439F900D112484599E4FFC01DE
:1035D0008081833080F08091FE01282F30E049E423
:1035E000429FC001439F900D112483599E4FFC01BF
:1035F0008081823010F47BDF22C080910002813014
:1036000071F48091DB02882F90E084709927892BD8
:1036100021F081EF91E00E949D0769DF10C0809149
:1036200000028F5F809300028091FE018F5F809384
:10363000FE018091FE01823011F41092FE010F9084
:103640000F90DF91CF91FF91EF91BF91AF919F913B
:103650008F917F916F915F914F913F912F910F903B
:1036600000925F000F901F901895ACE0B0E0EBE384
:10367000FBE10C943439998788876A874B872C87BC
:103680008CE0898388859985FC01228133818B8533
:10369000882F90E0A901481B590BCA019B838A839C
:1036A00088859985FC01208131818A85882F90E069
:1036B000A901481B590BCA019D838C838885998574
:1036C000FC012281338188859985FC01808191816B
:1036D000820F931F2B85422F50E02A85222F30E046
:1036E000240F351F821B930B9F838E838981282F84
:1036F00030E08A819B8182179307B4F58981882FF6
:1037000090E022273327281B390B8A819B812817B9
:10371000390754F58981282F30E08C819D818217EB
:10372000930714F58981882F90E022273327281BDF
:10373000390B8C819D8128173907B4F48981282F92
:1037400030E08E819F818217930774F48981882FDE
:1037500090E022273327281B390B8E819F81281761
:10376000390714F481E001C080E02C96E2E00C946B
:103770005039A2E0B0E0EFEBFBE10C9434398983DF
:103780006A838981853280F089818C3368F48A81EB
:103790008A3050F08A81873238F499818A8189177A
:1037A00018F481E090E002C080E090E02296E2E030
:1037B0000C945039A2E0B0E0E0EEFBE10C94343917
:1037C0009A83898389819A81FC01238131E0320FB8
:1037D00089819A81FC013383273071F489819A8130
:1037E000FC01138289819A81FC0181812FEF280FCE
:1037F00089819A81FC0121832296E2E00C94503960
:10380000A9E0B0E0E6E0FCE10C9434399C838B83C2
:103810007E836D8358874F8329878B819C81FC0130
:1038200086A9883008F083C08D819E81FC012081AB
:1038300031818091390290913A028217930748F4BE
:103840008D819E81FC018081918190933A028093C9
:1038500039028F819885FC01208131818091390264
:1038600090913A028217930748F48F819885FC0162
:103870008081918190933A02809339028B819C815F
:10388000FC0186A9873009F052C0809139029091DD
:103890003A02892B09F44BC01A8219828985882340
:1038A000E9F08B819C818D5B9F4FFC0120813181F0
:1038B0008091390290913A02A901481B590BCA0123
:1038C0009C013695279536952795809139029091E0
:1038D0003A02820F931F9A8389831CC08B819C813B
:1038E0008B5B9F4FFC012081318180913902909147
:1038F0003A02A901481B590BCA019C01369527952C
:10390000369527958091390290913A02820F931F44
:103910009A83898388E890E029813A8122953295BB
:10392000307F3227207F3227FC0131832083299684
:10393000E2E00C9450391F920F9200905F000F92BA
:1039400011242F933F934F935F936F937F938F93A4
:103950009F93AF93BF93EF93FF93CF93DF9300D0E9
:1039600000D0CDB7DEB78091DC02882321F082E061
:103970008093DC028DC584E890E0FC018081918118
:10398000929582958F7089279F7089279A83898362
:103990008091FE01282F30E049E4429FC001439FFF
:1039A000900D112484599E4F9C838B8383E290E079
:1039B000FC018081882F90E084709927892B09F081
:1039C000CCC089819A8190933C0280933B028B8189
:1039D0009C81FC0180818D3009F0BEC08B819C816F
:1039E000895B9F4FFC01808191819C0136952795D1
:1039F00080913B0290913C0282179307D0F08B811B
:103A00009C81895B9F4FFC01808191819C01220FE9
:103A1000331F8B819C81895B9F4FFC018081918149
:103A2000280F391F80913B0290913C0228173907DB
:103A300030F48B819C8122E0FC01208329C58B819D
:103A40009C81895B9F4FFC012081318180913B02E9
:103A500090913C02280F391F8B819C81FC0147A962
:103A600050AD8B819C81FC0183AD94AD840F951F7B
:103A7000969587958217930708F045C080913B0281
:103A800090913C02282F8B819C81FC0183AD94ADE9
:103A9000622F34D5282F30E08B819C81FC0134AF1C
:103AA00023AF8B819C81895B9F4FFC0120813181F9
:103AB00080913B0290913C020A9782179307C8F4C9
:103AC0008B819C81895B9F4FFC012081318180919A
:103AD0003B0290913C020A962817390750F48091D6
:103AE0003F029091400201969093400280933F02E2
:103AF00026C080913F02909140020296909340022E
:103B000080933F021CC080913B0290913C02282F81
:103B10008B819C81FC0187A990AD622FEFD4282F67
:103B200030E08B819C81FC0130AF27AB80913F025C
:103B30009091400201969093400280933F028091C1
:103B40003F029091400281709927892B29F08B8147
:103B50009C8161E08DD59CC49BC480913B02909177
:103B60003C0229813A81A901481B590BCA01909353
:103B70003E0280933D0284E890E0FC0111821082B5
:103B800086E390E022E0FC0120838B819C81FC0194
:103B900080818D3009F0BFC08B819C81895B9F4FF4
:103BA000FC01808191819C013695279580913D0291
:103BB00090913E0282179307D0F08B819C81895BA4
:103BC0009F4FFC01808191819C01220F331F8B81CB
:103BD0009C81895B9F4FFC0180819181280F391F57
:103BE00080913D0290913E022817390730F48B8175
:103BF0009C8122E0FC0120838EC08B819C81895BAB
:103C00009F4FFC012081318180913D0290913E02C5
:103C1000280F391F8B819C81FC0141AD52AD8B81F6
:103C20009C81FC0185AD96AD840F951F9695879577
:103C30008217930708F045C080913D0290913E02A3
:103C4000282F8B819C81FC0185AD96AD622F56D4C7
:103C5000282F30E08B819C81FC0136AF25AF8B8112
:103C60009C81895B9F4FFC012081318180913D02C5
:103C700090913E020A9782179307C8F48B819C812A
:103C8000895B9F4FFC012081318180913D029091A1
:103C90003E020A962817390750F480913F0290910E
:103CA000400201969093400280933F0226C080918B
:103CB0003F029091400202969093400280933F020F
:103CC0001CC080913D0290913E02282F8B819C81E7
:103CD000FC0181AD92AD622F11D4282F30E08B8191
:103CE0009C81FC0132AF21AF80913F029091400254
:103CF00001969093400280933F0280913F02909101
:103D0000400281709927892B29F08B819C8160E08A
:103D1000AFD4BEC3BDC38B819C81FC018081882F41
:103D200090E08230910509F490C1833091051CF434
:103D3000892B49F02BC38630910509F41FC30B97DB
:103D400009F40DC223C38B819C81FC0110AE17AA1C
:103D50008B819C81FC0112AE11AE8B819C81FC0198
:103D600014AE13AE8B819C81FC0116AE15AE8B8117
:103D70009C81CF96FC01118210828B819C818F5B8C
:103D80009F4FFC01118210821092400210923F025C
:103D90008B819C81895B9F4FFC01118210828B81FA
:103DA0009C81FC0116AA8B819C81FC0111828B8174
:103DB0009C8127E0FC0123838B819C81FC01148280
:103DC0008B819C814DE352E06BE372E00E942527DA
:103DD000882309F05DC320913B0230913C028B8126
:103DE0009C818D5B9F4FFC013183208320913D029C
:103DF00030913E028B819C818B5B9F4FFC01318314
:103E0000208380913501813051F580913B02909162
:103E10003C02C49720F580913B0290913C020A97A6
:103E2000F0F080913D0290913E028B369340B8F4C1
:103E300080913D0290913E02893C910580F08B81FA
:103E40009C812BE0FC0120838B819C8121E0FC0183
:103E500022838FE690E022E0FC01208319C3809149
:103E60003B0290913C028536910538F480913D02E9
:103E700090913E028536910508F00AC320913B02DD
:103E800030913C028B819C81FC0130AF27AB2091AB
:103E90003D0230913E028B819C81FC0132AF21AF0B
:103EA0008B819C8121E0FC0122838B819C8122E01B
:103EB000FC01208380913501813009F0C5C08091DB
:103EC0003D0290913E029C012A50310980913B02B3
:103ED00090913C022817390778F480913D02909127
:103EE0003E029C01265F3F4F80913B0290913C0235
:103EF0008217930708F441C080913D0290913E02E1
:103F0000855090489C01220F331F80913B02909175
:103F10003C022817390778F480913D0290913E02C7
:103F200005969C01220F331F80913B0290913C0229
:103F30008217930710F180913D0290913E02969571
:103F400087959C012A50310980913B0290913C0257
:103F50002817390708F078C080913D0290913E0201
:103F6000969587959C01265F3F4F80913B029091EB
:103F70003C028217930708F067C08B819C812DE07B
:103F8000FC01208380913B0290913C029C0136957C
:103F900027958B819C81895B9F4FFC013183208316
:103FA00081E090E09093400280933F028B819C815E
:103FB000895B9F4FFC0180819181429758F4209149
:103FC0003B0230913C028B819C81895B9F4FFC01BD
:103FD000318320838B819C81895B9F4FFC01808191
:103FE00091810C9748F08B819C81895B9F4FFC01EC
:103FF00080819181CF9728F08B819C8122E0FC0108
:10400000208388E890E020EA3FE0FC0131832083B0
:104010008FE690E022E0FC01208320913D02309168
:104020003E028B819C81FC0136AF25AF20913B0283
:1040300030913C028B819C81FC0134AF23AF8B819A
:104040009C8161E015D3A8CD23C28B819C81FC01AA
:10405000208180913D0290913E02482F80913B0249
:1040600090913C02382F8B819C81C796632FFDDA9B
:104070008823C1F180913B0290913C02282F8B81D3
:104080009C81FC0187A990AD622F38D2282F30E0A7
:104090008B819C81FC0130AF27AB80913D029091D8
:1040A0003E02282F8B819C81FC0181AD92AD622F55
:1040B00025D2282F30E08B819C81FC0132AF21AFCB
:1040C0008B819C81895B9F4FFC01118210828B81C7
:1040D0009C81FC01828121E0280F8B819C81FC0165
:1040E00022833CC08B819C81FC018281843088F1D9
:1040F00088E890E020EA3FE0FC01318320838B8157
:104100009C8123E0FC01208320913B0230913C0202
:104110008B819C81FC0134AF23AF20913D02309113
:104120003E028B819C81FC0136AF25AF8B819C8147
:10413000FC0111828B819C8127E0FC0123838B8110
:104140009C81FC0114828FE690E022E0FC01208338
:1041500005C08B819C81FC011082F5CD99C18091B5
:104160003D0290913E028735914008F006C1809152
:104170003D0290913E029C012A50310980913B0200
:1041800090913C0228173907C8F480913D02909124
:104190003E029C01265F3F4F80913B0290913C0282
:1041A0008217930758F48B819C81FC0186A9882390
:1041B00029F48B819C81FC011082C5CD8B819C816F
:1041C00020E04DE352E06BE372E01ADB8B819C81CF
:1041D000FC0186A9882391F420913B0230913C0296
:1041E0008B819C81FC0130AF27AB20913D02309147
:1041F0003E028B819C81FC0132AF21AF80913D0258
:1042000090913E028037910508F04AC08B819C81D5
:104210008B5B9F4FFC01808191818A31914008F432
:104220003FC080913B0290913C029C01245F3F4F34
:1042300080913D0290913E0282179307B8F48B81E2
:104240009C8160E015D220913B0230913C028B8131
:104250009C81FC0134AF23AF20913D0230913E029E
:104260008B819C81FC0136AF25AF87C08B819C81FF
:1042700061E0FED120913B0230913C028B819C8118
:10428000CF96FC013183208320913D0230913E0284
:104290008B819C818F5B9F4FFC01318320836DC09C
:1042A00080913D0290913E028C39910520F58B81E1
:1042B0009C818B5B9F4FFC01808191818933914070
:1042C000D0F08B819C8160E0D3D120913B02309172
:1042D0003C028B819C81CF96FC013183208320910D
:1042E0003D0230913E028B819C818F5B9F4FFC0190
:1042F0003183208342C080913D0290913E028D35F2
:10430000910520F58B819C818B5B9F4FFC01808107
:10431000918188339140D0F48B819C8160E0A8D159
:1043200020913B0230913C028B819C81CF96FC0115
:104330003183208320913D0230913E028B819C810C
:104340008F5B9F4FFC013183208317C08B819C8141
:1043500061E08ED120913B0230913C028B819C81A7
:10436000FC0134AF23AF20913D0230913E028B819E
:104370009C81FC0136AF25AF8BC08AC08B819C81AC
:104380004DE352E06BE372E0D9D582C08B819C8112
:10439000FC01208180913D0290913E02482F809146
:1043A0003B0290913C02382F8B819C81CB96632FEE
:1043B0005CD9882359F18B819C8161E059D180912E
:1043C0003B0290913C02282F8B819C81FC0183ADA4
:1043D00094AD622F93D0282F30E08B819C81FC011B
:1043E00034AF23AF80913D0290913E02282F8B8104
:1043F0009C81FC0185AD96AD622F80D0282F30E0E6
:104400008B819C81FC0136AF25AF41C08B819C81A3
:10441000FC01208180913D0290913E02482F8091C5
:104420003B0290913C02382F8B819C81C796632F71
:104430001CD9882359F18B819C8160E019D180912E
:104440003B0290913C02282F8B819C81FC0187A923
:1044500090AD622F53D0282F30E08B819C81FC01DE
:1044600030AF27AB80913D0290913E02282F8B8187
:104470009C81FC0181AD92AD622F40D0282F30E0AD
:104480008B819C81FC0132AF21AF01C030D800008C
:104490000F900F900F900F90DF91CF91FF91EF91C0
:1044A000BF91AF919F918F917F916F915F914F914C
:1044B0003F912F910F9000925F000F901F901895E1
:1044C000A1E0B0E0E6E6F2E20C9434398091FE011E
:1044D000282F30E049E4429FC001439F900D1124F2
:1044E00084599E4FFC01908181E0992309F480E07A
:1044F000898389812196E2E00C945039A2E0B0E0F2
:10450000E4E8F2E20C94343989836A838981282FA4
:1045100030E08981882F90E0280F391F8981882F0A
:1045200090E0280F391F8A81882F90E0820F931F17
:1045300099230CF4039695958795959587952296E2
:10454000E2E00C945039EF920F931F93CF93DF93D7
:10455000CDB7DEB72A970FB6F894DEBF0FBECDBF3A
:104560008A836B835D834C833F832E8319870887FF
:10457000EA8619822BC08A85882399F08981882F41
:1045800090E02C813D81820F931F2981222F30E002
:104590004C815D81240F351FF90120812095FC019C
:1045A00020838981882F90E02E813F81820F931F85
:1045B0002981222F30E04C815D81240F351FF901C4
:1045C0002081FC01208389818F5F898399818A8181
:1045D000981788F28B818730D1F18A85882311F171
:1045E0008981882F90E02C813D81820F931F298142
:1045F000222F30E04C815D81240F351FF90120818D
:10460000622F60952B81222F30E0A9014F5F5F4F11
:104610002FEF30E002C0220F331F4A95E2F7262326
:10462000FC0120838981882F90E02E813F81820FB9
:10463000931F2981222F30E04C815D81240F351F8B
:10464000F9012081FC01208389818F5F898388851E
:1046500099852981FC0120832A960FB6F894DEBF44
:104660000FBECDBFDF91CF911F910F91EF900895B5
:10467000A3E0B0E0EEE3F3E20C9434399A8389834B
:104680006B8389819A81FC018181823318F00E94B9
:10469000771A60C08B81882359F189819A81FC0146
:1046A0008181882F90E029813A81F9012181222F8F
:1046B00030E049815A81240F351F2C5F3F4FF901AB
:1046C0002081622F29813A81F9012381422F50E014
:1046D00021E030E002C0220F331F4A95E2F7262B7B
:1046E000422F29813A81820F931F0496FC01408357
:1046F00089819A81FC0123813FEF320F89819A8160
:10470000FC0133832223E1F489819A8127E0FC01B3
:10471000238389819A81FC01818121E0280F89818D
:104720009A81FC01218389819A81FC018181882FF2
:1047300090E029813A81820F931F0496FC01108238
:1047400089819A81FC0186A921E0280F89819A81BB
:10475000FC0126AB2396E2E00C945039A3E0B0E0D4
:10476000E4EBF3E20C9434399B838A838A819B8146
:10477000FC01208131818A819B81FC018481882F09
:1047800090E0820F931FFC018081882F90E02A81A6
:104790003B81F9012581222F30E002C09595879554
:1047A0002A95E2F78170992721E0892B09F420E00E
:1047B00029838A819B81FC0125813FEF320F8A8109
:1047C0009B81FC013583222379F48A819B81FC0142
:1047D000848121E0280F8A819B81FC0124838A81C6
:1047E0009B8127E0FC01258389812396E2E00C94DC
:1047F0005039A6E0B0E0EFEFF3E20C9434399C833B
:104800008B836D834E8319821A822FC08B819C818A
:10481000A5DF882339F18E818823B1F08D81282F7F
:1048200030E08A81882F90E0A901481B590BCA010A
:104830009C012150310981E090E002C0880F991F4E
:104840002A95E2F7982F0BC08A81282F30E081E06B
:1048500090E002C0880F991F2A95E2F7982F89816E
:10486000892B89838A818F5F8A839A818D819817AA
:1048700068F289812696E2E00C945039EF920F930A
:104880001F93CF93DF93CDB7DEB728970FB6F89479
:10489000DEBF0FBECDBF9A8389837C836B835E832B
:1048A0004D8338872F8380913501813009F045C0D1
:1048B0008B819C81FC018081882309F03EC0898125
:1048C0009A81FC0186A98831C1F089819A81FC0115
:1048D00086A98C3191F089819A81FC0186A9843264
:1048E00061F089819A81FC0186A9853231F0898144
:1048F0009A81FC0186A98A3201F589819A81AC01ED
:104900004C5F5F4F89819A81FC01638189819A8123
:10491000FC0171812F8138858D819E81E12C890177
:104920009C01872F10DE89819A8128E0FC01208379
:104930008B819C8123E7FC01208328960FB6F89495
:10494000DEBF0FBECDBFDF91CF911F910F91EF90D2
:104950000895EF920F931F93CF93DF93CDB7DEB7F8
:1049600029970FB6F894DEBF0FBECDBF9B838A8315
:104970007D836C835F834E833987288780913501DF
:10498000813009F04DC18C819D81FC01808188239B
:1049900009F046C18A819B81FC0180818B3009F03E
:1049A0003FC18A819B81FC0186A98831C9F08A8137
:1049B0009B81FC0186A98C3199F08A819B81FC0145
:1049C00086A9893369F08A819B81FC0186A981349B
:1049D00039F08A819B81FC0186A9893409F020C1C4
:1049E0008A819B81FC0185AD96AD8D37910508F0DC
:1049F00017C18A819B818F5B9F4FFC0180819181D0
:104A00008D37910508F00CC18A819B81FC0186A934
:104A10008831E9F48A819B81AC014C5F5F4F8A81C8
:104A20009B81FC0163818A819B81FC0171812885C6
:104A300039858E819F81EE24E39489019C01872F23
:104A400082DD8A819B8127E0FC012083E3C08A818B
:104A50009B81FC0186A98C3131F08A819B81FC010C
:104A600086A98933E1F48A819B81AC014C5F5F4F59
:104A70008A819B81FC0163818A819B81FC01718118
:104A8000288539858E819F81E12C89019C01872FA2
:104A90005ADD8A819B812AE0FC012083BBC08A8188
:104AA0009B81FC0186A9813439F08A819B81FC01BC
:104AB00086A9893409F0AEC08A819B81FC0181AD51
:104AC00092AD8E35910508F4A5C0198291C08981F7
:104AD000882F90E09C012F5F3F4F8A819B81FC01D2
:104AE0008181882F90E02817390709F057C0898104
:104AF000882F90E02E813F81820F931F2981222FE2
:104B000030E04A815B81240F351F2C5F3F4FF90154
:104B10002081220FFC0120838A819B81FC018381FB
:104B2000873009F462C08981882F90E001962E8138
:104B30003F81820F931F2981222F30E02F5F3F4F4B
:104B40004A815B81240F351F2C5F3F4FF901208183
:104B5000FC0120838981882F90E02E813F81820F84
:104B6000931F2981222F30E04E815F81240F351F52
:104B7000F90160812981222F30E02F5F3F4F4A8168
:104B80005B81240F351F2C5F3F4FF9012081221FCD
:104B90002227221F260FFC01208327C08981882F0E
:104BA00090E02E813F81820F931F2981222F30E0D8
:104BB0004A815B81240F351F2C5F3F4FF901208113
:104BC000622F660F2981222F30E02F5F3F4F4A81ED
:104BD0005B81240F351F2C5F3F4FF9012081221F7D
:104BE0002227221F260FFC01208389818F5F898362
:104BF0008A819B81FC0191818981891708F467CFA3
:104C0000888599852981FC0120838A819B8129E0FF
:104C1000FC0120838C819D8129E6FC01208300001A
:104C200029960FB6F894DEBF0FBECDBFDF91CF91AE
:104C30001F910F91EF900895A1E1B0E0E2E2F6E25A
:104C40000C9432399B878A877D876C875F874E8774
:104C5000398B288B8C859D85FC018081882309F008
:104C600083C0188687E089878A859B8504969D8303
:104C70008C831B828A859B85FC018181843031F481
:104C80008A859B85FC018381813009F06DC0198282
:104C900028C08981882341F4CE01049641E067E071
:104CA000A8DD80688A8306C0CE01049641E068E0F2
:104CB000A0DD8A838A81982F92959F708B81980FAF
:104CC0008A818F70890F8B838981882F90E02E8550
:104CD0003F85820F931F2A81FC01208389818F5F8A
:104CE000898389818430A8F28981882F90E02E857C
:104CF0003F858901080F191FCE01049641E067E046
:104D000078DD880FF80180838981882F90E02E85D7
:104D10003F85820F931FFC018081982F92959F7091
:104D20008B81890F8F708B8389818F5F89838889BD
:104D300099892981FC0120838B8182958F7088233A
:104D400041F48E859F85FC01808182958F708A3029
:104D500031F08C859D8524E7FC01208305C08C857E
:104D60009D8524E7FC0120836196E4E00C944E3994
:104D7000AAE0B0E0EEEBF6E20C9434399C838B832E
:104D80007E836D8358874F833A87298780913501C9
:104D9000813009F056C08D819E81FC01808188237D
:104DA00009F04FC08B819C81FC0181818C3061F4C2
:104DB0008B819C81FC018081863031F48B819C81C8
:104DC000FC018381882309F03CC019821A8224C027
:104DD0008A81882F90E02B813C81820F931F04965B
:104DE000FC0180819981890F89838A81882F90E0D5
:104DF0002F813885820F931F2A81222F30E04B812B
:104E00005C81240F351F2C5F3F4FF9012081FC018D
:104E100020838A818F5F8A838A818B30C8F289855B
:104E20009A852A81FC0120838B819C81FC019785D6
:104E30008981981709F005C08D819E8122E7FC01C8
:104E400020832A96E2E00C945039A6E0B0E0EBE231
:104E5000F7E20C9434399A8389837C836B835E8375
:104E60004D8380913501813009F063C08B819C8135
:104E7000FC01808191818333924008F45AC08B8178
:104E80009C81FC01808191818E3E924008F051C04E
:104E90008D819E81FC01808191810A9708F449C02F
:104EA0008D819E81FC0180819181819708F041C0B4
:104EB00089819A8129E030E0FC0130AF27AB8981FC
:104EC0009A812EE030E0FC0132AF21AF89819A81D6
:104ED00020E130E0FC0134AF23AF89819A812EE0DC
:104EE00030E0FC0136AF25AF89819A8121E0FC01D9
:104EF000228389819A8126E0FC01208389819A811D
:104F0000FC01118289819A8127E0FC012383898138
:104F10009A81FC01148288E890E020EA3FE0FC01DD
:104F2000318320838FE690E022E0FC01208381E042
:104F300001C080E02696E2E00C945039A6E0B0E093
:104F4000E4EAF7E20C9434399A8389837C836B8397
:104F50005E834D8380913501813081F48B819C810A
:104F6000FC01808191810B9728F489819A8160E00E
:104F70007FDB04C089819A8161E07ADB2696E2E0DA
:104F80000C945039A5E1B0E0E8ECF7E20C94343928
:104F90008D8B8DE390E02DE330E0F90120812B7FB4
:104FA000FC01208384E290E024E230E0F9012081DA
:104FB0002061FC0120831092410285E290E025E20D
:104FC00030E0F90120812061FC0120838EE190E036
:104FD0000E94290785E290E025E230E0F901208176
:104FE0002F7EFC0120838EE190E00E94290785E25C
:104FF00090E025E230E0F90120812061FC0120836E
:105000008DE290E00E94290780E30E94F90484E683
:1050100090E00E9429078D89882319F08D898430BA
:1050200008F0A2C0198231C08981882F90E0885091
:105030009E4F9C838B838B819C81FC0184918D830B
:105040008D81813408F024C08981882F90E00196F9
:1050500088509E4F9F838E838E819F81FC01849117
:10506000888728858981882F90E088509E4F9A876D
:10507000898789859A85FC0184918B878B85622F2E
:105080000E94D60489818E5F898389818C3360F286
:105090001A825BC08D89882F90E0AC014150510984
:1050A0008A81882F90E064E1649F9001659F300DB4
:1050B0001124820F931F8A5D9D4F9D878C878C855D
:1050C0009D85FC0184918E878E85813408F041C0D6
:1050D0008D89882F90E0AC01415051098A81882F39
:1050E00090E0019664E1649F9001659F300D11246A
:1050F000820F931F8A5D9D4F988B8F878F8598892C
:10510000FC018491898B79898D89882F90E0AC018D
:10511000415051098A81882F90E064E1649F900199
:10512000659F300D1124820F931F8A5D9D4F9B8BCD
:105130008A8B8A899B89FC0184918C8B8C89672F4F
:105140000E94D6048A818E5F8A838A81843108F422
:10515000A1CF83E30E94F9048D89809341020E94CC
:10516000E60C81E00E9445076596E2E00C94503918
:10517000A3E0B0E0EEEBF8E20C9434398091410208
:10518000882309F45CC083E290E0FC018081882FD1
:1051900090E084709927892BD9F186E30E94F90465
:1051A0008BE30E94B2048F778A838A81882379F106
:1051B00085E290E025E230E0F90120812F7EFC01BC
:1051C00020838FEF0E943D028EE40E945A07809157
:1051D00041020E94B50819820AC080E00E943D0287
:1051E0008B838B810E94B50889818F5F8983998128
:1051F0008A81981790F385E290E025E230E0F9018A
:1052000020812061FC0120830E94BF0718C017C0C5
:1052100085E30E94B204882F90E08130910511F05F
:10522000419769F48AE30E94F90486E30E94F90435
:105230008DE30E94F90484E30E94F90400002396A0
:10524000E2E00C945039A3E0B0E0E9E2F9E20C941A
:1052500034399B838A8319828A819B810196FC0160
:1052600080818237F1F48A819B810296FC018081E2
:10527000882349F08A819B8102969E012F5F3F4FD0
:10528000B9010E94A9098981882319F08981843094
:1052900028F082E692E00E949D0719C0898172DEA3
:1052A00010C08A819B810196FC018081883749F476
:1052B00080914102882319F086E30E94F90410923C
:1052C0004102809141020E94B5080E94BF072396C7
:1052D000E2E00C945039A7E0B0E0E1E7F9E20C9489
:1052E00034398DE390E02DE330E0F90120812B7F0C
:1052F000FC01208384E290E024E230E0F901208187
:105300002061FC01208385E290E025E230E0F90194
:1053100020812061FC0120838EE190E00E9429071A
:1053200085E290E025E230E0F90120812F7EFC014A
:1053300020838EE190E00E94290785E290E025E23B
:1053400030E0F90120812061FC0120838DE290E0B2
:105350000E94290780E30E94F90484E690E00E94FD
:105360002907198221C08981882F90E001968258EF
:105370009D4F9B838A838A819B81FC0184918C83CE
:105380002C818981882F90E082589D4F9E838D8348
:105390008D819E81FC0184918F838F81622F0E9479
:1053A000D60489818E5F898389818233E0F283E329
:1053B0000E94F90484E00E94450784E30E94F904F6
:1053C00085E30E94B2048D30C1F72796E2E00C9489
:1053D0005039A0E0B0E0EFEEF9E20C9434398AE302
:1053E0000E94F90486E30E94F9048DE30E94F90407
:1053F00084E30E94F904E2E00C945039A5E2B0E0A5
:10540000E4E0FAE20C94323980914202882309F4F4
:10541000FFC083E290E0FC018081882F90E08470DF
:105420009927892B09F4DBC08FE30E94B2048F77A0
:10543000888788858E3110F0CCDFEAC085E290E065
:1054400025E230E0F90120812F7EFC0120838FEFDF
:105450000E943D021B8213C08B81882F90E08C013B
:105460000F5F1F4F80E00E943D02282FCE0108965B
:10547000800F911FFC0120838B818F5F8B83988528
:105480008B81891748F380E00E943D028E8380E083
:105490000E943D0285E290E025E230E0F9012081A2
:1054A0002061FC01208384E30E94F90485E30E94CB
:1054B000B2048D30C1F7898589838985982F86E765
:1054C0008927898782E08A8329C08A81882F90E092
:1054D0009E01285F3F4F820F931FFC0180818F83C5
:1054E0008A81882F90E029812452622F2A81222FDD
:1054F00030E0AE01485F5F4F240F351FF901208176
:105500002627422F9E01285F3F4F820F931FFC01E9
:1055100040838F8189838A818F5F8A8398858A817E
:10552000891798F28A81882F90E02A81222F30E013
:10553000AE01485F5F4F240F351FF90130812A8586
:10554000432F42279E01285F3F4F820F931FFC018C
:1055500040838091DB02882F90E080719927892B0E
:10556000C9F081E60E945A071C820FC08C81882FE7
:1055700090E09E01285F3F4F820F931FFC018081C6
:105580000E945A078C818F5F8C8398858C81981735
:1055900068F725C081E40E945A071D820FC08D81E3
:1055A000882F90E09E01285F3F4F820F931FFC01E0
:1055B00080810E94B5088D818F5F8D8398858D8154
:1055C000981768F78091DB02882F90E08072992706
:1055D000892B19F08E810E94B5080E94BF0785E3D0
:1055E0000E94B204882F90E08130910529F0419704
:1055F00069F48AE30E94F90486E30E94F9048DE3CA
:105600000E94F90484E30E94F90400000E948905C5
:10561000A596E4E00C944E39ACE2B0E0E2E1FBE2A6
:105620000C9430399CA78BA78BA59CA501969E0155
:105630002B5F3F4F4DE1B9010E94C6088B838B81E0
:10564000882F90E09C01215031098D81882F90E0B6
:105650002817390709F015C180914202882321F4E7
:105660003ADE83E00E9445078F818C838E81982FDC
:1056700086E789278E8382E0898327C08981882FE6
:1056800090E02981222F30E021503109AE014B5F9B
:105690005F4F240F351FF90120812452622F298189
:1056A000222F30E0AE014B5F5F4F240F351FF90111
:1056B00020812627422F9E012B5F3F4F820F931F91
:1056C000FC01408389818F5F89839D81898189174E
:1056D000A8F28981882F90E02981222F30E0AE0145
:1056E0004B5F5F4F240F351FF90130812C81432F11
:1056F00042279E012B5F3F4F820F931FFC01408387
:10570000CE0183960E94D60585E30E94F90485E3C5
:105710000E94B204833109F44BC0CE0187960E94E7
:10572000D6052FA138A549A55AA58BA19CA1ADA14D
:10573000BEA182179307A407B507A8F42FA138A527
:1057400049A55AA58BA19CA1ADA1BEA179018A0151
:10575000E81AF90A0A0B1B0BD801C7018D3B91050A
:10576000A105B10500F52FA138A549A55AA58BA122
:105770009CA1ADA1BEA1281739074A075B07C0F459
:105780008BA19CA1ADA1BEA19C01AD0124543F4FB2
:105790004F4F5F4F8FA198A5A9A5BAA52817390724
:1057A0004A075B0728F480EB92E00E949D074CC0FB
:1057B00085E30E94B204833109F0A6CF8C81882F43
:1057C00090E080719927892B61F0198206C088E7E3
:1057D0000E94450789818F5F898389818330B8F36F
:1057E00003C08AE00E94450785E290E025E230E0B0
:1057F000F90120812F7EFC0120838FE70E943D026A
:105800001A820FC08A81882F90E09E012B5F3F4F44
:10581000820F931FFC0180810E943D028A818F5F6D
:105820008A839A818B81981768F385E290E025E25C
:1058300030E0F90120812061FC012083000085E334
:105840000E94B2048331D9F385E30E94B204863109
:1058500049F48BE30E94F90486E30E94F9048DE386
:105860000E94F90480914202882349F084E30E9457
:10587000F90485E30E94B2048D30C1F702C00E9492
:105880004D13AC96E6E00C944C39A2E0B0E0EBE4AA
:10589000FCE20C9434399A83898389819A81019638
:1058A000FC018081823729F416DD81E08093420279
:1058B0000EC089819A810196FC018081833729F489
:1058C00089819A810196A8DE02C010924202229636
:1058D000E2E00C945039A7E0B0E0E1E7FCE20C9480
:1058E00034398DE390E02DE330E0F90120812B7F06
:1058F000FC01208384E290E024E230E0F901208181
:105900002061FC01208385E290E025E230E0F9018E
:1059100020812061FC0120838EE190E00E94290714
:1059200085E290E025E230E0F90120812F7EFC0144
:1059300020838EE190E00E94290785E290E025E235
:1059400030E0F90120812061FC0120838DE290E0AC
:105950000E94290780E30E94F90484E690E00E94F7
:10596000290785E290E025E230E0F90120812F7ED1
:10597000FC01208380E40E943D02198212C08981CB
:10598000882F90E086549D4F9E838D838D819E81CC
:10599000FC0184918F838F810E943D0289818F5FFA
:1059A00089838981893258F385E290E025E230E0ED
:1059B000F90120812061FC0120838BE290E09B8330
:1059C0008A8385E290E025E230E0F90120812F7E94
:1059D000FC0120838EE70E943D021C820EC08A815A
:1059E0009B819C012F5F3F4F3B832A830E94320A99
:1059F0000E943D028C818F5F8C838C81883078F38C
:105A000085E290E025E230E0F90120812061FC018F
:105A1000208383E30E94F90481E00E94450781E02E
:105A20008093D1020E94E60C2796E2E00C94503954
:105A3000A0E0B0E0EEE1FDE20C94343985E290E0C4
:105A400025E230E0F90120812860FC01208380916B
:105A50000401909105010E94290785E290E025E26A
:105A600030E0F9012081277FFC012083809104012F
:105A7000909105010E942907E2E00C945039A0E0C2
:105A8000B0E0E5E4FDE20C94343985E290E025E2F3
:105A900030E0F9012081277FFC01208380910401FF
:105AA000909105010E94290785E290E025E230E00F
:105AB000F90120812860FC012083809104019091EC
:105AC00005010E942907E2E00C945039A9E0B0E0FA
:105AD000ECE6FDE20C94343998878F83698719824C
